{
  "contractName": "ExamManagement",
  "abi": [
    {
      "inputs": [],
      "stateMutability": "nonpayable",
      "type": "constructor"
    },
    {
      "anonymous": false,
      "inputs": [
        {
          "indexed": false,
          "internalType": "uint256",
          "name": "examID",
          "type": "uint256"
        },
        {
          "indexed": false,
          "internalType": "uint256",
          "name": "studentID",
          "type": "uint256"
        },
        {
          "indexed": false,
          "internalType": "string",
          "name": "answerSheetHash",
          "type": "string"
        }
      ],
      "name": "answerSheetUpdated",
      "type": "event"
    },
    {
      "anonymous": false,
      "inputs": [
        {
          "indexed": false,
          "internalType": "uint256",
          "name": "examID",
          "type": "uint256"
        }
      ],
      "name": "examDeleted",
      "type": "event"
    },
    {
      "anonymous": false,
      "inputs": [
        {
          "indexed": false,
          "internalType": "uint256",
          "name": "examID",
          "type": "uint256"
        },
        {
          "indexed": false,
          "internalType": "string",
          "name": "examPaperHash",
          "type": "string"
        }
      ],
      "name": "examPaperUpdated",
      "type": "event"
    },
    {
      "anonymous": false,
      "inputs": [
        {
          "indexed": false,
          "internalType": "uint256",
          "name": "examID",
          "type": "uint256"
        },
        {
          "indexed": false,
          "internalType": "bool",
          "name": "isExpired",
          "type": "bool"
        }
      ],
      "name": "examStatusChanged",
      "type": "event"
    },
    {
      "anonymous": false,
      "inputs": [
        {
          "indexed": false,
          "internalType": "uint256",
          "name": "examID",
          "type": "uint256"
        },
        {
          "indexed": false,
          "internalType": "string",
          "name": "startTime",
          "type": "string"
        },
        {
          "indexed": false,
          "internalType": "string",
          "name": "endTime",
          "type": "string"
        },
        {
          "indexed": false,
          "internalType": "string",
          "name": "markerPK",
          "type": "string"
        },
        {
          "indexed": false,
          "internalType": "string",
          "name": "description",
          "type": "string"
        }
      ],
      "name": "examUpdated",
      "type": "event"
    },
    {
      "inputs": [
        {
          "internalType": "address",
          "name": "_universityContract",
          "type": "address"
        },
        {
          "internalType": "address",
          "name": "_studentContract",
          "type": "address"
        }
      ],
      "name": "init",
      "outputs": [],
      "stateMutability": "nonpayable",
      "type": "function"
    },
    {
      "inputs": [
        {
          "internalType": "address",
          "name": "_universityContract",
          "type": "address"
        }
      ],
      "name": "changeUniversityContractAddr",
      "outputs": [],
      "stateMutability": "nonpayable",
      "type": "function"
    },
    {
      "inputs": [
        {
          "internalType": "address",
          "name": "_studentContract",
          "type": "address"
        }
      ],
      "name": "changeStudentContractAddr",
      "outputs": [],
      "stateMutability": "nonpayable",
      "type": "function"
    },
    {
      "inputs": [],
      "name": "showUniversityContractAddr",
      "outputs": [
        {
          "internalType": "address",
          "name": "",
          "type": "address"
        }
      ],
      "stateMutability": "view",
      "type": "function",
      "constant": true
    },
    {
      "inputs": [],
      "name": "showStudentContractAddr",
      "outputs": [
        {
          "internalType": "address",
          "name": "",
          "type": "address"
        }
      ],
      "stateMutability": "view",
      "type": "function",
      "constant": true
    },
    {
      "inputs": [
        {
          "internalType": "uint256",
          "name": "_examID",
          "type": "uint256"
        }
      ],
      "name": "getExam",
      "outputs": [
        {
          "components": [
            {
              "internalType": "bool",
              "name": "isExist",
              "type": "bool"
            },
            {
              "internalType": "bool",
              "name": "isExpired",
              "type": "bool"
            },
            {
              "internalType": "string",
              "name": "startTime",
              "type": "string"
            },
            {
              "internalType": "string",
              "name": "endTime",
              "type": "string"
            },
            {
              "internalType": "string",
              "name": "markerPK",
              "type": "string"
            },
            {
              "internalType": "string",
              "name": "description",
              "type": "string"
            },
            {
              "internalType": "string",
              "name": "examPaperHash",
              "type": "string"
            },
            {
              "components": [
                {
                  "internalType": "address",
                  "name": "studentAddr",
                  "type": "address"
                },
                {
                  "internalType": "string",
                  "name": "studentPK",
                  "type": "string"
                }
              ],
              "internalType": "struct ExamManagement.student[]",
              "name": "students",
              "type": "tuple[]"
            },
            {
              "components": [
                {
                  "internalType": "uint256",
                  "name": "studentID",
                  "type": "uint256"
                },
                {
                  "internalType": "address",
                  "name": "studentAddr",
                  "type": "address"
                },
                {
                  "internalType": "string",
                  "name": "answerSheetHash",
                  "type": "string"
                }
              ],
              "internalType": "struct ExamManagement.answerSheet[]",
              "name": "answerSheets",
              "type": "tuple[]"
            }
          ],
          "internalType": "struct ExamManagement.exam",
          "name": "",
          "type": "tuple"
        }
      ],
      "stateMutability": "view",
      "type": "function",
      "constant": true
    },
    {
      "inputs": [],
      "name": "getExamIDs",
      "outputs": [
        {
          "internalType": "uint256[]",
          "name": "",
          "type": "uint256[]"
        }
      ],
      "stateMutability": "view",
      "type": "function",
      "constant": true
    },
    {
      "inputs": [
        {
          "internalType": "uint256",
          "name": "_examID",
          "type": "uint256"
        },
        {
          "internalType": "uint256[]",
          "name": "_studentIDs",
          "type": "uint256[]"
        },
        {
          "internalType": "string",
          "name": "_startTime",
          "type": "string"
        },
        {
          "internalType": "string",
          "name": "_endTime",
          "type": "string"
        },
        {
          "internalType": "string",
          "name": "_markerPK",
          "type": "string"
        },
        {
          "internalType": "string",
          "name": "_description",
          "type": "string"
        }
      ],
      "name": "updateExam",
      "outputs": [],
      "stateMutability": "nonpayable",
      "type": "function"
    },
    {
      "inputs": [
        {
          "internalType": "uint256",
          "name": "_examID",
          "type": "uint256"
        },
        {
          "internalType": "string",
          "name": "_examPaperHash",
          "type": "string"
        }
      ],
      "name": "updateExamPaper",
      "outputs": [],
      "stateMutability": "nonpayable",
      "type": "function"
    },
    {
      "inputs": [
        {
          "internalType": "uint256",
          "name": "_examID",
          "type": "uint256"
        },
        {
          "internalType": "uint256",
          "name": "_studentID",
          "type": "uint256"
        },
        {
          "internalType": "string",
          "name": "_answerSheetHash",
          "type": "string"
        }
      ],
      "name": "updateAnswerSheet",
      "outputs": [],
      "stateMutability": "nonpayable",
      "type": "function"
    },
    {
      "inputs": [
        {
          "internalType": "uint256",
          "name": "_examID",
          "type": "uint256"
        },
        {
          "internalType": "bool",
          "name": "_isExpired",
          "type": "bool"
        }
      ],
      "name": "setExpired",
      "outputs": [],
      "stateMutability": "nonpayable",
      "type": "function"
    },
    {
      "inputs": [
        {
          "internalType": "uint256",
          "name": "_examID",
          "type": "uint256"
        }
      ],
      "name": "deleteExam",
      "outputs": [],
      "stateMutability": "nonpayable",
      "type": "function"
    }
  ],
  "bytecode": "0x608060405234801561001057600080fd5b50336000806101000a81548173ffffffffffffffffffffffffffffffffffffffff021916908373ffffffffffffffffffffffffffffffffffffffff16021790555061328f806100606000396000f3fe608060405234801561001057600080fd5b50600436106100b45760003560e01c8063d4c559b011610071578063d4c559b014610165578063d57d1db314610183578063d625ed361461019f578063f09a4016146101bb578063f97563d5146101d7578063fba91c1a14610207576100b4565b806330682f39146100b9578063608dec8e146100d75780639b4cd9ba146100f3578063bd2646cd14610111578063c04ef7811461012d578063c8ff052114610149575b600080fd5b6100c1610223565b6040516100ce9190611dbc565b60405180910390f35b6100f160048036038101906100ec9190611e21565b61024d565b005b6100fb6104c4565b6040516101089190611dbc565b60405180910390f35b61012b60048036038101906101269190611f94565b6104ee565b005b6101476004803603810190610142919061202f565b61079c565b005b610163600480360381019061015e9190612094565b6108c2565b005b61016d610adf565b60405161017a9190612192565b60405180910390f35b61019d6004803603810190610198919061202f565b610b37565b005b6101b960048036038101906101b491906121b4565b610c5d565b005b6101d560048036038101906101d09190612210565b610e63565b005b6101f160048036038101906101ec9190611e21565b610f77565b6040516101fe91906125f6565b60405180910390f35b610221600480360381019061021c91906126e0565b6115b7565b005b6000600260009054906101000a900473ffffffffffffffffffffffffffffffffffffffff16905090565b60011515600160009054906101000a900473ffffffffffffffffffffffffffffffffffffffff1673ffffffffffffffffffffffffffffffffffffffff16632f54bf6e336040518263ffffffff1660e01b81526004016102ac9190611dbc565b602060405180830381865afa1580156102c9573d6000803e3d6000fd5b505050506040513d601f19601f820116820180604052508101906102ed919061280e565b15151461032f576040517f08c379a0000000000000000000000000000000000000000000000000000000008152600401610326906128be565b60405180910390fd5b60008103610372576040517f08c379a00000000000000000000000000000000000000000000000000000000081526004016103699061292a565b60405180910390fd5b600015156003600083815260200190815260200160002060000160009054906101000a900460ff161515036103dc576040517f08c379a00000000000000000000000000000000000000000000000000000000081526004016103d390612996565b60405180910390fd5b60036000828152602001908152602001600020600080820160006101000a81549060ff02191690556000820160016101000a81549060ff02191690556001820160006104289190611b7b565b6002820160006104389190611b7b565b6003820160006104489190611b7b565b6004820160006104589190611b7b565b6005820160006104689190611b7b565b6006820160006104789190611bbb565b6007820160006104889190611bdf565b50507f8f271d7f3e2723b67a0a6a2a01514ea7ce1c704a39da140de0839442347cc571816040516104b991906129c5565b60405180910390a150565b6000600160009054906101000a900473ffffffffffffffffffffffffffffffffffffffff16905090565b600015156003600085815260200190815260200160002060000160009054906101000a900460ff16151503610558576040517f08c379a000000000000000000000000000000000000000000000000000000000815260040161054f90612a2c565b60405180910390fd5b6000821161059b576040517f08c379a000000000000000000000000000000000000000000000000000000000815260040161059290612a98565b60405180910390fd5b60008151116105df576040517f08c379a00000000000000000000000000000000000000000000000000000000081526004016105d690612b04565b60405180910390fd5b6000806105eb84611acd565b915091503373ffffffffffffffffffffffffffffffffffffffff168273ffffffffffffffffffffffffffffffffffffffff161461065d576040517f08c379a000000000000000000000000000000000000000000000000000000000815260040161065490612b96565b60405180910390fd5b610665611c03565b8481600001818152505082816020019073ffffffffffffffffffffffffffffffffffffffff16908173ffffffffffffffffffffffffffffffffffffffff1681525050838160400181905250600360008781526020019081526020016000206007018190806001815401808255809150506001900390600052602060002090600302016000909190919091506000820151816000015560208201518160010160006101000a81548173ffffffffffffffffffffffffffffffffffffffff021916908373ffffffffffffffffffffffffffffffffffffffff16021790555060408201518160020190816107569190612dc2565b5050507f39bb165604de5ca9b67ccdf41b3ed8aa822fc37bf34cb61af8527984c58e24c686868660405161078c93929190612ecd565b60405180910390a1505050505050565b60011515600160009054906101000a900473ffffffffffffffffffffffffffffffffffffffff1673ffffffffffffffffffffffffffffffffffffffff16632f54bf6e336040518263ffffffff1660e01b81526004016107fb9190611dbc565b602060405180830381865afa158015610818573d6000803e3d6000fd5b505050506040513d601f19601f8201168201806040525081019061083c919061280e565b15151461087e576040517f08c379a0000000000000000000000000000000000000000000000000000000008152600401610875906128be565b60405180910390fd5b80600260006101000a81548173ffffffffffffffffffffffffffffffffffffffff021916908373ffffffffffffffffffffffffffffffffffffffff16021790555050565b60011515600160009054906101000a900473ffffffffffffffffffffffffffffffffffffffff1673ffffffffffffffffffffffffffffffffffffffff16632f54bf6e336040518263ffffffff1660e01b81526004016109219190611dbc565b602060405180830381865afa15801561093e573d6000803e3d6000fd5b505050506040513d601f19601f82011682018060405250810190610962919061280e565b1515146109a4576040517f08c379a000000000000000000000000000000000000000000000000000000000815260040161099b906128be565b60405180910390fd5b600082036109e7576040517f08c379a00000000000000000000000000000000000000000000000000000000081526004016109de9061292a565b60405180910390fd5b600015156003600084815260200190815260200160002060000160009054906101000a900460ff16151503610a51576040517f08c379a0000000000000000000000000000000000000000000000000000000008152600401610a4890612996565b60405180910390fd5b806003600084815260200190815260200160002060000160016101000a81548160ff0219169083151502179055507f9353a2f10fb1a19ceb84f4979d32ad4a3c05f94a9991631447daf08767e60b03826003600085815260200190815260200160002060000160019054906101000a900460ff16604051610ad3929190612f1a565b60405180910390a15050565b60606004805480602002602001604051908101604052809291908181526020018280548015610b2d57602002820191906000526020600020905b815481526020019060010190808311610b19575b5050505050905090565b60011515600160009054906101000a900473ffffffffffffffffffffffffffffffffffffffff1673ffffffffffffffffffffffffffffffffffffffff16632f54bf6e336040518263ffffffff1660e01b8152600401610b969190611dbc565b602060405180830381865afa158015610bb3573d6000803e3d6000fd5b505050506040513d601f19601f82011682018060405250810190610bd7919061280e565b151514610c19576040517f08c379a0000000000000000000000000000000000000000000000000000000008152600401610c10906128be565b60405180910390fd5b80600160006101000a81548173ffffffffffffffffffffffffffffffffffffffff021916908373ffffffffffffffffffffffffffffffffffffffff16021790555050565b60011515600160009054906101000a900473ffffffffffffffffffffffffffffffffffffffff1673ffffffffffffffffffffffffffffffffffffffff16632f54bf6e336040518263ffffffff1660e01b8152600401610cbc9190611dbc565b602060405180830381865afa158015610cd9573d6000803e3d6000fd5b505050506040513d601f19601f82011682018060405250810190610cfd919061280e565b151514610d3f576040517f08c379a0000000000000000000000000000000000000000000000000000000008152600401610d36906128be565b60405180910390fd5b600015156003600084815260200190815260200160002060000160009054906101000a900460ff16151503610da9576040517f08c379a0000000000000000000000000000000000000000000000000000000008152600401610da090612a2c565b60405180910390fd5b6000815111610ded576040517f08c379a0000000000000000000000000000000000000000000000000000000008152600401610de490612b04565b60405180910390fd5b80600360008481526020019081526020016000206005019081610e109190612dc2565b507f087a04b3c425b04ec596974d707b03c85438b04d8ef9ba364267837b4200d3df8260036000858152602001908152602001600020600501604051610e57929190612fc7565b60405180910390a15050565b3373ffffffffffffffffffffffffffffffffffffffff1660008054906101000a900473ffffffffffffffffffffffffffffffffffffffff1673ffffffffffffffffffffffffffffffffffffffff1614610ef1576040517f08c379a0000000000000000000000000000000000000000000000000000000008152600401610ee8906128be565b60405180910390fd5b81600160006101000a81548173ffffffffffffffffffffffffffffffffffffffff021916908373ffffffffffffffffffffffffffffffffffffffff16021790555080600260006101000a81548173ffffffffffffffffffffffffffffffffffffffff021916908373ffffffffffffffffffffffffffffffffffffffff1602179055505050565b610f7f611c3a565b600115156003600084815260200190815260200160002060000160009054906101000a900460ff16151514610fe9576040517f08c379a0000000000000000000000000000000000000000000000000000000008152600401610fe090613043565b60405180910390fd5b60036000838152602001908152602001600020604051806101200160405290816000820160009054906101000a900460ff161515151581526020016000820160019054906101000a900460ff1615151515815260200160018201805461104e90612be5565b80601f016020809104026020016040519081016040528092919081815260200182805461107a90612be5565b80156110c75780601f1061109c576101008083540402835291602001916110c7565b820191906000526020600020905b8154815290600101906020018083116110aa57829003601f168201915b505050505081526020016002820180546110e090612be5565b80601f016020809104026020016040519081016040528092919081815260200182805461110c90612be5565b80156111595780601f1061112e57610100808354040283529160200191611159565b820191906000526020600020905b81548152906001019060200180831161113c57829003601f168201915b5050505050815260200160038201805461117290612be5565b80601f016020809104026020016040519081016040528092919081815260200182805461119e90612be5565b80156111eb5780601f106111c0576101008083540402835291602001916111eb565b820191906000526020600020905b8154815290600101906020018083116111ce57829003601f168201915b5050505050815260200160048201805461120490612be5565b80601f016020809104026020016040519081016040528092919081815260200182805461123090612be5565b801561127d5780601f106112525761010080835404028352916020019161127d565b820191906000526020600020905b81548152906001019060200180831161126057829003601f168201915b5050505050815260200160058201805461129690612be5565b80601f01602080910402602001604051908101604052809291908181526020018280546112c290612be5565b801561130f5780601f106112e45761010080835404028352916020019161130f565b820191906000526020600020905b8154815290600101906020018083116112f257829003601f168201915b5050505050815260200160068201805480602002602001604051908101604052809291908181526020016000905b8282101561145757838290600052602060002090600202016040518060400160405290816000820160009054906101000a900473ffffffffffffffffffffffffffffffffffffffff1673ffffffffffffffffffffffffffffffffffffffff1673ffffffffffffffffffffffffffffffffffffffff1681526020016001820180546113c690612be5565b80601f01602080910402602001604051908101604052809291908181526020018280546113f290612be5565b801561143f5780601f106114145761010080835404028352916020019161143f565b820191906000526020600020905b81548152906001019060200180831161142257829003601f168201915b5050505050815250508152602001906001019061133d565b50505050815260200160078201805480602002602001604051908101604052809291908181526020016000905b828210156115a85783829060005260206000209060030201604051806060016040529081600082015481526020016001820160009054906101000a900473ffffffffffffffffffffffffffffffffffffffff1673ffffffffffffffffffffffffffffffffffffffff1673ffffffffffffffffffffffffffffffffffffffff16815260200160028201805461151790612be5565b80601f016020809104026020016040519081016040528092919081815260200182805461154390612be5565b80156115905780601f1061156557610100808354040283529160200191611590565b820191906000526020600020905b81548152906001019060200180831161157357829003601f168201915b50505050508152505081526020019060010190611484565b50505050815250509050919050565b60011515600160009054906101000a900473ffffffffffffffffffffffffffffffffffffffff1673ffffffffffffffffffffffffffffffffffffffff16632f54bf6e336040518263ffffffff1660e01b81526004016116169190611dbc565b602060405180830381865afa158015611633573d6000803e3d6000fd5b505050506040513d601f19601f82011682018060405250810190611657919061280e565b151514611699576040517f08c379a0000000000000000000000000000000000000000000000000000000008152600401611690906128be565b60405180910390fd5b600086036116dc576040517f08c379a00000000000000000000000000000000000000000000000000000000081526004016116d390612a98565b60405180910390fd5b6000855111611720576040517f08c379a000000000000000000000000000000000000000000000000000000000815260040161171790612b04565b60405180910390fd5b6000845111611764576040517f08c379a000000000000000000000000000000000000000000000000000000000815260040161175b90612b04565b60405180910390fd5b60008351116117a8576040517f08c379a000000000000000000000000000000000000000000000000000000000815260040161179f90612b04565b60405180910390fd5b60008251116117ec576040517f08c379a00000000000000000000000000000000000000000000000000000000081526004016117e390612b04565b60405180910390fd5b600015156003600088815260200190815260200160002060000160009054906101000a900460ff1615150361187457600486908060018154018082558091505060019003906000526020600020016000909190919091505560016003600088815260200190815260200160002060000160006101000a81548160ff0219169083151502179055505b836003600088815260200190815260200160002060010190816118979190612dc2565b50826003600088815260200190815260200160002060020190816118bb9190612dc2565b50816003600088815260200190815260200160002060030190816118df9190612dc2565b50806003600088815260200190815260200160002060040190816119039190612dc2565b5060008551905060005b81811015611a305761191d611c8a565b61194088838151811061193357611932613063565b5b6020026020010151611acd565b82600001836020018290528273ffffffffffffffffffffffffffffffffffffffff1673ffffffffffffffffffffffffffffffffffffffff168152505050600360008a815260200190815260200160002060060181908060018154018082558091505060019003906000526020600020906002020160009091909190915060008201518160000160006101000a81548173ffffffffffffffffffffffffffffffffffffffff021916908373ffffffffffffffffffffffffffffffffffffffff1602179055506020820151816001019081611a199190612dc2565b505050508080611a28906130c1565b91505061190d565b507f36724b87804290b24fab29dc5a243526752f9e0a01430eba6c7aa6edf68254ce87600360008a8152602001908152602001600020600101600360008b8152602001908152602001600020600201600360008c8152602001908152602001600020600301600360008d8152602001908152602001600020600401604051611abc959493929190613109565b60405180910390a150505050505050565b60006060600260009054906101000a900473ffffffffffffffffffffffffffffffffffffffff1673ffffffffffffffffffffffffffffffffffffffff1663642f9163846040518263ffffffff1660e01b8152600401611b2c91906129c5565b600060405180830381865afa158015611b49573d6000803e3d6000fd5b505050506040513d6000823e3d601f19601f82011682018060405250810190611b7291906131fd565b91509150915091565b508054611b8790612be5565b6000825580601f10611b995750611bb8565b601f016020900490600052602060002090810190611bb79190611cba565b5b50565b5080546000825560020290600052602060002090810190611bdc9190611cd7565b50565b5080546000825560030290600052602060002090810190611c009190611d25565b50565b604051806060016040528060008152602001600073ffffffffffffffffffffffffffffffffffffffff168152602001606081525090565b604051806101200160405280600015158152602001600015158152602001606081526020016060815260200160608152602001606081526020016060815260200160608152602001606081525090565b6040518060400160405280600073ffffffffffffffffffffffffffffffffffffffff168152602001606081525090565b5b80821115611cd3576000816000905550600101611cbb565b5090565b5b80821115611d2157600080820160006101000a81549073ffffffffffffffffffffffffffffffffffffffff0219169055600182016000611d189190611b7b565b50600201611cd8565b5090565b5b80821115611d77576000808201600090556001820160006101000a81549073ffffffffffffffffffffffffffffffffffffffff0219169055600282016000611d6e9190611b7b565b50600301611d26565b5090565b600073ffffffffffffffffffffffffffffffffffffffff82169050919050565b6000611da682611d7b565b9050919050565b611db681611d9b565b82525050565b6000602082019050611dd16000830184611dad565b92915050565b6000604051905090565b600080fd5b600080fd5b6000819050919050565b611dfe81611deb565b8114611e0957600080fd5b50565b600081359050611e1b81611df5565b92915050565b600060208284031215611e3757611e36611de1565b5b6000611e4584828501611e0c565b91505092915050565b600080fd5b600080fd5b6000601f19601f8301169050919050565b7f4e487b7100000000000000000000000000000000000000000000000000000000600052604160045260246000fd5b611ea182611e58565b810181811067ffffffffffffffff82111715611ec057611ebf611e69565b5b80604052505050565b6000611ed3611dd7565b9050611edf8282611e98565b919050565b600067ffffffffffffffff821115611eff57611efe611e69565b5b611f0882611e58565b9050602081019050919050565b82818337600083830152505050565b6000611f37611f3284611ee4565b611ec9565b905082815260208101848484011115611f5357611f52611e53565b5b611f5e848285611f15565b509392505050565b600082601f830112611f7b57611f7a611e4e565b5b8135611f8b848260208601611f24565b91505092915050565b600080600060608486031215611fad57611fac611de1565b5b6000611fbb86828701611e0c565b9350506020611fcc86828701611e0c565b925050604084013567ffffffffffffffff811115611fed57611fec611de6565b5b611ff986828701611f66565b9150509250925092565b61200c81611d9b565b811461201757600080fd5b50565b60008135905061202981612003565b92915050565b60006020828403121561204557612044611de1565b5b60006120538482850161201a565b91505092915050565b60008115159050919050565b6120718161205c565b811461207c57600080fd5b50565b60008135905061208e81612068565b92915050565b600080604083850312156120ab576120aa611de1565b5b60006120b985828601611e0c565b92505060206120ca8582860161207f565b9150509250929050565b600081519050919050565b600082825260208201905092915050565b6000819050602082019050919050565b61210981611deb565b82525050565b600061211b8383612100565b60208301905092915050565b6000602082019050919050565b600061213f826120d4565b61214981856120df565b9350612154836120f0565b8060005b8381101561218557815161216c888261210f565b975061217783612127565b925050600181019050612158565b5085935050505092915050565b600060208201905081810360008301526121ac8184612134565b905092915050565b600080604083850312156121cb576121ca611de1565b5b60006121d985828601611e0c565b925050602083013567ffffffffffffffff8111156121fa576121f9611de6565b5b61220685828601611f66565b9150509250929050565b6000806040838503121561222757612226611de1565b5b60006122358582860161201a565b92505060206122468582860161201a565b9150509250929050565b6122598161205c565b82525050565b600081519050919050565b600082825260208201905092915050565b60005b8381101561229957808201518184015260208101905061227e565b838111156122a8576000848401525b50505050565b60006122b98261225f565b6122c3818561226a565b93506122d381856020860161227b565b6122dc81611e58565b840191505092915050565b600081519050919050565b600082825260208201905092915050565b6000819050602082019050919050565b61231c81611d9b565b82525050565b600060408301600083015161233a6000860182612313565b506020830151848203602086015261235282826122ae565b9150508091505092915050565b600061236b8383612322565b905092915050565b6000602082019050919050565b600061238b826122e7565b61239581856122f2565b9350836020820285016123a785612303565b8060005b858110156123e357848403895281516123c4858261235f565b94506123cf83612373565b925060208a019950506001810190506123ab565b50829750879550505050505092915050565b600081519050919050565b600082825260208201905092915050565b6000819050602082019050919050565b60006060830160008301516124396000860182612100565b50602083015161244c6020860182612313565b506040830151848203604086015261246482826122ae565b9150508091505092915050565b600061247d8383612421565b905092915050565b6000602082019050919050565b600061249d826123f5565b6124a78185612400565b9350836020820285016124b985612411565b8060005b858110156124f557848403895281516124d68582612471565b94506124e183612485565b925060208a019950506001810190506124bd565b50829750879550505050505092915050565b6000610120830160008301516125206000860182612250565b5060208301516125336020860182612250565b506040830151848203604086015261254b82826122ae565b9150506060830151848203606086015261256582826122ae565b9150506080830151848203608086015261257f82826122ae565b91505060a083015184820360a086015261259982826122ae565b91505060c083015184820360c08601526125b382826122ae565b91505060e083015184820360e08601526125cd8282612380565b9150506101008301518482036101008601526125e98282612492565b9150508091505092915050565b600060208201905081810360008301526126108184612507565b905092915050565b600067ffffffffffffffff82111561263357612632611e69565b5b602082029050602081019050919050565b600080fd5b600061265c61265784612618565b611ec9565b9050808382526020820190506020840283018581111561267f5761267e612644565b5b835b818110156126a857806126948882611e0c565b845260208401935050602081019050612681565b5050509392505050565b600082601f8301126126c7576126c6611e4e565b5b81356126d7848260208601612649565b91505092915050565b60008060008060008060c087890312156126fd576126fc611de1565b5b600061270b89828a01611e0c565b965050602087013567ffffffffffffffff81111561272c5761272b611de6565b5b61273889828a016126b2565b955050604087013567ffffffffffffffff81111561275957612758611de6565b5b61276589828a01611f66565b945050606087013567ffffffffffffffff81111561278657612785611de6565b5b61279289828a01611f66565b935050608087013567ffffffffffffffff8111156127b3576127b2611de6565b5b6127bf89828a01611f66565b92505060a087013567ffffffffffffffff8111156127e0576127df611de6565b5b6127ec89828a01611f66565b9150509295509295509295565b60008151905061280881612068565b92915050565b60006020828403121561282457612823611de1565b5b6000612832848285016127f9565b91505092915050565b600082825260208201905092915050565b7f4f776e657261626c653a2063616c6c6572206973206e6f7420746865206f776e60008201527f6572000000000000000000000000000000000000000000000000000000000000602082015250565b60006128a860228361283b565b91506128b38261284c565b604082019050919050565b600060208201905081810360008301526128d78161289b565b9050919050565b7f6578616d20494420697320656d70747921000000000000000000000000000000600082015250565b600061291460118361283b565b915061291f826128de565b602082019050919050565b6000602082019050818103600083015261294381612907565b9050919050565b7f6578616d206e6f74206578697374732100000000000000000000000000000000600082015250565b600061298060108361283b565b915061298b8261294a565b602082019050919050565b600060208201905081810360008301526129af81612973565b9050919050565b6129bf81611deb565b82525050565b60006020820190506129da60008301846129b6565b92915050565b7f4578616d20646f6573206e6f7420657869737473210000000000000000000000600082015250565b6000612a1660158361283b565b9150612a21826129e0565b602082019050919050565b60006020820190508181036000830152612a4581612a09565b9050919050565b7f73747564656e7420494420697320656d70747921000000000000000000000000600082015250565b6000612a8260148361283b565b9150612a8d82612a4c565b602082019050919050565b60006020820190508181036000830152612ab181612a75565b9050919050565b7f73747564656e74207075626c6963206b657920697320656d7074792100000000600082015250565b6000612aee601c8361283b565b9150612af982612ab8565b602082019050919050565b60006020820190508181036000830152612b1d81612ae1565b9050919050565b7f73747564656e74204944206469646e2774206d6174636820796f75722061646460008201527f7265737321000000000000000000000000000000000000000000000000000000602082015250565b6000612b8060258361283b565b9150612b8b82612b24565b604082019050919050565b60006020820190508181036000830152612baf81612b73565b9050919050565b7f4e487b7100000000000000000000000000000000000000000000000000000000600052602260045260246000fd5b60006002820490506001821680612bfd57607f821691505b602082108103612c1057612c0f612bb6565b5b50919050565b60008190508160005260206000209050919050565b60006020601f8301049050919050565b600082821b905092915050565b600060088302612c787fffffffffffffffffffffffffffffffffffffffffffffffffffffffffffffffff82612c3b565b612c828683612c3b565b95508019841693508086168417925050509392505050565b6000819050919050565b6000612cbf612cba612cb584611deb565b612c9a565b611deb565b9050919050565b6000819050919050565b612cd983612ca4565b612ced612ce582612cc6565b848454612c48565b825550505050565b600090565b612d02612cf5565b612d0d818484612cd0565b505050565b5b81811015612d3157612d26600082612cfa565b600181019050612d13565b5050565b601f821115612d7657612d4781612c16565b612d5084612c2b565b81016020851015612d5f578190505b612d73612d6b85612c2b565b830182612d12565b50505b505050565b600082821c905092915050565b6000612d9960001984600802612d7b565b1980831691505092915050565b6000612db28383612d88565b9150826002028217905092915050565b612dcb8261225f565b67ffffffffffffffff811115612de457612de3611e69565b5b612dee8254612be5565b612df9828285612d35565b600060209050601f831160018114612e2c5760008415612e1a578287015190505b612e248582612da6565b865550612e8c565b601f198416612e3a86612c16565b60005b82811015612e6257848901518255600182019150602085019450602081019050612e3d565b86831015612e7f5784890151612e7b601f891682612d88565b8355505b6001600288020188555050505b505050505050565b6000612e9f8261225f565b612ea9818561283b565b9350612eb981856020860161227b565b612ec281611e58565b840191505092915050565b6000606082019050612ee260008301866129b6565b612eef60208301856129b6565b8181036040830152612f018184612e94565b9050949350505050565b612f148161205c565b82525050565b6000604082019050612f2f60008301856129b6565b612f3c6020830184612f0b565b9392505050565b60008154612f5081612be5565b612f5a818661283b565b94506001821660008114612f755760018114612f8b57612fbe565b60ff198316865281151560200286019350612fbe565b612f9485612c16565b60005b83811015612fb657815481890152600182019150602081019050612f97565b808801955050505b50505092915050565b6000604082019050612fdc60008301856129b6565b8181036020830152612fee8184612f43565b90509392505050565b7f6578616d20646f6573206e6f7420657869737421000000000000000000000000600082015250565b600061302d60148361283b565b915061303882612ff7565b602082019050919050565b6000602082019050818103600083015261305c81613020565b9050919050565b7f4e487b7100000000000000000000000000000000000000000000000000000000600052603260045260246000fd5b7f4e487b7100000000000000000000000000000000000000000000000000000000600052601160045260246000fd5b60006130cc82611deb565b91507fffffffffffffffffffffffffffffffffffffffffffffffffffffffffffffffff82036130fe576130fd613092565b5b600182019050919050565b600060a08201905061311e60008301886129b6565b81810360208301526131308187612f43565b905081810360408301526131448186612f43565b905081810360608301526131588185612f43565b9050818103608083015261316c8184612f43565b90509695505050505050565b60008151905061318781612003565b92915050565b60006131a061319b84611ee4565b611ec9565b9050828152602081018484840111156131bc576131bb611e53565b5b6131c784828561227b565b509392505050565b600082601f8301126131e4576131e3611e4e565b5b81516131f484826020860161318d565b91505092915050565b6000806040838503121561321457613213611de1565b5b600061322285828601613178565b925050602083015167ffffffffffffffff81111561324357613242611de6565b5b61324f858286016131cf565b915050925092905056fea264697066735822122051c23a45b6b37fc75a786b393abb78d1b6490b98a2ba884a93bd9ba8a2b7fd3964736f6c634300080f0033",
  "immutableReferences": {},
  "source": "\n// import \"./Ownable.sol\"; // Path to the imported library\n\npragma solidity >=0.7.0 <0.9.0;\n\n// SPDX-License-Identifier: MIT\n\n// interface of university management contract.\ninterface UniversityInterfaceExam{\n\n    // check if it's the university address.\n    function isOwner(address owner) external view returns (bool);\n}\n\n// interface of student management contract.\ninterface StudentInterface{\n    \n    // get the student address and public key by ID.\n    function getStudent(uint _studentID) external view returns (address, string memory);\n}\n\n\ncontract ExamManagement{\n\n    address owner;\n    address universityContract;\n    address studentContract;\n\n    // address and public key of a student.\n    struct student{\n        address studentAddr;\n        string studentPK;\n    }\n\n    struct answerSheet{\n        uint studentID;\n        address studentAddr;\n        string answerSheetHash;\n    }\n\n    // exam infomation.\n    struct exam {\n        bool isExist;\n        bool isExpired;\n        string startTime;\n        string endTime;\n        string markerPK;\n        string description;\n        string examPaperHash;\n        student[] students;\n        answerSheet[] answerSheets;\n    }\n\n    // map exam ID to exam details and invited students' information.\n    mapping (uint => exam) private exams;\n\n    // all exam IDs.\n    uint [] examIDs;\n\n    // Emits an event when a new exam is updated, you can use this to update remote exam lists.\n    event examUpdated(uint examID, string startTime, string endTime, string markerPK, string description);\n\n    // Emits an event when an exam is expired, you can use this to update remote exam lists.\n    event examStatusChanged(uint examID, bool isExpired);\n\n    // Emits an event when an exam is deleted, you can use this to update remote exam lists.\n    event examDeleted(uint examID);\n\n    // Emits an event when an exam paper is updated, you can use this to update remote exam lists.\n    event examPaperUpdated(uint examID, string examPaperHash);\n\n    event answerSheetUpdated(uint examID, uint studentID, string answerSheetHash);\n\n    constructor() {\n        owner = msg.sender;\n    }\n\n    // modifier: only owner (university) address can call the 'onlyOwner' function.\n    modifier onlyOwner() {\n        require(UniversityInterfaceExam(universityContract).isOwner(msg.sender) == true, \"Ownerable: caller is not the owner\");\n        _;\n    }\n\n    // initial set up of contract addresses of university management and student management.\n    function init(address _universityContract, address _studentContract) public{\n        require(owner == msg.sender, \"Ownerable: caller is not the owner\");\n        universityContract = _universityContract;\n        studentContract = _studentContract;\n    }\n\n    // change contract addresses of university management.\n    function changeUniversityContractAddr(address _universityContract) public onlyOwner{\n        universityContract = _universityContract;\n    }\n    \n    // change contract addresses of student management.\n    function changeStudentContractAddr(address _studentContract) public onlyOwner{\n        studentContract = _studentContract;\n    }\n\n    // show university management contract address.\n    function showUniversityContractAddr() public view returns(address){\n        return universityContract;\n    }\n    \n    // show student management contract address.\n    function showStudentContractAddr() public view returns(address){\n        return studentContract;\n    }\n\n    // get exam infomation by ID.\n    function getExam(uint _examID) public view returns (exam memory){\n        \n        // require the exam exists.\n        require(exams[_examID].isExist == true, \"exam does not exist!\");\n\n        return exams[_examID];\n    }\n\n    // get all exam IDs\n    function getExamIDs() external view returns (uint [] memory){\n\n        return examIDs;\n    }\n\n    // update or add exam\n    function updateExam(uint _examID, uint[] memory _studentIDs, string memory _startTime, string memory _endTime, string memory _markerPK, string memory _description) public onlyOwner{\n\n        // require the exam ID to not be empty.\n        require(_examID != 0, \"student ID is empty!\");\n\n        // require the student IDs to not be empty.\n        require(_studentIDs.length > 0, \"student public key is empty!\");\n\n        // require the start time to not be empty.\n        require(bytes(_startTime).length > 0, \"student public key is empty!\");\n\n        // require the end time to not be empty.\n        require(bytes(_endTime).length > 0, \"student public key is empty!\");\n\n        // require the marker public key to not be empty.\n        require(bytes(_markerPK).length > 0, \"student public key is empty!\");\n\n        // record exam IDs\n        if(exams[_examID].isExist == false){\n            examIDs.push(_examID);\n            exams[_examID].isExist = true;\n        }\n\n        // update the exam info to the storage.\n        exams[_examID].startTime = _startTime;\n        exams[_examID].endTime = _endTime;\n        exams[_examID].markerPK = _markerPK;\n        exams[_examID].description = _description;\n\n        // find all student addresses and public keys by ID\n        uint length = _studentIDs.length;\n        for (uint i = 0; i < length; i++) {\n            student memory newStudent;\n            (newStudent.studentAddr, newStudent.studentPK) = findStudent(_studentIDs[i]);\n            exams[_examID].students.push(newStudent);\n        }\n\n        // emits exam updated event.\n        emit examUpdated(_examID, exams[_examID].startTime, exams[_examID].endTime, exams[_examID].markerPK, exams[_examID].description);\n    }\n\n    // find student public key by ID\n    function findStudent(uint _studentID) private view returns(address, string memory){\n\n        return StudentInterface(studentContract).getStudent(_studentID);\n    }\n\n// update or add exam paper hash\n    function updateExamPaper(uint _examID, string memory _examPaperHash) public onlyOwner{\n\n        // require the exam ID exists.\n        require(exams[_examID].isExist != false, \"Exam does not exists!\");\n\n        // require the exam paper hash to not be empty.\n        require(bytes(_examPaperHash).length > 0, \"student public key is empty!\");\n\n        // update the exam paper hash to the storage.\n        exams[_examID].examPaperHash = _examPaperHash;\n\n        // emits exam updated event.\n        emit examPaperUpdated(_examID, exams[_examID].examPaperHash);\n    }\n\n    // update or add answer sheet hash\n    function updateAnswerSheet(uint _examID, uint _studentID, string memory _answerSheetHash) public{\n\n        // require the exam ID exists.\n        require(exams[_examID].isExist != false, \"Exam does not exists!\");\n        \n        // require the student ID to not be empty.\n        require(_studentID > 0, \"student ID is empty!\");\n\n        // require the answer sheet hash to not be empty.\n        require(bytes(_answerSheetHash).length > 0, \"student public key is empty!\");\n        \n        // require the answer sheet hash come from the correct student.\n        (address addr, string memory PK) = findStudent(_studentID);\n        require(addr == msg.sender, \"student ID didn't match your address!\");\n\n        // update the answer sheet hash to the storage.\n        answerSheet memory newAnswerSheet;\n        newAnswerSheet.studentID = _studentID;\n        newAnswerSheet.studentAddr = addr;\n        newAnswerSheet.answerSheetHash = _answerSheetHash;\n        exams[_examID].answerSheets.push(newAnswerSheet);\n\n        // emits exam updated event.\n        emit answerSheetUpdated(_examID, _studentID, _answerSheetHash);\n    }\n\n    function setExpired(uint _examID, bool _isExpired) public onlyOwner{\n\n        // require the exam ID to not be empty.\n        require(_examID != 0, \"exam ID is empty!\");\n        \n        // require the exam exists.\n        require(exams[_examID].isExist != false, \"exam not exists!\");\n\n        // set the exam status.\n        exams[_examID].isExpired = _isExpired;\n\n        // emits exam status changed event.\n        emit examStatusChanged(_examID, exams[_examID].isExpired);\n    }\n\n    // delete exam\n    function deleteExam(uint _examID) public onlyOwner{\n\n        // require the exam ID to not be empty.\n        require(_examID != 0, \"exam ID is empty!\");\n        \n        // require the exam exists.\n        require(exams[_examID].isExist != false, \"exam not exists!\");\n\n        delete exams[_examID];\n        \n        // delete the exam info.\n        // exams[_examID].isExist = false;\n        // exams[_examID].isExpired = false;\n        // exams[_examID].startTime = \"\";\n        // exams[_examID].endTime = \"\";\n        // exams[_examID].markerPK = \"\";\n        // exams[_examID].description = \"\";\n\n        // delete exams[_examID].students;\n\n        // uint length = exams[_examID].students.length;\n        // for (uint i = 0; i < length; i++) {\n        //     exams[_examID].students.pop();\n        // }\n\n        // emits exam deleted event.\n        emit examDeleted(_examID);\n    }\n}\n",
  "sourcePath": "/Users/reol/Documents/CyberSecurity/Msc project/code/OnlineExam/contracts/ExamManagement.sol",
  "compiler": {
    "name": "solc",
    "version": "0.8.15+commit.e14f2714.Emscripten.clang"
  },
  "schemaVersion": "3.4.8",
  "updatedAt": "2022-08-12T15:05:19.197Z",
  "networkType": "ethereum",
  "devdoc": {
    "kind": "dev",
    "methods": {},
    "version": 1
  },
  "userdoc": {
    "kind": "user",
    "methods": {},
    "version": 1
  }
}