{
  "contractName": "ExamManagement",
  "abi": [
    {
      "inputs": [],
      "stateMutability": "nonpayable",
      "type": "constructor"
    },
    {
      "anonymous": false,
      "inputs": [
        {
          "indexed": false,
          "internalType": "uint256",
          "name": "examID",
          "type": "uint256"
        }
      ],
      "name": "examDeleted",
      "type": "event"
    },
    {
      "anonymous": false,
      "inputs": [
        {
          "indexed": false,
          "internalType": "uint256",
          "name": "examID",
          "type": "uint256"
        },
        {
          "indexed": false,
          "internalType": "bool",
          "name": "isExpired",
          "type": "bool"
        }
      ],
      "name": "examStatusChanged",
      "type": "event"
    },
    {
      "anonymous": false,
      "inputs": [
        {
          "indexed": false,
          "internalType": "uint256",
          "name": "examID",
          "type": "uint256"
        },
        {
          "indexed": false,
          "internalType": "string",
          "name": "startTime",
          "type": "string"
        },
        {
          "indexed": false,
          "internalType": "string",
          "name": "endTime",
          "type": "string"
        },
        {
          "indexed": false,
          "internalType": "string",
          "name": "markerPK",
          "type": "string"
        },
        {
          "indexed": false,
          "internalType": "string",
          "name": "description",
          "type": "string"
        }
      ],
      "name": "examUpdated",
      "type": "event"
    },
    {
      "inputs": [
        {
          "internalType": "address",
          "name": "_universityContract",
          "type": "address"
        },
        {
          "internalType": "address",
          "name": "_studentContract",
          "type": "address"
        }
      ],
      "name": "init",
      "outputs": [],
      "stateMutability": "nonpayable",
      "type": "function"
    },
    {
      "inputs": [
        {
          "internalType": "address",
          "name": "_universityContract",
          "type": "address"
        }
      ],
      "name": "changeUniversityContractAddr",
      "outputs": [],
      "stateMutability": "nonpayable",
      "type": "function"
    },
    {
      "inputs": [
        {
          "internalType": "address",
          "name": "_studentContract",
          "type": "address"
        }
      ],
      "name": "changeStudentContractAddr",
      "outputs": [],
      "stateMutability": "nonpayable",
      "type": "function"
    },
    {
      "inputs": [],
      "name": "showUniversityContractAddr",
      "outputs": [
        {
          "internalType": "address",
          "name": "",
          "type": "address"
        }
      ],
      "stateMutability": "view",
      "type": "function",
      "constant": true
    },
    {
      "inputs": [],
      "name": "showStudentContractAddr",
      "outputs": [
        {
          "internalType": "address",
          "name": "",
          "type": "address"
        }
      ],
      "stateMutability": "view",
      "type": "function",
      "constant": true
    },
    {
      "inputs": [
        {
          "internalType": "uint256",
          "name": "_examID",
          "type": "uint256"
        }
      ],
      "name": "getExam",
      "outputs": [
        {
          "components": [
            {
              "internalType": "bool",
              "name": "isExist",
              "type": "bool"
            },
            {
              "internalType": "bool",
              "name": "isExpired",
              "type": "bool"
            },
            {
              "internalType": "string",
              "name": "startTime",
              "type": "string"
            },
            {
              "internalType": "string",
              "name": "endTime",
              "type": "string"
            },
            {
              "internalType": "string",
              "name": "markerPK",
              "type": "string"
            },
            {
              "internalType": "string",
              "name": "description",
              "type": "string"
            },
            {
              "components": [
                {
                  "internalType": "address",
                  "name": "studentAddr",
                  "type": "address"
                },
                {
                  "internalType": "string",
                  "name": "studentPK",
                  "type": "string"
                }
              ],
              "internalType": "struct ExamManagement.student[]",
              "name": "students",
              "type": "tuple[]"
            }
          ],
          "internalType": "struct ExamManagement.exam",
          "name": "",
          "type": "tuple"
        }
      ],
      "stateMutability": "view",
      "type": "function",
      "constant": true
    },
    {
      "inputs": [],
      "name": "getExamIDs",
      "outputs": [
        {
          "internalType": "uint256[]",
          "name": "",
          "type": "uint256[]"
        }
      ],
      "stateMutability": "view",
      "type": "function",
      "constant": true
    },
    {
      "inputs": [
        {
          "internalType": "uint256",
          "name": "_examID",
          "type": "uint256"
        },
        {
          "internalType": "uint256[]",
          "name": "_studentIDs",
          "type": "uint256[]"
        },
        {
          "internalType": "string",
          "name": "_startTime",
          "type": "string"
        },
        {
          "internalType": "string",
          "name": "_endTime",
          "type": "string"
        },
        {
          "internalType": "string",
          "name": "_markerPK",
          "type": "string"
        },
        {
          "internalType": "string",
          "name": "_description",
          "type": "string"
        }
      ],
      "name": "updateExam",
      "outputs": [],
      "stateMutability": "nonpayable",
      "type": "function"
    },
    {
      "inputs": [
        {
          "internalType": "uint256",
          "name": "_examID",
          "type": "uint256"
        },
        {
          "internalType": "bool",
          "name": "_isExpired",
          "type": "bool"
        }
      ],
      "name": "setExpired",
      "outputs": [],
      "stateMutability": "nonpayable",
      "type": "function"
    },
    {
      "inputs": [
        {
          "internalType": "uint256",
          "name": "_examID",
          "type": "uint256"
        }
      ],
      "name": "deleteExam",
      "outputs": [],
      "stateMutability": "nonpayable",
      "type": "function"
    }
  ],
  "bytecode": "0x608060405234801561001057600080fd5b50336000806101000a81548173ffffffffffffffffffffffffffffffffffffffff021916908373ffffffffffffffffffffffffffffffffffffffff160217905550612710806100606000396000f3fe608060405234801561001057600080fd5b506004361061009e5760003560e01c8063d4c559b011610066578063d4c559b014610133578063d57d1db314610151578063f09a40161461016d578063f97563d514610189578063fba91c1a146101b95761009e565b806330682f39146100a3578063608dec8e146100c15780639b4cd9ba146100dd578063c04ef781146100fb578063c8ff052114610117575b600080fd5b6100ab6101d5565b6040516100b891906115f6565b60405180910390f35b6100db60048036038101906100d6919061165b565b6101ff565b005b6100e5610456565b6040516100f291906115f6565b60405180910390f35b610115600480360381019061011091906116b4565b610480565b005b610131600480360381019061012c9190611719565b6105a6565b005b61013b6107c3565b6040516101489190611817565b60405180910390f35b61016b600480360381019061016691906116b4565b61081b565b005b61018760048036038101906101829190611839565b610941565b005b6101a3600480360381019061019e919061165b565b610a55565b6040516101b09190611ae7565b60405180910390f35b6101d360048036038101906101ce9190611d06565b610eb1565b005b6000600260009054906101000a900473ffffffffffffffffffffffffffffffffffffffff16905090565b60011515600160009054906101000a900473ffffffffffffffffffffffffffffffffffffffff1673ffffffffffffffffffffffffffffffffffffffff16632f54bf6e336040518263ffffffff1660e01b815260040161025e91906115f6565b602060405180830381865afa15801561027b573d6000803e3d6000fd5b505050506040513d601f19601f8201168201806040525081019061029f9190611e34565b1515146102e1576040517f08c379a00000000000000000000000000000000000000000000000000000000081526004016102d890611ee4565b60405180910390fd5b60008103610324576040517f08c379a000000000000000000000000000000000000000000000000000000000815260040161031b90611f50565b60405180910390fd5b600015156003600083815260200190815260200160002060000160009054906101000a900460ff1615150361038e576040517f08c379a000000000000000000000000000000000000000000000000000000000815260040161038590611fbc565b60405180910390fd5b60036000828152602001908152602001600020600080820160006101000a81549060ff02191690556000820160016101000a81549060ff02191690556001820160006103da9190611475565b6002820160006103ea9190611475565b6003820160006103fa9190611475565b60048201600061040a9190611475565b60058201600061041a91906114b5565b50507f8f271d7f3e2723b67a0a6a2a01514ea7ce1c704a39da140de0839442347cc5718160405161044b9190611feb565b60405180910390a150565b6000600160009054906101000a900473ffffffffffffffffffffffffffffffffffffffff16905090565b60011515600160009054906101000a900473ffffffffffffffffffffffffffffffffffffffff1673ffffffffffffffffffffffffffffffffffffffff16632f54bf6e336040518263ffffffff1660e01b81526004016104df91906115f6565b602060405180830381865afa1580156104fc573d6000803e3d6000fd5b505050506040513d601f19601f820116820180604052508101906105209190611e34565b151514610562576040517f08c379a000000000000000000000000000000000000000000000000000000000815260040161055990611ee4565b60405180910390fd5b80600260006101000a81548173ffffffffffffffffffffffffffffffffffffffff021916908373ffffffffffffffffffffffffffffffffffffffff16021790555050565b60011515600160009054906101000a900473ffffffffffffffffffffffffffffffffffffffff1673ffffffffffffffffffffffffffffffffffffffff16632f54bf6e336040518263ffffffff1660e01b815260040161060591906115f6565b602060405180830381865afa158015610622573d6000803e3d6000fd5b505050506040513d601f19601f820116820180604052508101906106469190611e34565b151514610688576040517f08c379a000000000000000000000000000000000000000000000000000000000815260040161067f90611ee4565b60405180910390fd5b600082036106cb576040517f08c379a00000000000000000000000000000000000000000000000000000000081526004016106c290611f50565b60405180910390fd5b600015156003600084815260200190815260200160002060000160009054906101000a900460ff16151503610735576040517f08c379a000000000000000000000000000000000000000000000000000000000815260040161072c90611fbc565b60405180910390fd5b806003600084815260200190815260200160002060000160016101000a81548160ff0219169083151502179055507f9353a2f10fb1a19ceb84f4979d32ad4a3c05f94a9991631447daf08767e60b03826003600085815260200190815260200160002060000160019054906101000a900460ff166040516107b7929190612015565b60405180910390a15050565b6060600480548060200260200160405190810160405280929190818152602001828054801561081157602002820191906000526020600020905b8154815260200190600101908083116107fd575b5050505050905090565b60011515600160009054906101000a900473ffffffffffffffffffffffffffffffffffffffff1673ffffffffffffffffffffffffffffffffffffffff16632f54bf6e336040518263ffffffff1660e01b815260040161087a91906115f6565b602060405180830381865afa158015610897573d6000803e3d6000fd5b505050506040513d601f19601f820116820180604052508101906108bb9190611e34565b1515146108fd576040517f08c379a00000000000000000000000000000000000000000000000000000000081526004016108f490611ee4565b60405180910390fd5b80600160006101000a81548173ffffffffffffffffffffffffffffffffffffffff021916908373ffffffffffffffffffffffffffffffffffffffff16021790555050565b3373ffffffffffffffffffffffffffffffffffffffff1660008054906101000a900473ffffffffffffffffffffffffffffffffffffffff1673ffffffffffffffffffffffffffffffffffffffff16146109cf576040517f08c379a00000000000000000000000000000000000000000000000000000000081526004016109c690611ee4565b60405180910390fd5b81600160006101000a81548173ffffffffffffffffffffffffffffffffffffffff021916908373ffffffffffffffffffffffffffffffffffffffff16021790555080600260006101000a81548173ffffffffffffffffffffffffffffffffffffffff021916908373ffffffffffffffffffffffffffffffffffffffff1602179055505050565b610a5d6114d9565b600115156003600084815260200190815260200160002060000160009054906101000a900460ff16151514610ac7576040517f08c379a0000000000000000000000000000000000000000000000000000000008152600401610abe9061208a565b60405180910390fd5b600360008381526020019081526020016000206040518060e00160405290816000820160009054906101000a900460ff161515151581526020016000820160019054906101000a900460ff16151515158152602001600182018054610b2b906120d9565b80601f0160208091040260200160405190810160405280929190818152602001828054610b57906120d9565b8015610ba45780601f10610b7957610100808354040283529160200191610ba4565b820191906000526020600020905b815481529060010190602001808311610b8757829003601f168201915b50505050508152602001600282018054610bbd906120d9565b80601f0160208091040260200160405190810160405280929190818152602001828054610be9906120d9565b8015610c365780601f10610c0b57610100808354040283529160200191610c36565b820191906000526020600020905b815481529060010190602001808311610c1957829003601f168201915b50505050508152602001600382018054610c4f906120d9565b80601f0160208091040260200160405190810160405280929190818152602001828054610c7b906120d9565b8015610cc85780601f10610c9d57610100808354040283529160200191610cc8565b820191906000526020600020905b815481529060010190602001808311610cab57829003601f168201915b50505050508152602001600482018054610ce1906120d9565b80601f0160208091040260200160405190810160405280929190818152602001828054610d0d906120d9565b8015610d5a5780601f10610d2f57610100808354040283529160200191610d5a565b820191906000526020600020905b815481529060010190602001808311610d3d57829003601f168201915b5050505050815260200160058201805480602002602001604051908101604052809291908181526020016000905b82821015610ea257838290600052602060002090600202016040518060400160405290816000820160009054906101000a900473ffffffffffffffffffffffffffffffffffffffff1673ffffffffffffffffffffffffffffffffffffffff1673ffffffffffffffffffffffffffffffffffffffff168152602001600182018054610e11906120d9565b80601f0160208091040260200160405190810160405280929190818152602001828054610e3d906120d9565b8015610e8a5780601f10610e5f57610100808354040283529160200191610e8a565b820191906000526020600020905b815481529060010190602001808311610e6d57829003601f168201915b50505050508152505081526020019060010190610d88565b50505050815250509050919050565b60011515600160009054906101000a900473ffffffffffffffffffffffffffffffffffffffff1673ffffffffffffffffffffffffffffffffffffffff16632f54bf6e336040518263ffffffff1660e01b8152600401610f1091906115f6565b602060405180830381865afa158015610f2d573d6000803e3d6000fd5b505050506040513d601f19601f82011682018060405250810190610f519190611e34565b151514610f93576040517f08c379a0000000000000000000000000000000000000000000000000000000008152600401610f8a90611ee4565b60405180910390fd5b60008603610fd6576040517f08c379a0000000000000000000000000000000000000000000000000000000008152600401610fcd90612156565b60405180910390fd5b600085511161101a576040517f08c379a0000000000000000000000000000000000000000000000000000000008152600401611011906121c2565b60405180910390fd5b600084511161105e576040517f08c379a0000000000000000000000000000000000000000000000000000000008152600401611055906121c2565b60405180910390fd5b60008351116110a2576040517f08c379a0000000000000000000000000000000000000000000000000000000008152600401611099906121c2565b60405180910390fd5b60008251116110e6576040517f08c379a00000000000000000000000000000000000000000000000000000000081526004016110dd906121c2565b60405180910390fd5b600015156003600088815260200190815260200160002060000160009054906101000a900460ff1615150361116e57600486908060018154018082558091505060019003906000526020600020016000909190919091505560016003600088815260200190815260200160002060000160006101000a81548160ff0219169083151502179055505b83600360008881526020019081526020016000206001019081611191919061238e565b50826003600088815260200190815260200160002060020190816111b5919061238e565b50816003600088815260200190815260200160002060030190816111d9919061238e565b50806003600088815260200190815260200160002060040190816111fd919061238e565b5060008551905060005b8181101561132a5761121761151a565b61123a88838151811061122d5761122c612460565b5b60200260200101516113c7565b82600001836020018290528273ffffffffffffffffffffffffffffffffffffffff1673ffffffffffffffffffffffffffffffffffffffff168152505050600360008a815260200190815260200160002060050181908060018154018082558091505060019003906000526020600020906002020160009091909190915060008201518160000160006101000a81548173ffffffffffffffffffffffffffffffffffffffff021916908373ffffffffffffffffffffffffffffffffffffffff1602179055506020820151816001019081611313919061238e565b505050508080611322906124be565b915050611207565b507f36724b87804290b24fab29dc5a243526752f9e0a01430eba6c7aa6edf68254ce87600360008a8152602001908152602001600020600101600360008b8152602001908152602001600020600201600360008c8152602001908152602001600020600301600360008d81526020019081526020016000206004016040516113b695949392919061258a565b60405180910390a150505050505050565b60006060600260009054906101000a900473ffffffffffffffffffffffffffffffffffffffff1673ffffffffffffffffffffffffffffffffffffffff1663642f9163846040518263ffffffff1660e01b81526004016114269190611feb565b600060405180830381865afa158015611443573d6000803e3d6000fd5b505050506040513d6000823e3d601f19601f8201168201806040525081019061146c919061267e565b91509150915091565b508054611481906120d9565b6000825580601f1061149357506114b2565b601f0160209004906000526020600020908101906114b1919061154a565b5b50565b50805460008255600202906000526020600020908101906114d69190611567565b50565b6040518060e0016040528060001515815260200160001515815260200160608152602001606081526020016060815260200160608152602001606081525090565b6040518060400160405280600073ffffffffffffffffffffffffffffffffffffffff168152602001606081525090565b5b8082111561156357600081600090555060010161154b565b5090565b5b808211156115b157600080820160006101000a81549073ffffffffffffffffffffffffffffffffffffffff02191690556001820160006115a89190611475565b50600201611568565b5090565b600073ffffffffffffffffffffffffffffffffffffffff82169050919050565b60006115e0826115b5565b9050919050565b6115f0816115d5565b82525050565b600060208201905061160b60008301846115e7565b92915050565b6000604051905090565b600080fd5b600080fd5b6000819050919050565b61163881611625565b811461164357600080fd5b50565b6000813590506116558161162f565b92915050565b6000602082840312156116715761167061161b565b5b600061167f84828501611646565b91505092915050565b611691816115d5565b811461169c57600080fd5b50565b6000813590506116ae81611688565b92915050565b6000602082840312156116ca576116c961161b565b5b60006116d88482850161169f565b91505092915050565b60008115159050919050565b6116f6816116e1565b811461170157600080fd5b50565b600081359050611713816116ed565b92915050565b600080604083850312156117305761172f61161b565b5b600061173e85828601611646565b925050602061174f85828601611704565b9150509250929050565b600081519050919050565b600082825260208201905092915050565b6000819050602082019050919050565b61178e81611625565b82525050565b60006117a08383611785565b60208301905092915050565b6000602082019050919050565b60006117c482611759565b6117ce8185611764565b93506117d983611775565b8060005b8381101561180a5781516117f18882611794565b97506117fc836117ac565b9250506001810190506117dd565b5085935050505092915050565b6000602082019050818103600083015261183181846117b9565b905092915050565b600080604083850312156118505761184f61161b565b5b600061185e8582860161169f565b925050602061186f8582860161169f565b9150509250929050565b611882816116e1565b82525050565b600081519050919050565b600082825260208201905092915050565b60005b838110156118c25780820151818401526020810190506118a7565b838111156118d1576000848401525b50505050565b6000601f19601f8301169050919050565b60006118f382611888565b6118fd8185611893565b935061190d8185602086016118a4565b611916816118d7565b840191505092915050565b600081519050919050565b600082825260208201905092915050565b6000819050602082019050919050565b611956816115d5565b82525050565b6000604083016000830151611974600086018261194d565b506020830151848203602086015261198c82826118e8565b9150508091505092915050565b60006119a5838361195c565b905092915050565b6000602082019050919050565b60006119c582611921565b6119cf818561192c565b9350836020820285016119e18561193d565b8060005b85811015611a1d57848403895281516119fe8582611999565b9450611a09836119ad565b925060208a019950506001810190506119e5565b50829750879550505050505092915050565b600060e083016000830151611a476000860182611879565b506020830151611a5a6020860182611879565b5060408301518482036040860152611a7282826118e8565b91505060608301518482036060860152611a8c82826118e8565b91505060808301518482036080860152611aa682826118e8565b91505060a083015184820360a0860152611ac082826118e8565b91505060c083015184820360c0860152611ada82826119ba565b9150508091505092915050565b60006020820190508181036000830152611b018184611a2f565b905092915050565b600080fd5b7f4e487b7100000000000000000000000000000000000000000000000000000000600052604160045260246000fd5b611b46826118d7565b810181811067ffffffffffffffff82111715611b6557611b64611b0e565b5b80604052505050565b6000611b78611611565b9050611b848282611b3d565b919050565b600067ffffffffffffffff821115611ba457611ba3611b0e565b5b602082029050602081019050919050565b600080fd5b6000611bcd611bc884611b89565b611b6e565b90508083825260208201905060208402830185811115611bf057611bef611bb5565b5b835b81811015611c195780611c058882611646565b845260208401935050602081019050611bf2565b5050509392505050565b600082601f830112611c3857611c37611b09565b5b8135611c48848260208601611bba565b91505092915050565b600080fd5b600067ffffffffffffffff821115611c7157611c70611b0e565b5b611c7a826118d7565b9050602081019050919050565b82818337600083830152505050565b6000611ca9611ca484611c56565b611b6e565b905082815260208101848484011115611cc557611cc4611c51565b5b611cd0848285611c87565b509392505050565b600082601f830112611ced57611cec611b09565b5b8135611cfd848260208601611c96565b91505092915050565b60008060008060008060c08789031215611d2357611d2261161b565b5b6000611d3189828a01611646565b965050602087013567ffffffffffffffff811115611d5257611d51611620565b5b611d5e89828a01611c23565b955050604087013567ffffffffffffffff811115611d7f57611d7e611620565b5b611d8b89828a01611cd8565b945050606087013567ffffffffffffffff811115611dac57611dab611620565b5b611db889828a01611cd8565b935050608087013567ffffffffffffffff811115611dd957611dd8611620565b5b611de589828a01611cd8565b92505060a087013567ffffffffffffffff811115611e0657611e05611620565b5b611e1289828a01611cd8565b9150509295509295509295565b600081519050611e2e816116ed565b92915050565b600060208284031215611e4a57611e4961161b565b5b6000611e5884828501611e1f565b91505092915050565b600082825260208201905092915050565b7f4f776e657261626c653a2063616c6c6572206973206e6f7420746865206f776e60008201527f6572000000000000000000000000000000000000000000000000000000000000602082015250565b6000611ece602283611e61565b9150611ed982611e72565b604082019050919050565b60006020820190508181036000830152611efd81611ec1565b9050919050565b7f6578616d20494420697320656d70747921000000000000000000000000000000600082015250565b6000611f3a601183611e61565b9150611f4582611f04565b602082019050919050565b60006020820190508181036000830152611f6981611f2d565b9050919050565b7f6578616d206e6f74206578697374732100000000000000000000000000000000600082015250565b6000611fa6601083611e61565b9150611fb182611f70565b602082019050919050565b60006020820190508181036000830152611fd581611f99565b9050919050565b611fe581611625565b82525050565b60006020820190506120006000830184611fdc565b92915050565b61200f816116e1565b82525050565b600060408201905061202a6000830185611fdc565b6120376020830184612006565b9392505050565b7f6578616d20646f6573206e6f7420657869737421000000000000000000000000600082015250565b6000612074601483611e61565b915061207f8261203e565b602082019050919050565b600060208201905081810360008301526120a381612067565b9050919050565b7f4e487b7100000000000000000000000000000000000000000000000000000000600052602260045260246000fd5b600060028204905060018216806120f157607f821691505b602082108103612104576121036120aa565b5b50919050565b7f73747564656e7420494420697320656d70747921000000000000000000000000600082015250565b6000612140601483611e61565b915061214b8261210a565b602082019050919050565b6000602082019050818103600083015261216f81612133565b9050919050565b7f73747564656e74207075626c6963206b657920697320656d7074792100000000600082015250565b60006121ac601c83611e61565b91506121b782612176565b602082019050919050565b600060208201905081810360008301526121db8161219f565b9050919050565b60008190508160005260206000209050919050565b60006020601f8301049050919050565b600082821b905092915050565b6000600883026122447fffffffffffffffffffffffffffffffffffffffffffffffffffffffffffffffff82612207565b61224e8683612207565b95508019841693508086168417925050509392505050565b6000819050919050565b600061228b61228661228184611625565b612266565b611625565b9050919050565b6000819050919050565b6122a583612270565b6122b96122b182612292565b848454612214565b825550505050565b600090565b6122ce6122c1565b6122d981848461229c565b505050565b5b818110156122fd576122f26000826122c6565b6001810190506122df565b5050565b601f82111561234257612313816121e2565b61231c846121f7565b8101602085101561232b578190505b61233f612337856121f7565b8301826122de565b50505b505050565b600082821c905092915050565b600061236560001984600802612347565b1980831691505092915050565b600061237e8383612354565b9150826002028217905092915050565b61239782611888565b67ffffffffffffffff8111156123b0576123af611b0e565b5b6123ba82546120d9565b6123c5828285612301565b600060209050601f8311600181146123f857600084156123e6578287015190505b6123f08582612372565b865550612458565b601f198416612406866121e2565b60005b8281101561242e57848901518255600182019150602085019450602081019050612409565b8683101561244b5784890151612447601f891682612354565b8355505b6001600288020188555050505b505050505050565b7f4e487b7100000000000000000000000000000000000000000000000000000000600052603260045260246000fd5b7f4e487b7100000000000000000000000000000000000000000000000000000000600052601160045260246000fd5b60006124c982611625565b91507fffffffffffffffffffffffffffffffffffffffffffffffffffffffffffffffff82036124fb576124fa61248f565b5b600182019050919050565b60008154612513816120d9565b61251d8186611e61565b94506001821660008114612538576001811461254e57612581565b60ff198316865281151560200286019350612581565b612557856121e2565b60005b838110156125795781548189015260018201915060208101905061255a565b808801955050505b50505092915050565b600060a08201905061259f6000830188611fdc565b81810360208301526125b18187612506565b905081810360408301526125c58186612506565b905081810360608301526125d98185612506565b905081810360808301526125ed8184612506565b90509695505050505050565b60008151905061260881611688565b92915050565b600061262161261c84611c56565b611b6e565b90508281526020810184848401111561263d5761263c611c51565b5b6126488482856118a4565b509392505050565b600082601f83011261266557612664611b09565b5b815161267584826020860161260e565b91505092915050565b600080604083850312156126955761269461161b565b5b60006126a3858286016125f9565b925050602083015167ffffffffffffffff8111156126c4576126c3611620565b5b6126d085828601612650565b915050925092905056fea26469706673582212209739b5e0a3ede1beaa1367554cbebd6c252cb2f55cd7ad7a82dcf401e8130b6364736f6c634300080f0033",
  "immutableReferences": {},
  "source": "\n// import \"./Ownable.sol\"; // Path to the imported library\n\npragma solidity >=0.7.0 <0.9.0;\n\n// SPDX-License-Identifier: MIT\n\n// interface of university management contract.\ninterface UniversityInterface{\n\n    // check if it's the university address.\n    function isOwner(address owner) external view returns (bool);\n}\n\n// interface of student management contract.\ninterface StudentInterface{\n    \n    // get the student address and public key by ID.\n    function getStudent(uint _studentID) external view returns (address, string memory);\n}\n\n\ncontract ExamManagement{\n\n    address owner;\n    address universityContract;\n    address studentContract;\n\n    // address and public key of a student.\n    struct student{\n        address studentAddr;\n        string studentPK;\n    }\n\n    // exam infomation.\n    struct exam {\n        bool isExist;\n        bool isExpired;\n        string startTime;\n        string endTime;\n        string markerPK;\n        string description;\n        student[] students;\n    }\n\n    // map exam ID to exam details and invited students' information.\n    mapping (uint => exam) private exams;\n\n    // all exam IDs.\n    uint [] examIDs;\n\n    // Emits an event when a new exam is updated, you can use this to update remote exam lists.\n    event examUpdated(uint examID, string startTime, string endTime, string markerPK, string description);\n\n    // Emits an event when an exam is expired, you can use this to update remote exam lists.\n    event examStatusChanged(uint examID, bool isExpired);\n\n    // Emits an event when an exam is deleted, you can use this to update remote exam lists.\n    event examDeleted(uint examID);\n\n    constructor() {\n        owner = msg.sender;\n    }\n\n    // modifier: only owner (university) address can call the 'onlyOwner' function.\n    modifier onlyOwner() {\n        require(UniversityInterface(universityContract).isOwner(msg.sender) == true, \"Ownerable: caller is not the owner\");\n        _;\n    }\n\n    // initial set up of contract addresses of university management and student management.\n    function init(address _universityContract, address _studentContract) public{\n        require(owner == msg.sender, \"Ownerable: caller is not the owner\");\n        universityContract = _universityContract;\n        studentContract = _studentContract;\n    }\n\n    // change contract addresses of university management.\n    function changeUniversityContractAddr(address _universityContract) public onlyOwner{\n        universityContract = _universityContract;\n    }\n    \n    // change contract addresses of student management.\n    function changeStudentContractAddr(address _studentContract) public onlyOwner{\n        studentContract = _studentContract;\n    }\n\n    // show university management contract address.\n    function showUniversityContractAddr() public view returns(address){\n        return universityContract;\n    }\n    \n    // show student management contract address.\n    function showStudentContractAddr() public view returns(address){\n        return studentContract;\n    }\n\n    // get exam infomation by ID.\n    function getExam(uint _examID) public view returns (exam memory){\n        \n        // require the exam exists.\n        require(exams[_examID].isExist == true, \"exam does not exist!\");\n\n        return exams[_examID];\n    }\n\n    // get all exam IDs\n    function getExamIDs() external view returns (uint [] memory){\n\n        return examIDs;\n    }\n\n    // update or add exam\n    function updateExam(uint _examID, uint[] memory _studentIDs, string memory _startTime, string memory _endTime, string memory _markerPK, string memory _description) public onlyOwner{\n\n        // require the exam ID to not be empty.\n        require(_examID != 0, \"student ID is empty!\");\n\n        // require the student IDs to not be empty.\n        require(_studentIDs.length > 0, \"student public key is empty!\");\n\n        // require the start time to not be empty.\n        require(bytes(_startTime).length > 0, \"student public key is empty!\");\n\n        // require the end time to not be empty.\n        require(bytes(_endTime).length > 0, \"student public key is empty!\");\n\n        // require the marker public key to not be empty.\n        require(bytes(_markerPK).length > 0, \"student public key is empty!\");\n\n        // record exam IDs\n        if(exams[_examID].isExist == false){\n            examIDs.push(_examID);\n            exams[_examID].isExist = true;\n        }\n\n        // update the exam info to the storage.\n        exams[_examID].startTime = _startTime;\n        exams[_examID].endTime = _endTime;\n        exams[_examID].markerPK = _markerPK;\n        exams[_examID].description = _description;\n\n        // find all student addresses and public keys by ID\n        uint length = _studentIDs.length;\n        for (uint i = 0; i < length; i++) {\n            student memory newStudent;\n            (newStudent.studentAddr, newStudent.studentPK) = findStudentPK(_studentIDs[i]);\n            exams[_examID].students.push(newStudent);\n        }\n\n        // emits exam updated event.\n        emit examUpdated(_examID, exams[_examID].startTime, exams[_examID].endTime, exams[_examID].markerPK, exams[_examID].description);\n    }\n\n    // find student public key by ID\n    function findStudentPK(uint _studentID) private view returns(address, string memory){\n\n        return StudentInterface(studentContract).getStudent(_studentID);\n    }\n\n    function setExpired(uint _examID, bool _isExpired) public onlyOwner{\n\n        // require the exam ID to not be empty.\n        require(_examID != 0, \"exam ID is empty!\");\n        \n        // require the exam exists.\n        require(exams[_examID].isExist != false, \"exam not exists!\");\n\n        // set the exam status.\n        exams[_examID].isExpired = _isExpired;\n\n        // emits exam status changed event.\n        emit examStatusChanged(_examID, exams[_examID].isExpired);\n    }\n\n    // delete exam\n    function deleteExam(uint _examID) public onlyOwner{\n\n        // require the exam ID to not be empty.\n        require(_examID != 0, \"exam ID is empty!\");\n        \n        // require the exam exists.\n        require(exams[_examID].isExist != false, \"exam not exists!\");\n\n        \n        // delete the exam info.\n        delete exams[_examID];\n\n        // exams[_examID].isExist = false;\n        // exams[_examID].isExpired = false;\n        // exams[_examID].startTime = \"\";\n        // exams[_examID].endTime = \"\";\n        // exams[_examID].markerPK = \"\";\n        // exams[_examID].description = \"\";\n\n        // delete exams[_examID].students;\n\n        // uint length = exams[_examID].students.length;\n        // for (uint i = 0; i < length; i++) {\n        //     exams[_examID].students.pop();\n        // }\n\n        // emits exam deleted event.\n        emit examDeleted(_examID);\n    }\n}\n",
  "sourcePath": "/Users/reol/Documents/CyberSecurity/Msc project/code/OnlineExam/contracts/ExamManagement.sol",
  "compiler": {
    "name": "solc",
    "version": "0.8.15+commit.e14f2714.Emscripten.clang"
  },
  "schemaVersion": "3.4.8",
  "updatedAt": "2022-08-07T13:40:47.591Z",
  "networkType": "ethereum",
  "devdoc": {
    "kind": "dev",
    "methods": {},
    "version": 1
  },
  "userdoc": {
    "kind": "user",
    "methods": {},
    "version": 1
  }
}