{
  "contractName": "ExamManagement",
  "abi": [
    {
      "inputs": [],
      "stateMutability": "nonpayable",
      "type": "constructor"
    },
    {
      "anonymous": false,
      "inputs": [
        {
          "indexed": false,
          "internalType": "uint256",
          "name": "examID",
          "type": "uint256"
        },
        {
          "indexed": false,
          "internalType": "uint256",
          "name": "studentID",
          "type": "uint256"
        },
        {
          "indexed": false,
          "internalType": "string",
          "name": "answerSheetHash",
          "type": "string"
        }
      ],
      "name": "answerSheetUpdated",
      "type": "event"
    },
    {
      "anonymous": false,
      "inputs": [
        {
          "indexed": false,
          "internalType": "uint256",
          "name": "examID",
          "type": "uint256"
        }
      ],
      "name": "examDeleted",
      "type": "event"
    },
    {
      "anonymous": false,
      "inputs": [
        {
          "indexed": false,
          "internalType": "uint256",
          "name": "examID",
          "type": "uint256"
        },
        {
          "indexed": false,
          "internalType": "string",
          "name": "examPaperHash",
          "type": "string"
        }
      ],
      "name": "examPaperUpdated",
      "type": "event"
    },
    {
      "anonymous": false,
      "inputs": [
        {
          "indexed": false,
          "internalType": "uint256",
          "name": "examID",
          "type": "uint256"
        },
        {
          "indexed": false,
          "internalType": "bool",
          "name": "isExpired",
          "type": "bool"
        }
      ],
      "name": "examStatusChanged",
      "type": "event"
    },
    {
      "anonymous": false,
      "inputs": [
        {
          "indexed": false,
          "internalType": "uint256",
          "name": "examID",
          "type": "uint256"
        },
        {
          "indexed": false,
          "internalType": "string",
          "name": "startTime",
          "type": "string"
        },
        {
          "indexed": false,
          "internalType": "string",
          "name": "endTime",
          "type": "string"
        },
        {
          "indexed": false,
          "internalType": "string",
          "name": "markerPK",
          "type": "string"
        },
        {
          "indexed": false,
          "internalType": "string",
          "name": "description",
          "type": "string"
        }
      ],
      "name": "examUpdated",
      "type": "event"
    },
    {
      "inputs": [
        {
          "internalType": "address",
          "name": "_universityContract",
          "type": "address"
        },
        {
          "internalType": "address",
          "name": "_studentContract",
          "type": "address"
        }
      ],
      "name": "init",
      "outputs": [],
      "stateMutability": "nonpayable",
      "type": "function"
    },
    {
      "inputs": [
        {
          "internalType": "address",
          "name": "_universityContract",
          "type": "address"
        }
      ],
      "name": "changeUniversityContractAddr",
      "outputs": [],
      "stateMutability": "nonpayable",
      "type": "function"
    },
    {
      "inputs": [
        {
          "internalType": "address",
          "name": "_studentContract",
          "type": "address"
        }
      ],
      "name": "changeStudentContractAddr",
      "outputs": [],
      "stateMutability": "nonpayable",
      "type": "function"
    },
    {
      "inputs": [],
      "name": "showUniversityContractAddr",
      "outputs": [
        {
          "internalType": "address",
          "name": "",
          "type": "address"
        }
      ],
      "stateMutability": "view",
      "type": "function",
      "constant": true
    },
    {
      "inputs": [],
      "name": "showStudentContractAddr",
      "outputs": [
        {
          "internalType": "address",
          "name": "",
          "type": "address"
        }
      ],
      "stateMutability": "view",
      "type": "function",
      "constant": true
    },
    {
      "inputs": [
        {
          "internalType": "uint256",
          "name": "_examID",
          "type": "uint256"
        }
      ],
      "name": "getExam",
      "outputs": [
        {
          "components": [
            {
              "internalType": "bool",
              "name": "isExist",
              "type": "bool"
            },
            {
              "internalType": "bool",
              "name": "isExpired",
              "type": "bool"
            },
            {
              "internalType": "string",
              "name": "startTime",
              "type": "string"
            },
            {
              "internalType": "string",
              "name": "endTime",
              "type": "string"
            },
            {
              "internalType": "string",
              "name": "markerPK",
              "type": "string"
            },
            {
              "internalType": "string",
              "name": "description",
              "type": "string"
            },
            {
              "internalType": "string",
              "name": "examPaperHash",
              "type": "string"
            },
            {
              "components": [
                {
                  "internalType": "address",
                  "name": "studentAddr",
                  "type": "address"
                },
                {
                  "internalType": "string",
                  "name": "studentPK",
                  "type": "string"
                }
              ],
              "internalType": "struct ExamManagement.student[]",
              "name": "students",
              "type": "tuple[]"
            },
            {
              "components": [
                {
                  "internalType": "uint256",
                  "name": "studentID",
                  "type": "uint256"
                },
                {
                  "internalType": "address",
                  "name": "studentAddr",
                  "type": "address"
                },
                {
                  "internalType": "string",
                  "name": "answerSheetHash",
                  "type": "string"
                },
                {
                  "internalType": "string",
                  "name": "description",
                  "type": "string"
                }
              ],
              "internalType": "struct ExamManagement.answerSheet[]",
              "name": "answerSheets",
              "type": "tuple[]"
            }
          ],
          "internalType": "struct ExamManagement.exam",
          "name": "",
          "type": "tuple"
        }
      ],
      "stateMutability": "view",
      "type": "function",
      "constant": true
    },
    {
      "inputs": [],
      "name": "getExamIDs",
      "outputs": [
        {
          "internalType": "uint256[]",
          "name": "",
          "type": "uint256[]"
        }
      ],
      "stateMutability": "view",
      "type": "function",
      "constant": true
    },
    {
      "inputs": [
        {
          "internalType": "uint256",
          "name": "_examID",
          "type": "uint256"
        },
        {
          "internalType": "uint256[]",
          "name": "_studentIDs",
          "type": "uint256[]"
        },
        {
          "internalType": "string",
          "name": "_startTime",
          "type": "string"
        },
        {
          "internalType": "string",
          "name": "_endTime",
          "type": "string"
        },
        {
          "internalType": "string",
          "name": "_markerPK",
          "type": "string"
        },
        {
          "internalType": "string",
          "name": "_description",
          "type": "string"
        }
      ],
      "name": "updateExam",
      "outputs": [],
      "stateMutability": "nonpayable",
      "type": "function"
    },
    {
      "inputs": [
        {
          "internalType": "uint256",
          "name": "_examID",
          "type": "uint256"
        },
        {
          "internalType": "string",
          "name": "_examPaperHash",
          "type": "string"
        }
      ],
      "name": "updateExamPaper",
      "outputs": [],
      "stateMutability": "nonpayable",
      "type": "function"
    },
    {
      "inputs": [
        {
          "internalType": "uint256",
          "name": "_examID",
          "type": "uint256"
        },
        {
          "internalType": "uint256",
          "name": "_studentID",
          "type": "uint256"
        },
        {
          "internalType": "string",
          "name": "_answerSheetHash",
          "type": "string"
        },
        {
          "internalType": "string",
          "name": "_description",
          "type": "string"
        }
      ],
      "name": "updateAnswerSheet",
      "outputs": [],
      "stateMutability": "nonpayable",
      "type": "function"
    },
    {
      "inputs": [
        {
          "internalType": "uint256",
          "name": "_examID",
          "type": "uint256"
        },
        {
          "internalType": "bool",
          "name": "_isExpired",
          "type": "bool"
        }
      ],
      "name": "setExpired",
      "outputs": [],
      "stateMutability": "nonpayable",
      "type": "function"
    },
    {
      "inputs": [
        {
          "internalType": "uint256",
          "name": "_examID",
          "type": "uint256"
        }
      ],
      "name": "deleteExam",
      "outputs": [],
      "stateMutability": "nonpayable",
      "type": "function"
    }
  ],
  "bytecode": "0x608060405234801561001057600080fd5b50336000806101000a81548173ffffffffffffffffffffffffffffffffffffffff021916908373ffffffffffffffffffffffffffffffffffffffff1602179055506133ca806100606000396000f3fe608060405234801561001057600080fd5b50600436106100b45760003560e01c8063d4c559b011610071578063d4c559b014610165578063d57d1db314610183578063d625ed361461019f578063f09a4016146101bb578063f97563d5146101d7578063fba91c1a14610207576100b4565b806330682f39146100b95780635684a2f2146100d7578063608dec8e146100f35780639b4cd9ba1461010f578063c04ef7811461012d578063c8ff052114610149575b600080fd5b6100c1610223565b6040516100ce9190611ead565b60405180910390f35b6100f160048036038101906100ec9190612058565b61024d565b005b61010d600480360381019061010891906120f7565b610543565b005b6101176107ba565b6040516101249190611ead565b60405180910390f35b61014760048036038101906101429190612150565b6107e4565b005b610163600480360381019061015e91906121b5565b61090a565b005b61016d610b27565b60405161017a91906122b3565b60405180910390f35b61019d60048036038101906101989190612150565b610b7f565b005b6101b960048036038101906101b491906122d5565b610ca5565b005b6101d560048036038101906101d09190612331565b610eab565b005b6101f160048036038101906101ec91906120f7565b610fbf565b6040516101fe9190612731565b60405180910390f35b610221600480360381019061021c919061281b565b611691565b005b6000600260009054906101000a900473ffffffffffffffffffffffffffffffffffffffff16905090565b600015156003600086815260200190815260200160002060000160009054906101000a900460ff161515036102b7576040517f08c379a00000000000000000000000000000000000000000000000000000000081526004016102ae90612991565b60405180910390fd5b600083116102fa576040517f08c379a00000000000000000000000000000000000000000000000000000000081526004016102f1906129fd565b60405180910390fd5b600082511161033e576040517f08c379a000000000000000000000000000000000000000000000000000000000815260040161033590612a69565b60405180910390fd5b60008061034a85611ba7565b915091503373ffffffffffffffffffffffffffffffffffffffff168273ffffffffffffffffffffffffffffffffffffffff16146103bc576040517f08c379a00000000000000000000000000000000000000000000000000000000081526004016103b390612afb565b60405180910390fd5b6103c4611c55565b8581600001818152505082816020019073ffffffffffffffffffffffffffffffffffffffff16908173ffffffffffffffffffffffffffffffffffffffff168152505084816040018190525060008451111561042757838160600181905250610440565b6040518060200160405280600081525081606001819052505b600360008881526020019081526020016000206007018190806001815401808255809150506001900390600052602060002090600402016000909190919091506000820151816000015560208201518160010160006101000a81548173ffffffffffffffffffffffffffffffffffffffff021916908373ffffffffffffffffffffffffffffffffffffffff16021790555060408201518160020190816104e69190612d27565b5060608201518160030190816104fc9190612d27565b5050507f39bb165604de5ca9b67ccdf41b3ed8aa822fc37bf34cb61af8527984c58e24c687878760405161053293929190612e41565b60405180910390a150505050505050565b60011515600160009054906101000a900473ffffffffffffffffffffffffffffffffffffffff1673ffffffffffffffffffffffffffffffffffffffff16632f54bf6e336040518263ffffffff1660e01b81526004016105a29190611ead565b602060405180830381865afa1580156105bf573d6000803e3d6000fd5b505050506040513d601f19601f820116820180604052508101906105e39190612e94565b151514610625576040517f08c379a000000000000000000000000000000000000000000000000000000000815260040161061c90612f33565b60405180910390fd5b60008103610668576040517f08c379a000000000000000000000000000000000000000000000000000000000815260040161065f90612f9f565b60405180910390fd5b600015156003600083815260200190815260200160002060000160009054906101000a900460ff161515036106d2576040517f08c379a00000000000000000000000000000000000000000000000000000000081526004016106c99061300b565b60405180910390fd5b60036000828152602001908152602001600020600080820160006101000a81549060ff02191690556000820160016101000a81549060ff021916905560018201600061071e9190611c93565b60028201600061072e9190611c93565b60038201600061073e9190611c93565b60048201600061074e9190611c93565b60058201600061075e9190611c93565b60068201600061076e9190611cd3565b60078201600061077e9190611cf7565b50507f8f271d7f3e2723b67a0a6a2a01514ea7ce1c704a39da140de0839442347cc571816040516107af919061302b565b60405180910390a150565b6000600160009054906101000a900473ffffffffffffffffffffffffffffffffffffffff16905090565b60011515600160009054906101000a900473ffffffffffffffffffffffffffffffffffffffff1673ffffffffffffffffffffffffffffffffffffffff16632f54bf6e336040518263ffffffff1660e01b81526004016108439190611ead565b602060405180830381865afa158015610860573d6000803e3d6000fd5b505050506040513d601f19601f820116820180604052508101906108849190612e94565b1515146108c6576040517f08c379a00000000000000000000000000000000000000000000000000000000081526004016108bd90612f33565b60405180910390fd5b80600260006101000a81548173ffffffffffffffffffffffffffffffffffffffff021916908373ffffffffffffffffffffffffffffffffffffffff16021790555050565b60011515600160009054906101000a900473ffffffffffffffffffffffffffffffffffffffff1673ffffffffffffffffffffffffffffffffffffffff16632f54bf6e336040518263ffffffff1660e01b81526004016109699190611ead565b602060405180830381865afa158015610986573d6000803e3d6000fd5b505050506040513d601f19601f820116820180604052508101906109aa9190612e94565b1515146109ec576040517f08c379a00000000000000000000000000000000000000000000000000000000081526004016109e390612f33565b60405180910390fd5b60008203610a2f576040517f08c379a0000000000000000000000000000000000000000000000000000000008152600401610a2690612f9f565b60405180910390fd5b600015156003600084815260200190815260200160002060000160009054906101000a900460ff16151503610a99576040517f08c379a0000000000000000000000000000000000000000000000000000000008152600401610a909061300b565b60405180910390fd5b806003600084815260200190815260200160002060000160016101000a81548160ff0219169083151502179055507f9353a2f10fb1a19ceb84f4979d32ad4a3c05f94a9991631447daf08767e60b03826003600085815260200190815260200160002060000160019054906101000a900460ff16604051610b1b929190613055565b60405180910390a15050565b60606004805480602002602001604051908101604052809291908181526020018280548015610b7557602002820191906000526020600020905b815481526020019060010190808311610b61575b5050505050905090565b60011515600160009054906101000a900473ffffffffffffffffffffffffffffffffffffffff1673ffffffffffffffffffffffffffffffffffffffff16632f54bf6e336040518263ffffffff1660e01b8152600401610bde9190611ead565b602060405180830381865afa158015610bfb573d6000803e3d6000fd5b505050506040513d601f19601f82011682018060405250810190610c1f9190612e94565b151514610c61576040517f08c379a0000000000000000000000000000000000000000000000000000000008152600401610c5890612f33565b60405180910390fd5b80600160006101000a81548173ffffffffffffffffffffffffffffffffffffffff021916908373ffffffffffffffffffffffffffffffffffffffff16021790555050565b60011515600160009054906101000a900473ffffffffffffffffffffffffffffffffffffffff1673ffffffffffffffffffffffffffffffffffffffff16632f54bf6e336040518263ffffffff1660e01b8152600401610d049190611ead565b602060405180830381865afa158015610d21573d6000803e3d6000fd5b505050506040513d601f19601f82011682018060405250810190610d459190612e94565b151514610d87576040517f08c379a0000000000000000000000000000000000000000000000000000000008152600401610d7e90612f33565b60405180910390fd5b600015156003600084815260200190815260200160002060000160009054906101000a900460ff16151503610df1576040517f08c379a0000000000000000000000000000000000000000000000000000000008152600401610de890612991565b60405180910390fd5b6000815111610e35576040517f08c379a0000000000000000000000000000000000000000000000000000000008152600401610e2c90612a69565b60405180910390fd5b80600360008481526020019081526020016000206005019081610e589190612d27565b507f087a04b3c425b04ec596974d707b03c85438b04d8ef9ba364267837b4200d3df8260036000858152602001908152602001600020600501604051610e9f929190613102565b60405180910390a15050565b3373ffffffffffffffffffffffffffffffffffffffff1660008054906101000a900473ffffffffffffffffffffffffffffffffffffffff1673ffffffffffffffffffffffffffffffffffffffff1614610f39576040517f08c379a0000000000000000000000000000000000000000000000000000000008152600401610f3090612f33565b60405180910390fd5b81600160006101000a81548173ffffffffffffffffffffffffffffffffffffffff021916908373ffffffffffffffffffffffffffffffffffffffff16021790555080600260006101000a81548173ffffffffffffffffffffffffffffffffffffffff021916908373ffffffffffffffffffffffffffffffffffffffff1602179055505050565b610fc7611d1b565b600115156003600084815260200190815260200160002060000160009054906101000a900460ff16151514611031576040517f08c379a00000000000000000000000000000000000000000000000000000000081526004016110289061317e565b60405180910390fd5b60036000838152602001908152602001600020604051806101200160405290816000820160009054906101000a900460ff161515151581526020016000820160019054906101000a900460ff1615151515815260200160018201805461109690612b4a565b80601f01602080910402602001604051908101604052809291908181526020018280546110c290612b4a565b801561110f5780601f106110e45761010080835404028352916020019161110f565b820191906000526020600020905b8154815290600101906020018083116110f257829003601f168201915b5050505050815260200160028201805461112890612b4a565b80601f016020809104026020016040519081016040528092919081815260200182805461115490612b4a565b80156111a15780601f10611176576101008083540402835291602001916111a1565b820191906000526020600020905b81548152906001019060200180831161118457829003601f168201915b505050505081526020016003820180546111ba90612b4a565b80601f01602080910402602001604051908101604052809291908181526020018280546111e690612b4a565b80156112335780601f1061120857610100808354040283529160200191611233565b820191906000526020600020905b81548152906001019060200180831161121657829003601f168201915b5050505050815260200160048201805461124c90612b4a565b80601f016020809104026020016040519081016040528092919081815260200182805461127890612b4a565b80156112c55780601f1061129a576101008083540402835291602001916112c5565b820191906000526020600020905b8154815290600101906020018083116112a857829003601f168201915b505050505081526020016005820180546112de90612b4a565b80601f016020809104026020016040519081016040528092919081815260200182805461130a90612b4a565b80156113575780601f1061132c57610100808354040283529160200191611357565b820191906000526020600020905b81548152906001019060200180831161133a57829003601f168201915b5050505050815260200160068201805480602002602001604051908101604052809291908181526020016000905b8282101561149f57838290600052602060002090600202016040518060400160405290816000820160009054906101000a900473ffffffffffffffffffffffffffffffffffffffff1673ffffffffffffffffffffffffffffffffffffffff1673ffffffffffffffffffffffffffffffffffffffff16815260200160018201805461140e90612b4a565b80601f016020809104026020016040519081016040528092919081815260200182805461143a90612b4a565b80156114875780601f1061145c57610100808354040283529160200191611487565b820191906000526020600020905b81548152906001019060200180831161146a57829003601f168201915b50505050508152505081526020019060010190611385565b50505050815260200160078201805480602002602001604051908101604052809291908181526020016000905b828210156116825783829060005260206000209060040201604051806080016040529081600082015481526020016001820160009054906101000a900473ffffffffffffffffffffffffffffffffffffffff1673ffffffffffffffffffffffffffffffffffffffff1673ffffffffffffffffffffffffffffffffffffffff16815260200160028201805461155f90612b4a565b80601f016020809104026020016040519081016040528092919081815260200182805461158b90612b4a565b80156115d85780601f106115ad576101008083540402835291602001916115d8565b820191906000526020600020905b8154815290600101906020018083116115bb57829003601f168201915b505050505081526020016003820180546115f190612b4a565b80601f016020809104026020016040519081016040528092919081815260200182805461161d90612b4a565b801561166a5780601f1061163f5761010080835404028352916020019161166a565b820191906000526020600020905b81548152906001019060200180831161164d57829003601f168201915b505050505081525050815260200190600101906114cc565b50505050815250509050919050565b60011515600160009054906101000a900473ffffffffffffffffffffffffffffffffffffffff1673ffffffffffffffffffffffffffffffffffffffff16632f54bf6e336040518263ffffffff1660e01b81526004016116f09190611ead565b602060405180830381865afa15801561170d573d6000803e3d6000fd5b505050506040513d601f19601f820116820180604052508101906117319190612e94565b151514611773576040517f08c379a000000000000000000000000000000000000000000000000000000000815260040161176a90612f33565b60405180910390fd5b600086036117b6576040517f08c379a00000000000000000000000000000000000000000000000000000000081526004016117ad906129fd565b60405180910390fd5b60008551116117fa576040517f08c379a00000000000000000000000000000000000000000000000000000000081526004016117f190612a69565b60405180910390fd5b600084511161183e576040517f08c379a000000000000000000000000000000000000000000000000000000000815260040161183590612a69565b60405180910390fd5b6000835111611882576040517f08c379a000000000000000000000000000000000000000000000000000000000815260040161187990612a69565b60405180910390fd5b60008251116118c6576040517f08c379a00000000000000000000000000000000000000000000000000000000081526004016118bd90612a69565b60405180910390fd5b600015156003600088815260200190815260200160002060000160009054906101000a900460ff1615150361194e57600486908060018154018082558091505060019003906000526020600020016000909190919091505560016003600088815260200190815260200160002060000160006101000a81548160ff0219169083151502179055505b836003600088815260200190815260200160002060010190816119719190612d27565b50826003600088815260200190815260200160002060020190816119959190612d27565b50816003600088815260200190815260200160002060030190816119b99190612d27565b50806003600088815260200190815260200160002060040190816119dd9190612d27565b5060008551905060005b81811015611b0a576119f7611d6b565b611a1a888381518110611a0d57611a0c61319e565b5b6020026020010151611ba7565b82600001836020018290528273ffffffffffffffffffffffffffffffffffffffff1673ffffffffffffffffffffffffffffffffffffffff168152505050600360008a815260200190815260200160002060060181908060018154018082558091505060019003906000526020600020906002020160009091909190915060008201518160000160006101000a81548173ffffffffffffffffffffffffffffffffffffffff021916908373ffffffffffffffffffffffffffffffffffffffff1602179055506020820151816001019081611af39190612d27565b505050508080611b02906131fc565b9150506119e7565b507f36724b87804290b24fab29dc5a243526752f9e0a01430eba6c7aa6edf68254ce87600360008a8152602001908152602001600020600101600360008b8152602001908152602001600020600201600360008c8152602001908152602001600020600301600360008d8152602001908152602001600020600401604051611b96959493929190613244565b60405180910390a150505050505050565b60006060600260009054906101000a900473ffffffffffffffffffffffffffffffffffffffff1673ffffffffffffffffffffffffffffffffffffffff1663642f9163846040518263ffffffff1660e01b8152600401611c06919061302b565b600060405180830381865afa158015611c23573d6000803e3d6000fd5b505050506040513d6000823e3d601f19601f82011682018060405250810190611c4c9190613338565b91509150915091565b604051806080016040528060008152602001600073ffffffffffffffffffffffffffffffffffffffff16815260200160608152602001606081525090565b508054611c9f90612b4a565b6000825580601f10611cb15750611cd0565b601f016020900490600052602060002090810190611ccf9190611d9b565b5b50565b5080546000825560020290600052602060002090810190611cf49190611db8565b50565b5080546000825560040290600052602060002090810190611d189190611e06565b50565b604051806101200160405280600015158152602001600015158152602001606081526020016060815260200160608152602001606081526020016060815260200160608152602001606081525090565b6040518060400160405280600073ffffffffffffffffffffffffffffffffffffffff168152602001606081525090565b5b80821115611db4576000816000905550600101611d9c565b5090565b5b80821115611e0257600080820160006101000a81549073ffffffffffffffffffffffffffffffffffffffff0219169055600182016000611df99190611c93565b50600201611db9565b5090565b5b80821115611e68576000808201600090556001820160006101000a81549073ffffffffffffffffffffffffffffffffffffffff0219169055600282016000611e4f9190611c93565b600382016000611e5f9190611c93565b50600401611e07565b5090565b600073ffffffffffffffffffffffffffffffffffffffff82169050919050565b6000611e9782611e6c565b9050919050565b611ea781611e8c565b82525050565b6000602082019050611ec26000830184611e9e565b92915050565b6000604051905090565b600080fd5b600080fd5b6000819050919050565b611eef81611edc565b8114611efa57600080fd5b50565b600081359050611f0c81611ee6565b92915050565b600080fd5b600080fd5b6000601f19601f8301169050919050565b7f4e487b7100000000000000000000000000000000000000000000000000000000600052604160045260246000fd5b611f6582611f1c565b810181811067ffffffffffffffff82111715611f8457611f83611f2d565b5b80604052505050565b6000611f97611ec8565b9050611fa38282611f5c565b919050565b600067ffffffffffffffff821115611fc357611fc2611f2d565b5b611fcc82611f1c565b9050602081019050919050565b82818337600083830152505050565b6000611ffb611ff684611fa8565b611f8d565b90508281526020810184848401111561201757612016611f17565b5b612022848285611fd9565b509392505050565b600082601f83011261203f5761203e611f12565b5b813561204f848260208601611fe8565b91505092915050565b6000806000806080858703121561207257612071611ed2565b5b600061208087828801611efd565b945050602061209187828801611efd565b935050604085013567ffffffffffffffff8111156120b2576120b1611ed7565b5b6120be8782880161202a565b925050606085013567ffffffffffffffff8111156120df576120de611ed7565b5b6120eb8782880161202a565b91505092959194509250565b60006020828403121561210d5761210c611ed2565b5b600061211b84828501611efd565b91505092915050565b61212d81611e8c565b811461213857600080fd5b50565b60008135905061214a81612124565b92915050565b60006020828403121561216657612165611ed2565b5b60006121748482850161213b565b91505092915050565b60008115159050919050565b6121928161217d565b811461219d57600080fd5b50565b6000813590506121af81612189565b92915050565b600080604083850312156121cc576121cb611ed2565b5b60006121da85828601611efd565b92505060206121eb858286016121a0565b9150509250929050565b600081519050919050565b600082825260208201905092915050565b6000819050602082019050919050565b61222a81611edc565b82525050565b600061223c8383612221565b60208301905092915050565b6000602082019050919050565b6000612260826121f5565b61226a8185612200565b935061227583612211565b8060005b838110156122a657815161228d8882612230565b975061229883612248565b925050600181019050612279565b5085935050505092915050565b600060208201905081810360008301526122cd8184612255565b905092915050565b600080604083850312156122ec576122eb611ed2565b5b60006122fa85828601611efd565b925050602083013567ffffffffffffffff81111561231b5761231a611ed7565b5b6123278582860161202a565b9150509250929050565b6000806040838503121561234857612347611ed2565b5b60006123568582860161213b565b92505060206123678582860161213b565b9150509250929050565b61237a8161217d565b82525050565b600081519050919050565b600082825260208201905092915050565b60005b838110156123ba57808201518184015260208101905061239f565b838111156123c9576000848401525b50505050565b60006123da82612380565b6123e4818561238b565b93506123f481856020860161239c565b6123fd81611f1c565b840191505092915050565b600081519050919050565b600082825260208201905092915050565b6000819050602082019050919050565b61243d81611e8c565b82525050565b600060408301600083015161245b6000860182612434565b506020830151848203602086015261247382826123cf565b9150508091505092915050565b600061248c8383612443565b905092915050565b6000602082019050919050565b60006124ac82612408565b6124b68185612413565b9350836020820285016124c885612424565b8060005b8581101561250457848403895281516124e58582612480565b94506124f083612494565b925060208a019950506001810190506124cc565b50829750879550505050505092915050565b600081519050919050565b600082825260208201905092915050565b6000819050602082019050919050565b600060808301600083015161255a6000860182612221565b50602083015161256d6020860182612434565b506040830151848203604086015261258582826123cf565b9150506060830151848203606086015261259f82826123cf565b9150508091505092915050565b60006125b88383612542565b905092915050565b6000602082019050919050565b60006125d882612516565b6125e28185612521565b9350836020820285016125f485612532565b8060005b85811015612630578484038952815161261185826125ac565b945061261c836125c0565b925060208a019950506001810190506125f8565b50829750879550505050505092915050565b60006101208301600083015161265b6000860182612371565b50602083015161266e6020860182612371565b506040830151848203604086015261268682826123cf565b915050606083015184820360608601526126a082826123cf565b915050608083015184820360808601526126ba82826123cf565b91505060a083015184820360a08601526126d482826123cf565b91505060c083015184820360c08601526126ee82826123cf565b91505060e083015184820360e086015261270882826124a1565b91505061010083015184820361010086015261272482826125cd565b9150508091505092915050565b6000602082019050818103600083015261274b8184612642565b905092915050565b600067ffffffffffffffff82111561276e5761276d611f2d565b5b602082029050602081019050919050565b600080fd5b600061279761279284612753565b611f8d565b905080838252602082019050602084028301858111156127ba576127b961277f565b5b835b818110156127e357806127cf8882611efd565b8452602084019350506020810190506127bc565b5050509392505050565b600082601f83011261280257612801611f12565b5b8135612812848260208601612784565b91505092915050565b60008060008060008060c0878903121561283857612837611ed2565b5b600061284689828a01611efd565b965050602087013567ffffffffffffffff81111561286757612866611ed7565b5b61287389828a016127ed565b955050604087013567ffffffffffffffff81111561289457612893611ed7565b5b6128a089828a0161202a565b945050606087013567ffffffffffffffff8111156128c1576128c0611ed7565b5b6128cd89828a0161202a565b935050608087013567ffffffffffffffff8111156128ee576128ed611ed7565b5b6128fa89828a0161202a565b92505060a087013567ffffffffffffffff81111561291b5761291a611ed7565b5b61292789828a0161202a565b9150509295509295509295565b600082825260208201905092915050565b7f4578616d20646f6573206e6f7420657869737473210000000000000000000000600082015250565b600061297b601583612934565b915061298682612945565b602082019050919050565b600060208201905081810360008301526129aa8161296e565b9050919050565b7f73747564656e7420494420697320656d70747921000000000000000000000000600082015250565b60006129e7601483612934565b91506129f2826129b1565b602082019050919050565b60006020820190508181036000830152612a16816129da565b9050919050565b7f73747564656e74207075626c6963206b657920697320656d7074792100000000600082015250565b6000612a53601c83612934565b9150612a5e82612a1d565b602082019050919050565b60006020820190508181036000830152612a8281612a46565b9050919050565b7f73747564656e74204944206469646e2774206d6174636820796f75722061646460008201527f7265737321000000000000000000000000000000000000000000000000000000602082015250565b6000612ae5602583612934565b9150612af082612a89565b604082019050919050565b60006020820190508181036000830152612b1481612ad8565b9050919050565b7f4e487b7100000000000000000000000000000000000000000000000000000000600052602260045260246000fd5b60006002820490506001821680612b6257607f821691505b602082108103612b7557612b74612b1b565b5b50919050565b60008190508160005260206000209050919050565b60006020601f8301049050919050565b600082821b905092915050565b600060088302612bdd7fffffffffffffffffffffffffffffffffffffffffffffffffffffffffffffffff82612ba0565b612be78683612ba0565b95508019841693508086168417925050509392505050565b6000819050919050565b6000612c24612c1f612c1a84611edc565b612bff565b611edc565b9050919050565b6000819050919050565b612c3e83612c09565b612c52612c4a82612c2b565b848454612bad565b825550505050565b600090565b612c67612c5a565b612c72818484612c35565b505050565b5b81811015612c9657612c8b600082612c5f565b600181019050612c78565b5050565b601f821115612cdb57612cac81612b7b565b612cb584612b90565b81016020851015612cc4578190505b612cd8612cd085612b90565b830182612c77565b50505b505050565b600082821c905092915050565b6000612cfe60001984600802612ce0565b1980831691505092915050565b6000612d178383612ced565b9150826002028217905092915050565b612d3082612380565b67ffffffffffffffff811115612d4957612d48611f2d565b5b612d538254612b4a565b612d5e828285612c9a565b600060209050601f831160018114612d915760008415612d7f578287015190505b612d898582612d0b565b865550612df1565b601f198416612d9f86612b7b565b60005b82811015612dc757848901518255600182019150602085019450602081019050612da2565b86831015612de45784890151612de0601f891682612ced565b8355505b6001600288020188555050505b505050505050565b612e0281611edc565b82525050565b6000612e1382612380565b612e1d8185612934565b9350612e2d81856020860161239c565b612e3681611f1c565b840191505092915050565b6000606082019050612e566000830186612df9565b612e636020830185612df9565b8181036040830152612e758184612e08565b9050949350505050565b600081519050612e8e81612189565b92915050565b600060208284031215612eaa57612ea9611ed2565b5b6000612eb884828501612e7f565b91505092915050565b7f4f776e657261626c653a2063616c6c6572206973206e6f7420746865206f776e60008201527f6572000000000000000000000000000000000000000000000000000000000000602082015250565b6000612f1d602283612934565b9150612f2882612ec1565b604082019050919050565b60006020820190508181036000830152612f4c81612f10565b9050919050565b7f6578616d20494420697320656d70747921000000000000000000000000000000600082015250565b6000612f89601183612934565b9150612f9482612f53565b602082019050919050565b60006020820190508181036000830152612fb881612f7c565b9050919050565b7f6578616d206e6f74206578697374732100000000000000000000000000000000600082015250565b6000612ff5601083612934565b915061300082612fbf565b602082019050919050565b6000602082019050818103600083015261302481612fe8565b9050919050565b60006020820190506130406000830184612df9565b92915050565b61304f8161217d565b82525050565b600060408201905061306a6000830185612df9565b6130776020830184613046565b9392505050565b6000815461308b81612b4a565b6130958186612934565b945060018216600081146130b057600181146130c6576130f9565b60ff1983168652811515602002860193506130f9565b6130cf85612b7b565b60005b838110156130f1578154818901526001820191506020810190506130d2565b808801955050505b50505092915050565b60006040820190506131176000830185612df9565b8181036020830152613129818461307e565b90509392505050565b7f6578616d20646f6573206e6f7420657869737421000000000000000000000000600082015250565b6000613168601483612934565b915061317382613132565b602082019050919050565b600060208201905081810360008301526131978161315b565b9050919050565b7f4e487b7100000000000000000000000000000000000000000000000000000000600052603260045260246000fd5b7f4e487b7100000000000000000000000000000000000000000000000000000000600052601160045260246000fd5b600061320782611edc565b91507fffffffffffffffffffffffffffffffffffffffffffffffffffffffffffffffff8203613239576132386131cd565b5b600182019050919050565b600060a0820190506132596000830188612df9565b818103602083015261326b818761307e565b9050818103604083015261327f818661307e565b90508181036060830152613293818561307e565b905081810360808301526132a7818461307e565b90509695505050505050565b6000815190506132c281612124565b92915050565b60006132db6132d684611fa8565b611f8d565b9050828152602081018484840111156132f7576132f6611f17565b5b61330284828561239c565b509392505050565b600082601f83011261331f5761331e611f12565b5b815161332f8482602086016132c8565b91505092915050565b6000806040838503121561334f5761334e611ed2565b5b600061335d858286016132b3565b925050602083015167ffffffffffffffff81111561337e5761337d611ed7565b5b61338a8582860161330a565b915050925092905056fea26469706673582212209008239fac7da4cf939f3c15654cd45f2356c4b9921cdc269898d3108760cbaa64736f6c634300080f0033",
  "immutableReferences": {},
  "source": "\n// import \"./Ownable.sol\"; // Path to the imported library\n\npragma solidity >=0.7.0 <0.9.0;\n\n// SPDX-License-Identifier: MIT\n\n// interface of university management contract.\ninterface UniversityInterfaceExam{\n\n    // check if it's the university address.\n    function isOwner(address owner) external view returns (bool);\n}\n\n// interface of student management contract.\ninterface StudentInterface{\n    \n    // get the student address and public key by ID.\n    function getStudent(uint _studentID) external view returns (address, string memory);\n}\n\n\ncontract ExamManagement{\n\n    address owner;\n    address universityContract;\n    address studentContract;\n\n    // address and public key of a student.\n    struct student{\n        address studentAddr;\n        string studentPK;\n    }\n\n    struct answerSheet{\n        uint studentID;\n        address studentAddr;\n        string answerSheetHash;\n        string description;\n    }\n\n    // exam infomation.\n    struct exam {\n        bool isExist;\n        bool isExpired;\n        string startTime;\n        string endTime;\n        string markerPK;\n        string description;\n        string examPaperHash;\n        student[] students;\n        answerSheet[] answerSheets;\n    }\n\n    // map exam ID to exam details and invited students' information.\n    mapping (uint => exam) private exams;\n\n    // all exam IDs.\n    uint [] examIDs;\n\n    // Emits an event when a new exam is updated, you can use this to update remote exam lists.\n    event examUpdated(uint examID, string startTime, string endTime, string markerPK, string description);\n\n    // Emits an event when an exam is expired, you can use this to update remote exam lists.\n    event examStatusChanged(uint examID, bool isExpired);\n\n    // Emits an event when an exam is deleted, you can use this to update remote exam lists.\n    event examDeleted(uint examID);\n\n    // Emits an event when an exam paper is updated, you can use this to update remote exam lists.\n    event examPaperUpdated(uint examID, string examPaperHash);\n\n    event answerSheetUpdated(uint examID, uint studentID, string answerSheetHash);\n\n    constructor() {\n        owner = msg.sender;\n    }\n\n    // modifier: only owner (university) address can call the 'onlyOwner' function.\n    modifier onlyOwner() {\n        require(UniversityInterfaceExam(universityContract).isOwner(msg.sender) == true, \"Ownerable: caller is not the owner\");\n        _;\n    }\n\n    // initial set up of contract addresses of university management and student management.\n    function init(address _universityContract, address _studentContract) public{\n        require(owner == msg.sender, \"Ownerable: caller is not the owner\");\n        universityContract = _universityContract;\n        studentContract = _studentContract;\n    }\n\n    // change contract addresses of university management.\n    function changeUniversityContractAddr(address _universityContract) public onlyOwner{\n        universityContract = _universityContract;\n    }\n    \n    // change contract addresses of student management.\n    function changeStudentContractAddr(address _studentContract) public onlyOwner{\n        studentContract = _studentContract;\n    }\n\n    // show university management contract address.\n    function showUniversityContractAddr() public view returns(address){\n        return universityContract;\n    }\n    \n    // show student management contract address.\n    function showStudentContractAddr() public view returns(address){\n        return studentContract;\n    }\n\n    // get exam infomation by ID.\n    function getExam(uint _examID) public view returns (exam memory){\n        \n        // require the exam exists.\n        require(exams[_examID].isExist == true, \"exam does not exist!\");\n\n        return exams[_examID];\n    }\n\n    // get all exam IDs\n    function getExamIDs() external view returns (uint [] memory){\n\n        return examIDs;\n    }\n\n    // update or add exam\n    function updateExam(uint _examID, uint[] memory _studentIDs, string memory _startTime, string memory _endTime, string memory _markerPK, string memory _description) public onlyOwner{\n\n        // require the exam ID to not be empty.\n        require(_examID != 0, \"student ID is empty!\");\n\n        // require the student IDs to not be empty.\n        require(_studentIDs.length > 0, \"student public key is empty!\");\n\n        // require the start time to not be empty.\n        require(bytes(_startTime).length > 0, \"student public key is empty!\");\n\n        // require the end time to not be empty.\n        require(bytes(_endTime).length > 0, \"student public key is empty!\");\n\n        // require the marker public key to not be empty.\n        require(bytes(_markerPK).length > 0, \"student public key is empty!\");\n\n        // record exam IDs\n        if(exams[_examID].isExist == false){\n            examIDs.push(_examID);\n            exams[_examID].isExist = true;\n        }\n\n        // update the exam info to the storage.\n        exams[_examID].startTime = _startTime;\n        exams[_examID].endTime = _endTime;\n        exams[_examID].markerPK = _markerPK;\n        exams[_examID].description = _description;\n\n        // find all student addresses and public keys by ID\n        uint length = _studentIDs.length;\n        for (uint i = 0; i < length; i++) {\n            student memory newStudent;\n            (newStudent.studentAddr, newStudent.studentPK) = findStudent(_studentIDs[i]);\n            exams[_examID].students.push(newStudent);\n        }\n\n        // emits exam updated event.\n        emit examUpdated(_examID, exams[_examID].startTime, exams[_examID].endTime, exams[_examID].markerPK, exams[_examID].description);\n    }\n\n    // find student public key by ID\n    function findStudent(uint _studentID) private view returns(address, string memory){\n\n        return StudentInterface(studentContract).getStudent(_studentID);\n    }\n\n// update or add exam paper hash\n    function updateExamPaper(uint _examID, string memory _examPaperHash) public onlyOwner{\n\n        // require the exam ID exists.\n        require(exams[_examID].isExist != false, \"Exam does not exists!\");\n\n        // require the exam paper hash to not be empty.\n        require(bytes(_examPaperHash).length > 0, \"student public key is empty!\");\n\n        // update the exam paper hash to the storage.\n        exams[_examID].examPaperHash = _examPaperHash;\n\n        // emits exam updated event.\n        emit examPaperUpdated(_examID, exams[_examID].examPaperHash);\n    }\n\n    // update or add answer sheet hash\n    function updateAnswerSheet(uint _examID, uint _studentID, string memory _answerSheetHash, string memory _description) public{\n\n        // require the exam ID exists.\n        require(exams[_examID].isExist != false, \"Exam does not exists!\");\n        \n        // require the student ID to not be empty.\n        require(_studentID > 0, \"student ID is empty!\");\n\n        // require the answer sheet hash to not be empty.\n        require(bytes(_answerSheetHash).length > 0, \"student public key is empty!\");\n        \n        // access control: require the answer sheet hash come from the correct student.\n        (address addr, string memory PK) = findStudent(_studentID);\n        require(addr == msg.sender, \"student ID didn't match your address!\");\n\n        // update the answer sheet hash to the storage.\n        answerSheet memory newAnswerSheet;\n        newAnswerSheet.studentID = _studentID;\n        newAnswerSheet.studentAddr = addr;\n        newAnswerSheet.answerSheetHash = _answerSheetHash;\n        \n        if(bytes(_description).length > 0){\n            newAnswerSheet.description = _description;\n        }\n        else{\n            newAnswerSheet.description = \"\";\n        }\n\n        exams[_examID].answerSheets.push(newAnswerSheet);\n\n        // emits exam updated event.\n        emit answerSheetUpdated(_examID, _studentID, _answerSheetHash);\n    }\n\n    function setExpired(uint _examID, bool _isExpired) public onlyOwner{\n\n        // require the exam ID to not be empty.\n        require(_examID != 0, \"exam ID is empty!\");\n        \n        // require the exam exists.\n        require(exams[_examID].isExist != false, \"exam not exists!\");\n\n        // set the exam status.\n        exams[_examID].isExpired = _isExpired;\n\n        // emits exam status changed event.\n        emit examStatusChanged(_examID, exams[_examID].isExpired);\n    }\n\n    // delete exam\n    function deleteExam(uint _examID) public onlyOwner{\n\n        // require the exam ID to not be empty.\n        require(_examID != 0, \"exam ID is empty!\");\n        \n        // require the exam exists.\n        require(exams[_examID].isExist != false, \"exam not exists!\");\n\n        delete exams[_examID];\n        \n        // delete the exam info.\n        // exams[_examID].isExist = false;\n        // exams[_examID].isExpired = false;\n        // exams[_examID].startTime = \"\";\n        // exams[_examID].endTime = \"\";\n        // exams[_examID].markerPK = \"\";\n        // exams[_examID].description = \"\";\n\n        // delete exams[_examID].students;\n\n        // uint length = exams[_examID].students.length;\n        // for (uint i = 0; i < length; i++) {\n        //     exams[_examID].students.pop();\n        // }\n\n        // emits exam deleted event.\n        emit examDeleted(_examID);\n    }\n}\n",
  "sourcePath": "/Users/reol/Documents/CyberSecurity/Msc project/code/OnlineExam/contracts/ExamManagement.sol",
  "compiler": {
    "name": "solc",
    "version": "0.8.15+commit.e14f2714.Emscripten.clang"
  },
  "schemaVersion": "3.4.8",
  "updatedAt": "2022-09-05T14:29:28.168Z",
  "networkType": "ethereum",
  "devdoc": {
    "kind": "dev",
    "methods": {},
    "version": 1
  },
  "userdoc": {
    "kind": "user",
    "methods": {},
    "version": 1
  }
}