{
  "contractName": "KeyManagement",
  "abi": [
    {
      "inputs": [],
      "stateMutability": "nonpayable",
      "type": "constructor"
    },
    {
      "anonymous": false,
      "inputs": [
        {
          "indexed": false,
          "internalType": "uint256",
          "name": "examID",
          "type": "uint256"
        },
        {
          "indexed": false,
          "internalType": "address[]",
          "name": "studentAddr",
          "type": "address[]"
        }
      ],
      "name": "DKsDeleted",
      "type": "event"
    },
    {
      "anonymous": false,
      "inputs": [
        {
          "indexed": false,
          "internalType": "uint256",
          "name": "examID",
          "type": "uint256"
        }
      ],
      "name": "examDKsAdded",
      "type": "event"
    },
    {
      "inputs": [
        {
          "internalType": "address",
          "name": "_owner",
          "type": "address"
        }
      ],
      "name": "init",
      "outputs": [],
      "stateMutability": "nonpayable",
      "type": "function"
    },
    {
      "inputs": [
        {
          "internalType": "address",
          "name": "_owner",
          "type": "address"
        }
      ],
      "name": "changeInit",
      "outputs": [],
      "stateMutability": "nonpayable",
      "type": "function"
    },
    {
      "inputs": [],
      "name": "showUniversityContractAddr",
      "outputs": [
        {
          "internalType": "address",
          "name": "",
          "type": "address"
        }
      ],
      "stateMutability": "view",
      "type": "function",
      "constant": true
    },
    {
      "inputs": [
        {
          "internalType": "uint256",
          "name": "_examID",
          "type": "uint256"
        },
        {
          "internalType": "address",
          "name": "_studentAddr",
          "type": "address"
        }
      ],
      "name": "getDK",
      "outputs": [
        {
          "internalType": "string",
          "name": "",
          "type": "string"
        }
      ],
      "stateMutability": "view",
      "type": "function",
      "constant": true
    },
    {
      "inputs": [
        {
          "internalType": "uint256",
          "name": "_examID",
          "type": "uint256"
        },
        {
          "internalType": "address[]",
          "name": "_studentAddr",
          "type": "address[]"
        },
        {
          "internalType": "string[]",
          "name": "_DKs",
          "type": "string[]"
        }
      ],
      "name": "updateDKs",
      "outputs": [],
      "stateMutability": "nonpayable",
      "type": "function"
    },
    {
      "inputs": [
        {
          "internalType": "uint256",
          "name": "_examID",
          "type": "uint256"
        },
        {
          "internalType": "address[]",
          "name": "_studentAddr",
          "type": "address[]"
        }
      ],
      "name": "deleteDKs",
      "outputs": [],
      "stateMutability": "nonpayable",
      "type": "function"
    }
  ],
  "bytecode": "0x608060405234801561001057600080fd5b50336000806101000a81548173ffffffffffffffffffffffffffffffffffffffff021916908373ffffffffffffffffffffffffffffffffffffffff160217905550611732806100606000396000f3fe608060405234801561001057600080fd5b50600436106100625760003560e01c806319ab453c14610067578063514860dc146100835780635d656d5a1461009f578063865f82bc146100bb5780639b4cd9ba146100eb578063d4c88f8c14610109575b600080fd5b610081600480360381019061007c9190610a20565b610125565b005b61009d60048036038101906100989190610a20565b6101f7565b005b6100b960048036038101906100b49190610d72565b61031d565b005b6100d560048036038101906100d09190610dfd565b610602565b6040516100e29190610ec5565b60405180910390f35b6100f36106e5565b6040516101009190610ef6565b60405180910390f35b610123600480360381019061011e9190610f11565b61070f565b005b3373ffffffffffffffffffffffffffffffffffffffff1660008054906101000a900473ffffffffffffffffffffffffffffffffffffffff1673ffffffffffffffffffffffffffffffffffffffff16146101b3576040517f08c379a00000000000000000000000000000000000000000000000000000000081526004016101aa90610fdf565b60405180910390fd5b80600160006101000a81548173ffffffffffffffffffffffffffffffffffffffff021916908373ffffffffffffffffffffffffffffffffffffffff16021790555050565b60011515600160009054906101000a900473ffffffffffffffffffffffffffffffffffffffff1673ffffffffffffffffffffffffffffffffffffffff16632f54bf6e336040518263ffffffff1660e01b81526004016102569190610ef6565b602060405180830381865afa158015610273573d6000803e3d6000fd5b505050506040513d601f19601f820116820180604052508101906102979190611037565b1515146102d9576040517f08c379a00000000000000000000000000000000000000000000000000000000081526004016102d090610fdf565b60405180910390fd5b80600160006101000a81548173ffffffffffffffffffffffffffffffffffffffff021916908373ffffffffffffffffffffffffffffffffffffffff16021790555050565b60011515600160009054906101000a900473ffffffffffffffffffffffffffffffffffffffff1673ffffffffffffffffffffffffffffffffffffffff16632f54bf6e336040518263ffffffff1660e01b815260040161037c9190610ef6565b602060405180830381865afa158015610399573d6000803e3d6000fd5b505050506040513d601f19601f820116820180604052508101906103bd9190611037565b1515146103ff576040517f08c379a00000000000000000000000000000000000000000000000000000000081526004016103f690610fdf565b60405180910390fd5b60008303610442576040517f08c379a0000000000000000000000000000000000000000000000000000000008152600401610439906110b0565b60405180910390fd5b6000825111610486576040517f08c379a000000000000000000000000000000000000000000000000000000000815260040161047d9061111c565b60405180910390fd5b60008151116104ca576040517f08c379a00000000000000000000000000000000000000000000000000000000081526004016104c1906111ae565b60405180910390fd5b815181511461050e576040517f08c379a000000000000000000000000000000000000000000000000000000000815260040161050590611240565b60405180910390fd5b60008251905060005b818110156105c45782818151811061053257610531611260565b5b602002602001015160026000878152602001908152602001600020600086848151811061056257610561611260565b5b602002602001015173ffffffffffffffffffffffffffffffffffffffff1673ffffffffffffffffffffffffffffffffffffffff16815260200190815260200160002090816105b0919061149b565b5080806105bc9061159c565b915050610517565b507f39b5918ba31784d1bf4f72d9cf53d72a3874201480eeb368f81d9a79526f9804846040516105f491906115f3565b60405180910390a150505050565b60606002600084815260200190815260200160002060008373ffffffffffffffffffffffffffffffffffffffff1673ffffffffffffffffffffffffffffffffffffffff168152602001908152602001600020805461065f906112be565b80601f016020809104026020016040519081016040528092919081815260200182805461068b906112be565b80156106d85780601f106106ad576101008083540402835291602001916106d8565b820191906000526020600020905b8154815290600101906020018083116106bb57829003601f168201915b5050505050905092915050565b6000600160009054906101000a900473ffffffffffffffffffffffffffffffffffffffff16905090565b60011515600160009054906101000a900473ffffffffffffffffffffffffffffffffffffffff1673ffffffffffffffffffffffffffffffffffffffff16632f54bf6e336040518263ffffffff1660e01b815260040161076e9190610ef6565b602060405180830381865afa15801561078b573d6000803e3d6000fd5b505050506040513d601f19601f820116820180604052508101906107af9190611037565b1515146107f1576040517f08c379a00000000000000000000000000000000000000000000000000000000081526004016107e890610fdf565b60405180910390fd5b60008203610834576040517f08c379a000000000000000000000000000000000000000000000000000000000815260040161082b906110b0565b60405180910390fd5b6000815111610878576040517f08c379a000000000000000000000000000000000000000000000000000000000815260040161086f9061111c565b60405180910390fd5b60008151905060005b81811015610912576002600085815260200190815260200160002060008483815181106108b1576108b0611260565b5b602002602001015173ffffffffffffffffffffffffffffffffffffffff1673ffffffffffffffffffffffffffffffffffffffff16815260200190815260200160002060006108ff9190610951565b808061090a9061159c565b915050610881565b507fa7a914f8b9a41e7d3a262c9db21bdc9dd435ac2c6931476760a6be62c2bbcc6f83836040516109449291906116cc565b60405180910390a1505050565b50805461095d906112be565b6000825580601f1061096f575061098e565b601f01602090049060005260206000209081019061098d9190610991565b5b50565b5b808211156109aa576000816000905550600101610992565b5090565b6000604051905090565b600080fd5b600080fd5b600073ffffffffffffffffffffffffffffffffffffffff82169050919050565b60006109ed826109c2565b9050919050565b6109fd816109e2565b8114610a0857600080fd5b50565b600081359050610a1a816109f4565b92915050565b600060208284031215610a3657610a356109b8565b5b6000610a4484828501610a0b565b91505092915050565b6000819050919050565b610a6081610a4d565b8114610a6b57600080fd5b50565b600081359050610a7d81610a57565b92915050565b600080fd5b6000601f19601f8301169050919050565b7f4e487b7100000000000000000000000000000000000000000000000000000000600052604160045260246000fd5b610ad182610a88565b810181811067ffffffffffffffff82111715610af057610aef610a99565b5b80604052505050565b6000610b036109ae565b9050610b0f8282610ac8565b919050565b600067ffffffffffffffff821115610b2f57610b2e610a99565b5b602082029050602081019050919050565b600080fd5b6000610b58610b5384610b14565b610af9565b90508083825260208201905060208402830185811115610b7b57610b7a610b40565b5b835b81811015610ba45780610b908882610a0b565b845260208401935050602081019050610b7d565b5050509392505050565b600082601f830112610bc357610bc2610a83565b5b8135610bd3848260208601610b45565b91505092915050565b600067ffffffffffffffff821115610bf757610bf6610a99565b5b602082029050602081019050919050565b600080fd5b600067ffffffffffffffff821115610c2857610c27610a99565b5b610c3182610a88565b9050602081019050919050565b82818337600083830152505050565b6000610c60610c5b84610c0d565b610af9565b905082815260208101848484011115610c7c57610c7b610c08565b5b610c87848285610c3e565b509392505050565b600082601f830112610ca457610ca3610a83565b5b8135610cb4848260208601610c4d565b91505092915050565b6000610cd0610ccb84610bdc565b610af9565b90508083825260208201905060208402830185811115610cf357610cf2610b40565b5b835b81811015610d3a57803567ffffffffffffffff811115610d1857610d17610a83565b5b808601610d258982610c8f565b85526020850194505050602081019050610cf5565b5050509392505050565b600082601f830112610d5957610d58610a83565b5b8135610d69848260208601610cbd565b91505092915050565b600080600060608486031215610d8b57610d8a6109b8565b5b6000610d9986828701610a6e565b935050602084013567ffffffffffffffff811115610dba57610db96109bd565b5b610dc686828701610bae565b925050604084013567ffffffffffffffff811115610de757610de66109bd565b5b610df386828701610d44565b9150509250925092565b60008060408385031215610e1457610e136109b8565b5b6000610e2285828601610a6e565b9250506020610e3385828601610a0b565b9150509250929050565b600081519050919050565b600082825260208201905092915050565b60005b83811015610e77578082015181840152602081019050610e5c565b83811115610e86576000848401525b50505050565b6000610e9782610e3d565b610ea18185610e48565b9350610eb1818560208601610e59565b610eba81610a88565b840191505092915050565b60006020820190508181036000830152610edf8184610e8c565b905092915050565b610ef0816109e2565b82525050565b6000602082019050610f0b6000830184610ee7565b92915050565b60008060408385031215610f2857610f276109b8565b5b6000610f3685828601610a6e565b925050602083013567ffffffffffffffff811115610f5757610f566109bd565b5b610f6385828601610bae565b9150509250929050565b7f4f776e657261626c653a2063616c6c6572206973206e6f7420746865206f776e60008201527f6572000000000000000000000000000000000000000000000000000000000000602082015250565b6000610fc9602283610e48565b9150610fd482610f6d565b604082019050919050565b60006020820190508181036000830152610ff881610fbc565b9050919050565b60008115159050919050565b61101481610fff565b811461101f57600080fd5b50565b6000815190506110318161100b565b92915050565b60006020828403121561104d5761104c6109b8565b5b600061105b84828501611022565b91505092915050565b7f6578616d20494420697320656d70747921000000000000000000000000000000600082015250565b600061109a601183610e48565b91506110a582611064565b602082019050919050565b600060208201905081810360008301526110c98161108d565b9050919050565b7f73747564656e742061646472657373206c69737420697320656d707479210000600082015250565b6000611106601e83610e48565b9150611111826110d0565b602082019050919050565b60006020820190508181036000830152611135816110f9565b9050919050565b7f6578616d2070617065722064656372797074696f6e206b6579206c697374206960008201527f7320656d70747921000000000000000000000000000000000000000000000000602082015250565b6000611198602883610e48565b91506111a38261113c565b604082019050919050565b600060208201905081810360008301526111c78161118b565b9050919050565b7f746865206e756d626572206f662073747564656e74206e6f7420657175616c7360008201527f20746f20746865206e756d626572206f6620444b210000000000000000000000602082015250565b600061122a603583610e48565b9150611235826111ce565b604082019050919050565b600060208201905081810360008301526112598161121d565b9050919050565b7f4e487b7100000000000000000000000000000000000000000000000000000000600052603260045260246000fd5b7f4e487b7100000000000000000000000000000000000000000000000000000000600052602260045260246000fd5b600060028204905060018216806112d657607f821691505b6020821081036112e9576112e861128f565b5b50919050565b60008190508160005260206000209050919050565b60006020601f8301049050919050565b600082821b905092915050565b6000600883026113517fffffffffffffffffffffffffffffffffffffffffffffffffffffffffffffffff82611314565b61135b8683611314565b95508019841693508086168417925050509392505050565b6000819050919050565b600061139861139361138e84610a4d565b611373565b610a4d565b9050919050565b6000819050919050565b6113b28361137d565b6113c66113be8261139f565b848454611321565b825550505050565b600090565b6113db6113ce565b6113e68184846113a9565b505050565b5b8181101561140a576113ff6000826113d3565b6001810190506113ec565b5050565b601f82111561144f57611420816112ef565b61142984611304565b81016020851015611438578190505b61144c61144485611304565b8301826113eb565b50505b505050565b600082821c905092915050565b600061147260001984600802611454565b1980831691505092915050565b600061148b8383611461565b9150826002028217905092915050565b6114a482610e3d565b67ffffffffffffffff8111156114bd576114bc610a99565b5b6114c782546112be565b6114d282828561140e565b600060209050601f83116001811461150557600084156114f3578287015190505b6114fd858261147f565b865550611565565b601f198416611513866112ef565b60005b8281101561153b57848901518255600182019150602085019450602081019050611516565b868310156115585784890151611554601f891682611461565b8355505b6001600288020188555050505b505050505050565b7f4e487b7100000000000000000000000000000000000000000000000000000000600052601160045260246000fd5b60006115a782610a4d565b91507fffffffffffffffffffffffffffffffffffffffffffffffffffffffffffffffff82036115d9576115d861156d565b5b600182019050919050565b6115ed81610a4d565b82525050565b600060208201905061160860008301846115e4565b92915050565b600081519050919050565b600082825260208201905092915050565b6000819050602082019050919050565b611643816109e2565b82525050565b6000611655838361163a565b60208301905092915050565b6000602082019050919050565b60006116798261160e565b6116838185611619565b935061168e8361162a565b8060005b838110156116bf5781516116a68882611649565b97506116b183611661565b925050600181019050611692565b5085935050505092915050565b60006040820190506116e160008301856115e4565b81810360208301526116f3818461166e565b9050939250505056fea264697066735822122051f8f5b93208e0a6a495b6d2b2c91247bb12de0eb62aab4de3f0114d54c731c164736f6c634300080f0033",
  "immutableReferences": {},
  "source": "\n// import \"./Ownable.sol\"; // Path to the imported library\n\npragma solidity >=0.7.0 <0.9.0;\n\n// SPDX-License-Identifier: MIT\n\n// interface of university management contract.\ninterface UniversityInterface{\n\n    // check if it's the university address.\n    function isOwner(address owner) external view returns (bool);\n}\n\n\ncontract KeyManagement{\n\n    address owner;\n    address universityContract;\n\n    // exam paper decryption keys for students in each exam. \n    // map exam ID to student addresses, map student address to unique decryption key.\n    mapping (uint => mapping (address => string)) private examDKs;\n\n    // Emits an event when exam paper decryption keys for students of an exam is added\n    //, you can use this to update remote DKs lists.\n    event examDKsAdded(uint examID);\n\n    // Emits an event when exam paper decryption keys of students in an exam is deleted\n    //, you can use this to update remote DKs lists.\n    event DKsDeleted(uint examID, address [] studentAddr);\n\n\n    constructor() {\n        owner = msg.sender;\n    }\n\n    // modifier: only owner (university) address can call the 'onlyOwner' function.\n    modifier onlyOwner() {\n        require(UniversityInterface(universityContract).isOwner(msg.sender) == true, \"Ownerable: caller is not the owner\");\n        _;\n    }\n\n    // initial set up of contract address of university management.\n    function init(address _owner) public{\n        require(owner == msg.sender, \"Ownerable: caller is not the owner\");\n        universityContract = _owner;\n    }\n\n    // change contract address of university management.\n    function changeInit(address _owner) public onlyOwner{\n        universityContract = _owner;\n    }\n\n    // show university management contract address.\n    function showUniversityContractAddr() public view returns(address){\n        return universityContract;\n    }\n\n    // get exam paper decryption key by exam ID and student address.\n    function getDK(uint _examID, address _studentAddr) external view returns (string memory){\n        \n        return examDKs[_examID][_studentAddr];\n    }\n\n    // add exam paper decryption keys for students in an exam.\n    function updateDKs(uint _examID, address [] memory _studentAddr, string [] memory _DKs) public onlyOwner{\n\n        // require the exam ID to not be empty.\n        require(_examID != 0, \"exam ID is empty!\");\n\n        // require the student address list to not be empty.\n        require(_studentAddr.length > 0, \"student address list is empty!\");\n\n        // require the exam paper decryption key list to not be empty.\n        require(_DKs.length > 0, \"exam paper decryption key list is empty!\");\n\n        // require the number of student equals to the number of DK.\n        require(_DKs.length == _studentAddr.length, \"the number of student not equals to the number of DK!\");\n\n        uint length = _studentAddr.length;\n        // adds the exam paper decryption keys to the storage.\n        for (uint i = 0; i < length; i++) {\n            examDKs[_examID][_studentAddr[i]] = _DKs[i];\n        }\n        \n        // emits exam paper decryption keys added event.\n        emit examDKsAdded(_examID);\n    }\n\n    // delete exam paper decryption keys of an exam by exam ID and student addresses.\n    function deleteDKs(uint _examID, address [] memory _studentAddr) public onlyOwner{\n\n        // require the exam ID to not be empty.\n        require(_examID != 0, \"exam ID is empty!\");\n\n        // require the student address list to not be empty.\n        require(_studentAddr.length > 0, \"student address list is empty!\");\n\n        uint length = _studentAddr.length;\n        // delete the exam paper decryption key.\n        for (uint i = 0; i < length; i++) {\n            delete examDKs[_examID][_studentAddr[i]];\n        }\n\n        // emits exam paper decryption key deleted event.\n        emit DKsDeleted(_examID, _studentAddr);\n    }\n\n}\n",
  "sourcePath": "/Users/reol/Documents/CyberSecurity/Msc project/code/OnlineExam/contracts/KeyManagement.sol",
  "compiler": {
    "name": "solc",
    "version": "0.8.15+commit.e14f2714.Emscripten.clang"
  },
  "schemaVersion": "3.4.8",
  "updatedAt": "2022-08-07T13:41:23.493Z",
  "networkType": "ethereum",
  "devdoc": {
    "kind": "dev",
    "methods": {},
    "version": 1
  },
  "userdoc": {
    "kind": "user",
    "methods": {},
    "version": 1
  }
}