{
  "contractName": "StudentManagement",
  "abi": [
    {
      "inputs": [],
      "stateMutability": "nonpayable",
      "type": "constructor"
    },
    {
      "anonymous": false,
      "inputs": [
        {
          "indexed": false,
          "internalType": "uint256",
          "name": "studentID",
          "type": "uint256"
        }
      ],
      "name": "studentDeleted",
      "type": "event"
    },
    {
      "anonymous": false,
      "inputs": [
        {
          "indexed": false,
          "internalType": "uint256",
          "name": "studentID",
          "type": "uint256"
        },
        {
          "indexed": false,
          "internalType": "address",
          "name": "studentAddr",
          "type": "address"
        },
        {
          "indexed": false,
          "internalType": "string",
          "name": "studentPK",
          "type": "string"
        }
      ],
      "name": "studentUpdated",
      "type": "event"
    },
    {
      "inputs": [
        {
          "internalType": "address",
          "name": "_owner",
          "type": "address"
        }
      ],
      "name": "init",
      "outputs": [],
      "stateMutability": "nonpayable",
      "type": "function"
    },
    {
      "inputs": [
        {
          "internalType": "address",
          "name": "_owner",
          "type": "address"
        }
      ],
      "name": "changeInit",
      "outputs": [],
      "stateMutability": "nonpayable",
      "type": "function"
    },
    {
      "inputs": [],
      "name": "showUniversityContractAddr",
      "outputs": [
        {
          "internalType": "address",
          "name": "",
          "type": "address"
        }
      ],
      "stateMutability": "view",
      "type": "function"
    },
    {
      "inputs": [
        {
          "internalType": "uint256",
          "name": "_studentID",
          "type": "uint256"
        }
      ],
      "name": "getStudent",
      "outputs": [
        {
          "internalType": "address",
          "name": "",
          "type": "address"
        },
        {
          "internalType": "string",
          "name": "",
          "type": "string"
        }
      ],
      "stateMutability": "view",
      "type": "function"
    },
    {
      "inputs": [],
      "name": "getStudentIDs",
      "outputs": [
        {
          "internalType": "uint256[]",
          "name": "",
          "type": "uint256[]"
        }
      ],
      "stateMutability": "view",
      "type": "function"
    },
    {
      "inputs": [
        {
          "internalType": "uint256",
          "name": "_studentID",
          "type": "uint256"
        },
        {
          "internalType": "address",
          "name": "_studentAddr",
          "type": "address"
        },
        {
          "internalType": "string",
          "name": "_studentPK",
          "type": "string"
        }
      ],
      "name": "updateStudent",
      "outputs": [],
      "stateMutability": "nonpayable",
      "type": "function"
    },
    {
      "inputs": [
        {
          "internalType": "uint256",
          "name": "_studentID",
          "type": "uint256"
        }
      ],
      "name": "deleteStudent",
      "outputs": [],
      "stateMutability": "nonpayable",
      "type": "function"
    }
  ],
  "bytecode": "0x608060405234801561001057600080fd5b50336000806101000a81548173ffffffffffffffffffffffffffffffffffffffff021916908373ffffffffffffffffffffffffffffffffffffffff1602179055506115ca806100606000396000f3fe608060405234801561001057600080fd5b506004361061007d5760003560e01c8063642f91631161005b578063642f9163146100d65780639b4cd9ba14610107578063b645307d14610125578063d5a26c01146101415761007d565b80630e9fb5491461008257806319ab453c1461009e578063514860dc146100ba575b600080fd5b61009c60048036038101906100979190610c98565b61015f565b005b6100b860048036038101906100b39190610d07565b6104c3565b005b6100d460048036038101906100cf9190610d07565b610595565b005b6100f060048036038101906100eb9190610d34565b6106bb565b6040516100fe929190610df8565b60405180910390f35b61010f61080b565b60405161011c9190610e28565b60405180910390f35b61013f600480360381019061013a9190610d34565b610835565b005b6101496109f5565b6040516101569190610f01565b60405180910390f35b60011515600160009054906101000a900473ffffffffffffffffffffffffffffffffffffffff1673ffffffffffffffffffffffffffffffffffffffff16632f54bf6e336040518263ffffffff1660e01b81526004016101be9190610e28565b602060405180830381865afa1580156101db573d6000803e3d6000fd5b505050506040513d601f19601f820116820180604052508101906101ff9190610f5b565b151514610241576040517f08c379a000000000000000000000000000000000000000000000000000000000815260040161023890610ffa565b60405180910390fd5b60008303610284576040517f08c379a000000000000000000000000000000000000000000000000000000000815260040161027b90611066565b60405180910390fd5b600073ffffffffffffffffffffffffffffffffffffffff168273ffffffffffffffffffffffffffffffffffffffff16036102f3576040517f08c379a00000000000000000000000000000000000000000000000000000000081526004016102ea906110d2565b60405180910390fd5b6000815111610337576040517f08c379a000000000000000000000000000000000000000000000000000000000815260040161032e9061113e565b60405180910390fd5b600015156002600085815260200190815260200160002060000160009054906101000a900460ff161515036103bf57600383908060018154018082558091505060019003906000526020600020016000909190919091505560016002600085815260200190815260200160002060000160006101000a81548160ff0219169083151502179055505b816002600085815260200190815260200160002060000160016101000a81548173ffffffffffffffffffffffffffffffffffffffff021916908373ffffffffffffffffffffffffffffffffffffffff16021790555080600260008581526020019081526020016000206001019081610437919061136a565b507fa38a1451dcbe410373a4d04f2bd364e5d1e0f69b1e14eaea12e4fa9b4c43bfc2836002600086815260200190815260200160002060000160019054906101000a900473ffffffffffffffffffffffffffffffffffffffff16600260008781526020019081526020016000206001016040516104b6939291906114cf565b60405180910390a1505050565b3373ffffffffffffffffffffffffffffffffffffffff1660008054906101000a900473ffffffffffffffffffffffffffffffffffffffff1673ffffffffffffffffffffffffffffffffffffffff1614610551576040517f08c379a000000000000000000000000000000000000000000000000000000000815260040161054890610ffa565b60405180910390fd5b80600160006101000a81548173ffffffffffffffffffffffffffffffffffffffff021916908373ffffffffffffffffffffffffffffffffffffffff16021790555050565b60011515600160009054906101000a900473ffffffffffffffffffffffffffffffffffffffff1673ffffffffffffffffffffffffffffffffffffffff16632f54bf6e336040518263ffffffff1660e01b81526004016105f49190610e28565b602060405180830381865afa158015610611573d6000803e3d6000fd5b505050506040513d601f19601f820116820180604052508101906106359190610f5b565b151514610677576040517f08c379a000000000000000000000000000000000000000000000000000000000815260040161066e90610ffa565b60405180910390fd5b80600160006101000a81548173ffffffffffffffffffffffffffffffffffffffff021916908373ffffffffffffffffffffffffffffffffffffffff16021790555050565b60006060600115156002600085815260200190815260200160002060000160009054906101000a900460ff16151514610729576040517f08c379a000000000000000000000000000000000000000000000000000000000815260040161072090611559565b60405180910390fd5b6002600084815260200190815260200160002060000160019054906101000a900473ffffffffffffffffffffffffffffffffffffffff16600260008581526020019081526020016000206001018080546107829061118d565b80601f01602080910402602001604051908101604052809291908181526020018280546107ae9061118d565b80156107fb5780601f106107d0576101008083540402835291602001916107fb565b820191906000526020600020905b8154815290600101906020018083116107de57829003601f168201915b5050505050905091509150915091565b6000600160009054906101000a900473ffffffffffffffffffffffffffffffffffffffff16905090565b60011515600160009054906101000a900473ffffffffffffffffffffffffffffffffffffffff1673ffffffffffffffffffffffffffffffffffffffff16632f54bf6e336040518263ffffffff1660e01b81526004016108949190610e28565b602060405180830381865afa1580156108b1573d6000803e3d6000fd5b505050506040513d601f19601f820116820180604052508101906108d59190610f5b565b151514610917576040517f08c379a000000000000000000000000000000000000000000000000000000000815260040161090e90610ffa565b60405180910390fd5b6000810361095a576040517f08c379a000000000000000000000000000000000000000000000000000000000815260040161095190611066565b60405180910390fd5b60026000828152602001908152602001600020600080820160006101000a81549060ff02191690556000820160016101000a81549073ffffffffffffffffffffffffffffffffffffffff02191690556001820160006109b99190610a4d565b50507fb76534d81cc24a147664750ec6a46e39a6deda152f1dc37817d4e95bc9a55851816040516109ea9190611579565b60405180910390a150565b60606003805480602002602001604051908101604052809291908181526020018280548015610a4357602002820191906000526020600020905b815481526020019060010190808311610a2f575b5050505050905090565b508054610a599061118d565b6000825580601f10610a6b5750610a8a565b601f016020900490600052602060002090810190610a899190610a8d565b5b50565b5b80821115610aa6576000816000905550600101610a8e565b5090565b6000604051905090565b600080fd5b600080fd5b6000819050919050565b610ad181610abe565b8114610adc57600080fd5b50565b600081359050610aee81610ac8565b92915050565b600073ffffffffffffffffffffffffffffffffffffffff82169050919050565b6000610b1f82610af4565b9050919050565b610b2f81610b14565b8114610b3a57600080fd5b50565b600081359050610b4c81610b26565b92915050565b600080fd5b600080fd5b6000601f19601f8301169050919050565b7f4e487b7100000000000000000000000000000000000000000000000000000000600052604160045260246000fd5b610ba582610b5c565b810181811067ffffffffffffffff82111715610bc457610bc3610b6d565b5b80604052505050565b6000610bd7610aaa565b9050610be38282610b9c565b919050565b600067ffffffffffffffff821115610c0357610c02610b6d565b5b610c0c82610b5c565b9050602081019050919050565b82818337600083830152505050565b6000610c3b610c3684610be8565b610bcd565b905082815260208101848484011115610c5757610c56610b57565b5b610c62848285610c19565b509392505050565b600082601f830112610c7f57610c7e610b52565b5b8135610c8f848260208601610c28565b91505092915050565b600080600060608486031215610cb157610cb0610ab4565b5b6000610cbf86828701610adf565b9350506020610cd086828701610b3d565b925050604084013567ffffffffffffffff811115610cf157610cf0610ab9565b5b610cfd86828701610c6a565b9150509250925092565b600060208284031215610d1d57610d1c610ab4565b5b6000610d2b84828501610b3d565b91505092915050565b600060208284031215610d4a57610d49610ab4565b5b6000610d5884828501610adf565b91505092915050565b610d6a81610b14565b82525050565b600081519050919050565b600082825260208201905092915050565b60005b83811015610daa578082015181840152602081019050610d8f565b83811115610db9576000848401525b50505050565b6000610dca82610d70565b610dd48185610d7b565b9350610de4818560208601610d8c565b610ded81610b5c565b840191505092915050565b6000604082019050610e0d6000830185610d61565b8181036020830152610e1f8184610dbf565b90509392505050565b6000602082019050610e3d6000830184610d61565b92915050565b600081519050919050565b600082825260208201905092915050565b6000819050602082019050919050565b610e7881610abe565b82525050565b6000610e8a8383610e6f565b60208301905092915050565b6000602082019050919050565b6000610eae82610e43565b610eb88185610e4e565b9350610ec383610e5f565b8060005b83811015610ef4578151610edb8882610e7e565b9750610ee683610e96565b925050600181019050610ec7565b5085935050505092915050565b60006020820190508181036000830152610f1b8184610ea3565b905092915050565b60008115159050919050565b610f3881610f23565b8114610f4357600080fd5b50565b600081519050610f5581610f2f565b92915050565b600060208284031215610f7157610f70610ab4565b5b6000610f7f84828501610f46565b91505092915050565b7f4f776e657261626c653a2063616c6c6572206973206e6f7420746865206f776e60008201527f6572000000000000000000000000000000000000000000000000000000000000602082015250565b6000610fe4602283610d7b565b9150610fef82610f88565b604082019050919050565b6000602082019050818103600083015261101381610fd7565b9050919050565b7f73747564656e7420494420697320656d70747921000000000000000000000000600082015250565b6000611050601483610d7b565b915061105b8261101a565b602082019050919050565b6000602082019050818103600083015261107f81611043565b9050919050565b7f73747564656e74206164647265737320697320656d7074792100000000000000600082015250565b60006110bc601983610d7b565b91506110c782611086565b602082019050919050565b600060208201905081810360008301526110eb816110af565b9050919050565b7f73747564656e74207075626c6963206b657920697320656d7074792100000000600082015250565b6000611128601c83610d7b565b9150611133826110f2565b602082019050919050565b600060208201905081810360008301526111578161111b565b9050919050565b7f4e487b7100000000000000000000000000000000000000000000000000000000600052602260045260246000fd5b600060028204905060018216806111a557607f821691505b6020821081036111b8576111b761115e565b5b50919050565b60008190508160005260206000209050919050565b60006020601f8301049050919050565b600082821b905092915050565b6000600883026112207fffffffffffffffffffffffffffffffffffffffffffffffffffffffffffffffff826111e3565b61122a86836111e3565b95508019841693508086168417925050509392505050565b6000819050919050565b600061126761126261125d84610abe565b611242565b610abe565b9050919050565b6000819050919050565b6112818361124c565b61129561128d8261126e565b8484546111f0565b825550505050565b600090565b6112aa61129d565b6112b5818484611278565b505050565b5b818110156112d9576112ce6000826112a2565b6001810190506112bb565b5050565b601f82111561131e576112ef816111be565b6112f8846111d3565b81016020851015611307578190505b61131b611313856111d3565b8301826112ba565b50505b505050565b600082821c905092915050565b600061134160001984600802611323565b1980831691505092915050565b600061135a8383611330565b9150826002028217905092915050565b61137382610d70565b67ffffffffffffffff81111561138c5761138b610b6d565b5b611396825461118d565b6113a18282856112dd565b600060209050601f8311600181146113d457600084156113c2578287015190505b6113cc858261134e565b865550611434565b601f1984166113e2866111be565b60005b8281101561140a578489015182556001820191506020850194506020810190506113e5565b868310156114275784890151611423601f891682611330565b8355505b6001600288020188555050505b505050505050565b61144581610abe565b82525050565b600081546114588161118d565b6114628186610d7b565b9450600182166000811461147d5760018114611493576114c6565b60ff1983168652811515602002860193506114c6565b61149c856111be565b60005b838110156114be5781548189015260018201915060208101905061149f565b808801955050505b50505092915050565b60006060820190506114e4600083018661143c565b6114f16020830185610d61565b8181036040830152611503818461144b565b9050949350505050565b7f73747564656e7420646f6573206e6f7420657869737421000000000000000000600082015250565b6000611543601783610d7b565b915061154e8261150d565b602082019050919050565b6000602082019050818103600083015261157281611536565b9050919050565b600060208201905061158e600083018461143c565b9291505056fea2646970667358221220b26f14d27efd1a37b715bbb0cede41bfc2b1e15c180d85f48da30fa100e1d2d564736f6c634300080f0033",
  "immutableReferences": {},
  "source": "\n// import \"./Ownable.sol\"; // Path to the imported library\n\npragma solidity >=0.7.0 <0.9.0;\n\n// SPDX-License-Identifier: MIT\n\n// interface of university management contract\ninterface UniversityInterface{\n\n    // check if it's the university address\n    function isOwner(address owner) external view returns (bool);\n}\n\n\ncontract StudentManagement{\n    // The following function can only be called by the owner\n\n    address owner;\n    address universityContract;\n\n    // address and public key of a student.\n    struct student {\n        bool isExist;\n        address studentAddr;\n        string studentPK;\n    }\n\n    // map student id to student information.\n    mapping (uint => student) private students;\n\n    // all student IDs.\n    uint [] studentIDs;\n\n    // Emits an event when a new student is added, you can use this to update remote student lists.\n    event studentUpdated(uint studentID, address studentAddr, string studentPK);\n\n    // Emits an event when a new student is added, you can use this to update remote student lists.\n    event studentDeleted(uint studentID);\n\n    constructor() {\n        owner = msg.sender;\n    }\n\n    // modifier: only owner (university) address can call the 'onlyOwner' function.\n    modifier onlyOwner() {\n        require(UniversityInterface(universityContract).isOwner(msg.sender) == true, \"Ownerable: caller is not the owner\");\n        _;\n    }\n\n    // initial set up of contract address of university management\n    function init(address _owner) public{\n        require(owner == msg.sender, \"Ownerable: caller is not the owner\");\n        universityContract = _owner;\n    }\n\n    // change contract address of university management\n    function changeInit(address _owner) public onlyOwner{\n        universityContract = _owner;\n    }\n\n    // show university management contract address\n    function showUniversityContractAddr() public view returns(address){\n        return universityContract;\n    }\n\n    // get student infomation by ID\n    function getStudent(uint _studentID) external view returns (address, string memory){\n        \n        // require the student exists.\n        require(students[_studentID].isExist == true, \"student does not exist!\");\n\n        return (students[_studentID].studentAddr, students[_studentID].studentPK);\n    }\n\n    // get all student IDs\n    function getStudentIDs() external view returns (uint [] memory){\n\n        return studentIDs;\n    }\n\n    // update or add student\n    function updateStudent(uint _studentID, address _studentAddr, string memory _studentPK) public onlyOwner{\n\n        // require the student ID to not be empty.\n        require(_studentID != 0, \"student ID is empty!\");\n\n        // require the student address to not be empty.\n        require(_studentAddr != address(0x0), \"student address is empty!\");\n\n        // require the student public key to not be empty.\n        require(bytes(_studentPK).length > 0, \"student public key is empty!\");\n\n        // record student IDs\n        if(students[_studentID].isExist == false){\n            studentIDs.push(_studentID);\n            students[_studentID].isExist = true;\n        }\n\n        // update student info to the storage.\n        students[_studentID].studentAddr = _studentAddr;\n        students[_studentID].studentPK = _studentPK;\n\n        // emits student updated event.\n        emit studentUpdated(_studentID, students[_studentID].studentAddr, students[_studentID].studentPK);\n    }\n\n    // delete student\n    function deleteStudent(uint _studentID) public onlyOwner{\n\n        // require the student ID to not be empty.\n        require(_studentID != 0, \"student ID is empty!\");\n\n        // delete the student info.\n        delete students[_studentID];\n        \n        // students[_studentID].isExist = false;\n        // students[_studentID].studentAddr = 0x0000000000000000000000000000000000000000;\n        // students[_studentID].studentPK = \"\";\n\n        // emits student deleted event.\n        emit studentDeleted(_studentID);\n    }\n}\n",
  "sourcePath": "/Users/reol/Documents/CyberSecurity/Msc project/code/OnlineExam/contracts/StudentManagement.sol",
  "compiler": {
    "name": "solc",
    "version": "0.8.15+commit.e14f2714.Emscripten.clang"
  },
  "schemaVersion": "3.4.8",
  "updatedAt": "2022-08-07T13:41:20.731Z",
  "devdoc": {
    "kind": "dev",
    "methods": {},
    "version": 1
  },
  "userdoc": {
    "kind": "user",
    "methods": {},
    "version": 1
  }
}