{
  "contractName": "ExamManagement",
  "abi": [
    {
      "inputs": [],
      "stateMutability": "nonpayable",
      "type": "constructor"
    },
    {
      "anonymous": false,
      "inputs": [
        {
          "indexed": false,
          "internalType": "uint256",
          "name": "examID",
          "type": "uint256"
        }
      ],
      "name": "examDeleted",
      "type": "event"
    },
    {
      "anonymous": false,
      "inputs": [
        {
          "indexed": false,
          "internalType": "uint256",
          "name": "examID",
          "type": "uint256"
        },
        {
          "indexed": false,
          "internalType": "string",
          "name": "examPaperHash",
          "type": "string"
        }
      ],
      "name": "examPaperUpdated",
      "type": "event"
    },
    {
      "anonymous": false,
      "inputs": [
        {
          "indexed": false,
          "internalType": "uint256",
          "name": "examID",
          "type": "uint256"
        },
        {
          "indexed": false,
          "internalType": "bool",
          "name": "isExpired",
          "type": "bool"
        }
      ],
      "name": "examStatusChanged",
      "type": "event"
    },
    {
      "anonymous": false,
      "inputs": [
        {
          "indexed": false,
          "internalType": "uint256",
          "name": "examID",
          "type": "uint256"
        },
        {
          "indexed": false,
          "internalType": "string",
          "name": "startTime",
          "type": "string"
        },
        {
          "indexed": false,
          "internalType": "string",
          "name": "endTime",
          "type": "string"
        },
        {
          "indexed": false,
          "internalType": "string",
          "name": "markerPK",
          "type": "string"
        },
        {
          "indexed": false,
          "internalType": "string",
          "name": "description",
          "type": "string"
        }
      ],
      "name": "examUpdated",
      "type": "event"
    },
    {
      "inputs": [
        {
          "internalType": "address",
          "name": "_universityContract",
          "type": "address"
        },
        {
          "internalType": "address",
          "name": "_studentContract",
          "type": "address"
        }
      ],
      "name": "init",
      "outputs": [],
      "stateMutability": "nonpayable",
      "type": "function"
    },
    {
      "inputs": [
        {
          "internalType": "address",
          "name": "_universityContract",
          "type": "address"
        }
      ],
      "name": "changeUniversityContractAddr",
      "outputs": [],
      "stateMutability": "nonpayable",
      "type": "function"
    },
    {
      "inputs": [
        {
          "internalType": "address",
          "name": "_studentContract",
          "type": "address"
        }
      ],
      "name": "changeStudentContractAddr",
      "outputs": [],
      "stateMutability": "nonpayable",
      "type": "function"
    },
    {
      "inputs": [],
      "name": "showUniversityContractAddr",
      "outputs": [
        {
          "internalType": "address",
          "name": "",
          "type": "address"
        }
      ],
      "stateMutability": "view",
      "type": "function",
      "constant": true
    },
    {
      "inputs": [],
      "name": "showStudentContractAddr",
      "outputs": [
        {
          "internalType": "address",
          "name": "",
          "type": "address"
        }
      ],
      "stateMutability": "view",
      "type": "function",
      "constant": true
    },
    {
      "inputs": [
        {
          "internalType": "uint256",
          "name": "_examID",
          "type": "uint256"
        }
      ],
      "name": "getExam",
      "outputs": [
        {
          "components": [
            {
              "internalType": "bool",
              "name": "isExist",
              "type": "bool"
            },
            {
              "internalType": "bool",
              "name": "isExpired",
              "type": "bool"
            },
            {
              "internalType": "string",
              "name": "startTime",
              "type": "string"
            },
            {
              "internalType": "string",
              "name": "endTime",
              "type": "string"
            },
            {
              "internalType": "string",
              "name": "markerPK",
              "type": "string"
            },
            {
              "internalType": "string",
              "name": "description",
              "type": "string"
            },
            {
              "internalType": "string",
              "name": "examPaperHash",
              "type": "string"
            },
            {
              "components": [
                {
                  "internalType": "address",
                  "name": "studentAddr",
                  "type": "address"
                },
                {
                  "internalType": "string",
                  "name": "studentPK",
                  "type": "string"
                }
              ],
              "internalType": "struct ExamManagement.student[]",
              "name": "students",
              "type": "tuple[]"
            }
          ],
          "internalType": "struct ExamManagement.exam",
          "name": "",
          "type": "tuple"
        }
      ],
      "stateMutability": "view",
      "type": "function",
      "constant": true
    },
    {
      "inputs": [],
      "name": "getExamIDs",
      "outputs": [
        {
          "internalType": "uint256[]",
          "name": "",
          "type": "uint256[]"
        }
      ],
      "stateMutability": "view",
      "type": "function",
      "constant": true
    },
    {
      "inputs": [
        {
          "internalType": "uint256",
          "name": "_examID",
          "type": "uint256"
        },
        {
          "internalType": "uint256[]",
          "name": "_studentIDs",
          "type": "uint256[]"
        },
        {
          "internalType": "string",
          "name": "_startTime",
          "type": "string"
        },
        {
          "internalType": "string",
          "name": "_endTime",
          "type": "string"
        },
        {
          "internalType": "string",
          "name": "_markerPK",
          "type": "string"
        },
        {
          "internalType": "string",
          "name": "_description",
          "type": "string"
        }
      ],
      "name": "updateExam",
      "outputs": [],
      "stateMutability": "nonpayable",
      "type": "function"
    },
    {
      "inputs": [
        {
          "internalType": "uint256",
          "name": "_examID",
          "type": "uint256"
        },
        {
          "internalType": "string",
          "name": "_examPaperHash",
          "type": "string"
        }
      ],
      "name": "updateExamPaper",
      "outputs": [],
      "stateMutability": "nonpayable",
      "type": "function"
    },
    {
      "inputs": [
        {
          "internalType": "uint256",
          "name": "_examID",
          "type": "uint256"
        },
        {
          "internalType": "bool",
          "name": "_isExpired",
          "type": "bool"
        }
      ],
      "name": "setExpired",
      "outputs": [],
      "stateMutability": "nonpayable",
      "type": "function"
    },
    {
      "inputs": [
        {
          "internalType": "uint256",
          "name": "_examID",
          "type": "uint256"
        }
      ],
      "name": "deleteExam",
      "outputs": [],
      "stateMutability": "nonpayable",
      "type": "function"
    }
  ],
  "bytecode": "0x608060405234801561001057600080fd5b50336000806101000a81548173ffffffffffffffffffffffffffffffffffffffff021916908373ffffffffffffffffffffffffffffffffffffffff160217905550612afb806100606000396000f3fe608060405234801561001057600080fd5b50600436106100a95760003560e01c8063d4c559b011610071578063d4c559b01461013e578063d57d1db31461015c578063d625ed3614610178578063f09a401614610194578063f97563d5146101b0578063fba91c1a146101e0576100a9565b806330682f39146100ae578063608dec8e146100cc5780639b4cd9ba146100e8578063c04ef78114610106578063c8ff052114610122575b600080fd5b6100b66101fc565b6040516100c391906118ce565b60405180910390f35b6100e660048036038101906100e19190611933565b610226565b005b6100f061048d565b6040516100fd91906118ce565b60405180910390f35b610120600480360381019061011b919061198c565b6104b7565b005b61013c600480360381019061013791906119f1565b6105dd565b005b6101466107fa565b6040516101539190611aef565b60405180910390f35b6101766004803603810190610171919061198c565b610852565b005b610192600480360381019061018d9190611c57565b610978565b005b6101ae60048036038101906101a99190611cb3565b610b7e565b005b6101ca60048036038101906101c59190611933565b610c92565b6040516101d79190611f6b565b60405180910390f35b6101fa60048036038101906101f59190612055565b611181565b005b6000600260009054906101000a900473ffffffffffffffffffffffffffffffffffffffff16905090565b60011515600160009054906101000a900473ffffffffffffffffffffffffffffffffffffffff1673ffffffffffffffffffffffffffffffffffffffff16632f54bf6e336040518263ffffffff1660e01b815260040161028591906118ce565b602060405180830381865afa1580156102a2573d6000803e3d6000fd5b505050506040513d601f19601f820116820180604052508101906102c69190612183565b151514610308576040517f08c379a00000000000000000000000000000000000000000000000000000000081526004016102ff90612233565b60405180910390fd5b6000810361034b576040517f08c379a00000000000000000000000000000000000000000000000000000000081526004016103429061229f565b60405180910390fd5b600015156003600083815260200190815260200160002060000160009054906101000a900460ff161515036103b5576040517f08c379a00000000000000000000000000000000000000000000000000000000081526004016103ac9061230b565b60405180910390fd5b60036000828152602001908152602001600020600080820160006101000a81549060ff02191690556000820160016101000a81549060ff02191690556001820160006104019190611745565b6002820160006104119190611745565b6003820160006104219190611745565b6004820160006104319190611745565b6005820160006104419190611745565b6006820160006104519190611785565b50507f8f271d7f3e2723b67a0a6a2a01514ea7ce1c704a39da140de0839442347cc57181604051610482919061233a565b60405180910390a150565b6000600160009054906101000a900473ffffffffffffffffffffffffffffffffffffffff16905090565b60011515600160009054906101000a900473ffffffffffffffffffffffffffffffffffffffff1673ffffffffffffffffffffffffffffffffffffffff16632f54bf6e336040518263ffffffff1660e01b815260040161051691906118ce565b602060405180830381865afa158015610533573d6000803e3d6000fd5b505050506040513d601f19601f820116820180604052508101906105579190612183565b151514610599576040517f08c379a000000000000000000000000000000000000000000000000000000000815260040161059090612233565b60405180910390fd5b80600260006101000a81548173ffffffffffffffffffffffffffffffffffffffff021916908373ffffffffffffffffffffffffffffffffffffffff16021790555050565b60011515600160009054906101000a900473ffffffffffffffffffffffffffffffffffffffff1673ffffffffffffffffffffffffffffffffffffffff16632f54bf6e336040518263ffffffff1660e01b815260040161063c91906118ce565b602060405180830381865afa158015610659573d6000803e3d6000fd5b505050506040513d601f19601f8201168201806040525081019061067d9190612183565b1515146106bf576040517f08c379a00000000000000000000000000000000000000000000000000000000081526004016106b690612233565b60405180910390fd5b60008203610702576040517f08c379a00000000000000000000000000000000000000000000000000000000081526004016106f99061229f565b60405180910390fd5b600015156003600084815260200190815260200160002060000160009054906101000a900460ff1615150361076c576040517f08c379a00000000000000000000000000000000000000000000000000000000081526004016107639061230b565b60405180910390fd5b806003600084815260200190815260200160002060000160016101000a81548160ff0219169083151502179055507f9353a2f10fb1a19ceb84f4979d32ad4a3c05f94a9991631447daf08767e60b03826003600085815260200190815260200160002060000160019054906101000a900460ff166040516107ee929190612364565b60405180910390a15050565b6060600480548060200260200160405190810160405280929190818152602001828054801561084857602002820191906000526020600020905b815481526020019060010190808311610834575b5050505050905090565b60011515600160009054906101000a900473ffffffffffffffffffffffffffffffffffffffff1673ffffffffffffffffffffffffffffffffffffffff16632f54bf6e336040518263ffffffff1660e01b81526004016108b191906118ce565b602060405180830381865afa1580156108ce573d6000803e3d6000fd5b505050506040513d601f19601f820116820180604052508101906108f29190612183565b151514610934576040517f08c379a000000000000000000000000000000000000000000000000000000000815260040161092b90612233565b60405180910390fd5b80600160006101000a81548173ffffffffffffffffffffffffffffffffffffffff021916908373ffffffffffffffffffffffffffffffffffffffff16021790555050565b60011515600160009054906101000a900473ffffffffffffffffffffffffffffffffffffffff1673ffffffffffffffffffffffffffffffffffffffff16632f54bf6e336040518263ffffffff1660e01b81526004016109d791906118ce565b602060405180830381865afa1580156109f4573d6000803e3d6000fd5b505050506040513d601f19601f82011682018060405250810190610a189190612183565b151514610a5a576040517f08c379a0000000000000000000000000000000000000000000000000000000008152600401610a5190612233565b60405180910390fd5b600015156003600084815260200190815260200160002060000160009054906101000a900460ff16151503610ac4576040517f08c379a0000000000000000000000000000000000000000000000000000000008152600401610abb906123d9565b60405180910390fd5b6000815111610b08576040517f08c379a0000000000000000000000000000000000000000000000000000000008152600401610aff90612445565b60405180910390fd5b80600360008481526020019081526020016000206005019081610b2b9190612671565b507f087a04b3c425b04ec596974d707b03c85438b04d8ef9ba364267837b4200d3df8260036000858152602001908152602001600020600501604051610b729291906127c7565b60405180910390a15050565b3373ffffffffffffffffffffffffffffffffffffffff1660008054906101000a900473ffffffffffffffffffffffffffffffffffffffff1673ffffffffffffffffffffffffffffffffffffffff1614610c0c576040517f08c379a0000000000000000000000000000000000000000000000000000000008152600401610c0390612233565b60405180910390fd5b81600160006101000a81548173ffffffffffffffffffffffffffffffffffffffff021916908373ffffffffffffffffffffffffffffffffffffffff16021790555080600260006101000a81548173ffffffffffffffffffffffffffffffffffffffff021916908373ffffffffffffffffffffffffffffffffffffffff1602179055505050565b610c9a6117a9565b600115156003600084815260200190815260200160002060000160009054906101000a900460ff16151514610d04576040517f08c379a0000000000000000000000000000000000000000000000000000000008152600401610cfb90612843565b60405180910390fd5b60036000838152602001908152602001600020604051806101000160405290816000820160009054906101000a900460ff161515151581526020016000820160019054906101000a900460ff16151515158152602001600182018054610d6990612494565b80601f0160208091040260200160405190810160405280929190818152602001828054610d9590612494565b8015610de25780601f10610db757610100808354040283529160200191610de2565b820191906000526020600020905b815481529060010190602001808311610dc557829003601f168201915b50505050508152602001600282018054610dfb90612494565b80601f0160208091040260200160405190810160405280929190818152602001828054610e2790612494565b8015610e745780601f10610e4957610100808354040283529160200191610e74565b820191906000526020600020905b815481529060010190602001808311610e5757829003601f168201915b50505050508152602001600382018054610e8d90612494565b80601f0160208091040260200160405190810160405280929190818152602001828054610eb990612494565b8015610f065780601f10610edb57610100808354040283529160200191610f06565b820191906000526020600020905b815481529060010190602001808311610ee957829003601f168201915b50505050508152602001600482018054610f1f90612494565b80601f0160208091040260200160405190810160405280929190818152602001828054610f4b90612494565b8015610f985780601f10610f6d57610100808354040283529160200191610f98565b820191906000526020600020905b815481529060010190602001808311610f7b57829003601f168201915b50505050508152602001600582018054610fb190612494565b80601f0160208091040260200160405190810160405280929190818152602001828054610fdd90612494565b801561102a5780601f10610fff5761010080835404028352916020019161102a565b820191906000526020600020905b81548152906001019060200180831161100d57829003601f168201915b5050505050815260200160068201805480602002602001604051908101604052809291908181526020016000905b8282101561117257838290600052602060002090600202016040518060400160405290816000820160009054906101000a900473ffffffffffffffffffffffffffffffffffffffff1673ffffffffffffffffffffffffffffffffffffffff1673ffffffffffffffffffffffffffffffffffffffff1681526020016001820180546110e190612494565b80601f016020809104026020016040519081016040528092919081815260200182805461110d90612494565b801561115a5780601f1061112f5761010080835404028352916020019161115a565b820191906000526020600020905b81548152906001019060200180831161113d57829003601f168201915b50505050508152505081526020019060010190611058565b50505050815250509050919050565b60011515600160009054906101000a900473ffffffffffffffffffffffffffffffffffffffff1673ffffffffffffffffffffffffffffffffffffffff16632f54bf6e336040518263ffffffff1660e01b81526004016111e091906118ce565b602060405180830381865afa1580156111fd573d6000803e3d6000fd5b505050506040513d601f19601f820116820180604052508101906112219190612183565b151514611263576040517f08c379a000000000000000000000000000000000000000000000000000000000815260040161125a90612233565b60405180910390fd5b600086036112a6576040517f08c379a000000000000000000000000000000000000000000000000000000000815260040161129d906128af565b60405180910390fd5b60008551116112ea576040517f08c379a00000000000000000000000000000000000000000000000000000000081526004016112e190612445565b60405180910390fd5b600084511161132e576040517f08c379a000000000000000000000000000000000000000000000000000000000815260040161132590612445565b60405180910390fd5b6000835111611372576040517f08c379a000000000000000000000000000000000000000000000000000000000815260040161136990612445565b60405180910390fd5b60008251116113b6576040517f08c379a00000000000000000000000000000000000000000000000000000000081526004016113ad90612445565b60405180910390fd5b600015156003600088815260200190815260200160002060000160009054906101000a900460ff1615150361143e57600486908060018154018082558091505060019003906000526020600020016000909190919091505560016003600088815260200190815260200160002060000160006101000a81548160ff0219169083151502179055505b836003600088815260200190815260200160002060010190816114619190612671565b50826003600088815260200190815260200160002060020190816114859190612671565b50816003600088815260200190815260200160002060030190816114a99190612671565b50806003600088815260200190815260200160002060040190816114cd9190612671565b5060008551905060005b818110156115fa576114e76117f2565b61150a8883815181106114fd576114fc6128cf565b5b6020026020010151611697565b82600001836020018290528273ffffffffffffffffffffffffffffffffffffffff1673ffffffffffffffffffffffffffffffffffffffff168152505050600360008a815260200190815260200160002060060181908060018154018082558091505060019003906000526020600020906002020160009091909190915060008201518160000160006101000a81548173ffffffffffffffffffffffffffffffffffffffff021916908373ffffffffffffffffffffffffffffffffffffffff16021790555060208201518160010190816115e39190612671565b5050505080806115f29061292d565b9150506114d7565b507f36724b87804290b24fab29dc5a243526752f9e0a01430eba6c7aa6edf68254ce87600360008a8152602001908152602001600020600101600360008b8152602001908152602001600020600201600360008c8152602001908152602001600020600301600360008d8152602001908152602001600020600401604051611686959493929190612975565b60405180910390a150505050505050565b60006060600260009054906101000a900473ffffffffffffffffffffffffffffffffffffffff1673ffffffffffffffffffffffffffffffffffffffff1663642f9163846040518263ffffffff1660e01b81526004016116f6919061233a565b600060405180830381865afa158015611713573d6000803e3d6000fd5b505050506040513d6000823e3d601f19601f8201168201806040525081019061173c9190612a69565b91509150915091565b50805461175190612494565b6000825580601f106117635750611782565b601f0160209004906000526020600020908101906117819190611822565b5b50565b50805460008255600202906000526020600020908101906117a6919061183f565b50565b6040518061010001604052806000151581526020016000151581526020016060815260200160608152602001606081526020016060815260200160608152602001606081525090565b6040518060400160405280600073ffffffffffffffffffffffffffffffffffffffff168152602001606081525090565b5b8082111561183b576000816000905550600101611823565b5090565b5b8082111561188957600080820160006101000a81549073ffffffffffffffffffffffffffffffffffffffff02191690556001820160006118809190611745565b50600201611840565b5090565b600073ffffffffffffffffffffffffffffffffffffffff82169050919050565b60006118b88261188d565b9050919050565b6118c8816118ad565b82525050565b60006020820190506118e360008301846118bf565b92915050565b6000604051905090565b600080fd5b600080fd5b6000819050919050565b611910816118fd565b811461191b57600080fd5b50565b60008135905061192d81611907565b92915050565b600060208284031215611949576119486118f3565b5b60006119578482850161191e565b91505092915050565b611969816118ad565b811461197457600080fd5b50565b60008135905061198681611960565b92915050565b6000602082840312156119a2576119a16118f3565b5b60006119b084828501611977565b91505092915050565b60008115159050919050565b6119ce816119b9565b81146119d957600080fd5b50565b6000813590506119eb816119c5565b92915050565b60008060408385031215611a0857611a076118f3565b5b6000611a168582860161191e565b9250506020611a27858286016119dc565b9150509250929050565b600081519050919050565b600082825260208201905092915050565b6000819050602082019050919050565b611a66816118fd565b82525050565b6000611a788383611a5d565b60208301905092915050565b6000602082019050919050565b6000611a9c82611a31565b611aa68185611a3c565b9350611ab183611a4d565b8060005b83811015611ae2578151611ac98882611a6c565b9750611ad483611a84565b925050600181019050611ab5565b5085935050505092915050565b60006020820190508181036000830152611b098184611a91565b905092915050565b600080fd5b600080fd5b6000601f19601f8301169050919050565b7f4e487b7100000000000000000000000000000000000000000000000000000000600052604160045260246000fd5b611b6482611b1b565b810181811067ffffffffffffffff82111715611b8357611b82611b2c565b5b80604052505050565b6000611b966118e9565b9050611ba28282611b5b565b919050565b600067ffffffffffffffff821115611bc257611bc1611b2c565b5b611bcb82611b1b565b9050602081019050919050565b82818337600083830152505050565b6000611bfa611bf584611ba7565b611b8c565b905082815260208101848484011115611c1657611c15611b16565b5b611c21848285611bd8565b509392505050565b600082601f830112611c3e57611c3d611b11565b5b8135611c4e848260208601611be7565b91505092915050565b60008060408385031215611c6e57611c6d6118f3565b5b6000611c7c8582860161191e565b925050602083013567ffffffffffffffff811115611c9d57611c9c6118f8565b5b611ca985828601611c29565b9150509250929050565b60008060408385031215611cca57611cc96118f3565b5b6000611cd885828601611977565b9250506020611ce985828601611977565b9150509250929050565b611cfc816119b9565b82525050565b600081519050919050565b600082825260208201905092915050565b60005b83811015611d3c578082015181840152602081019050611d21565b83811115611d4b576000848401525b50505050565b6000611d5c82611d02565b611d668185611d0d565b9350611d76818560208601611d1e565b611d7f81611b1b565b840191505092915050565b600081519050919050565b600082825260208201905092915050565b6000819050602082019050919050565b611dbf816118ad565b82525050565b6000604083016000830151611ddd6000860182611db6565b5060208301518482036020860152611df58282611d51565b9150508091505092915050565b6000611e0e8383611dc5565b905092915050565b6000602082019050919050565b6000611e2e82611d8a565b611e388185611d95565b935083602082028501611e4a85611da6565b8060005b85811015611e865784840389528151611e678582611e02565b9450611e7283611e16565b925060208a01995050600181019050611e4e565b50829750879550505050505092915050565b600061010083016000830151611eb16000860182611cf3565b506020830151611ec46020860182611cf3565b5060408301518482036040860152611edc8282611d51565b91505060608301518482036060860152611ef68282611d51565b91505060808301518482036080860152611f108282611d51565b91505060a083015184820360a0860152611f2a8282611d51565b91505060c083015184820360c0860152611f448282611d51565b91505060e083015184820360e0860152611f5e8282611e23565b9150508091505092915050565b60006020820190508181036000830152611f858184611e98565b905092915050565b600067ffffffffffffffff821115611fa857611fa7611b2c565b5b602082029050602081019050919050565b600080fd5b6000611fd1611fcc84611f8d565b611b8c565b90508083825260208201905060208402830185811115611ff457611ff3611fb9565b5b835b8181101561201d5780612009888261191e565b845260208401935050602081019050611ff6565b5050509392505050565b600082601f83011261203c5761203b611b11565b5b813561204c848260208601611fbe565b91505092915050565b60008060008060008060c08789031215612072576120716118f3565b5b600061208089828a0161191e565b965050602087013567ffffffffffffffff8111156120a1576120a06118f8565b5b6120ad89828a01612027565b955050604087013567ffffffffffffffff8111156120ce576120cd6118f8565b5b6120da89828a01611c29565b945050606087013567ffffffffffffffff8111156120fb576120fa6118f8565b5b61210789828a01611c29565b935050608087013567ffffffffffffffff811115612128576121276118f8565b5b61213489828a01611c29565b92505060a087013567ffffffffffffffff811115612155576121546118f8565b5b61216189828a01611c29565b9150509295509295509295565b60008151905061217d816119c5565b92915050565b600060208284031215612199576121986118f3565b5b60006121a78482850161216e565b91505092915050565b600082825260208201905092915050565b7f4f776e657261626c653a2063616c6c6572206973206e6f7420746865206f776e60008201527f6572000000000000000000000000000000000000000000000000000000000000602082015250565b600061221d6022836121b0565b9150612228826121c1565b604082019050919050565b6000602082019050818103600083015261224c81612210565b9050919050565b7f6578616d20494420697320656d70747921000000000000000000000000000000600082015250565b60006122896011836121b0565b915061229482612253565b602082019050919050565b600060208201905081810360008301526122b88161227c565b9050919050565b7f6578616d206e6f74206578697374732100000000000000000000000000000000600082015250565b60006122f56010836121b0565b9150612300826122bf565b602082019050919050565b60006020820190508181036000830152612324816122e8565b9050919050565b612334816118fd565b82525050565b600060208201905061234f600083018461232b565b92915050565b61235e816119b9565b82525050565b6000604082019050612379600083018561232b565b6123866020830184612355565b9392505050565b7f4578616d20646f6573206e6f7420657869737473210000000000000000000000600082015250565b60006123c36015836121b0565b91506123ce8261238d565b602082019050919050565b600060208201905081810360008301526123f2816123b6565b9050919050565b7f73747564656e74207075626c6963206b657920697320656d7074792100000000600082015250565b600061242f601c836121b0565b915061243a826123f9565b602082019050919050565b6000602082019050818103600083015261245e81612422565b9050919050565b7f4e487b7100000000000000000000000000000000000000000000000000000000600052602260045260246000fd5b600060028204905060018216806124ac57607f821691505b6020821081036124bf576124be612465565b5b50919050565b60008190508160005260206000209050919050565b60006020601f8301049050919050565b600082821b905092915050565b6000600883026125277fffffffffffffffffffffffffffffffffffffffffffffffffffffffffffffffff826124ea565b61253186836124ea565b95508019841693508086168417925050509392505050565b6000819050919050565b600061256e612569612564846118fd565b612549565b6118fd565b9050919050565b6000819050919050565b61258883612553565b61259c61259482612575565b8484546124f7565b825550505050565b600090565b6125b16125a4565b6125bc81848461257f565b505050565b5b818110156125e0576125d56000826125a9565b6001810190506125c2565b5050565b601f821115612625576125f6816124c5565b6125ff846124da565b8101602085101561260e578190505b61262261261a856124da565b8301826125c1565b50505b505050565b600082821c905092915050565b60006126486000198460080261262a565b1980831691505092915050565b60006126618383612637565b9150826002028217905092915050565b61267a82611d02565b67ffffffffffffffff81111561269357612692611b2c565b5b61269d8254612494565b6126a88282856125e4565b600060209050601f8311600181146126db57600084156126c9578287015190505b6126d38582612655565b86555061273b565b601f1984166126e9866124c5565b60005b82811015612711578489015182556001820191506020850194506020810190506126ec565b8683101561272e578489015161272a601f891682612637565b8355505b6001600288020188555050505b505050505050565b6000815461275081612494565b61275a81866121b0565b94506001821660008114612775576001811461278b576127be565b60ff1983168652811515602002860193506127be565b612794856124c5565b60005b838110156127b657815481890152600182019150602081019050612797565b808801955050505b50505092915050565b60006040820190506127dc600083018561232b565b81810360208301526127ee8184612743565b90509392505050565b7f6578616d20646f6573206e6f7420657869737421000000000000000000000000600082015250565b600061282d6014836121b0565b9150612838826127f7565b602082019050919050565b6000602082019050818103600083015261285c81612820565b9050919050565b7f73747564656e7420494420697320656d70747921000000000000000000000000600082015250565b60006128996014836121b0565b91506128a482612863565b602082019050919050565b600060208201905081810360008301526128c88161288c565b9050919050565b7f4e487b7100000000000000000000000000000000000000000000000000000000600052603260045260246000fd5b7f4e487b7100000000000000000000000000000000000000000000000000000000600052601160045260246000fd5b6000612938826118fd565b91507fffffffffffffffffffffffffffffffffffffffffffffffffffffffffffffffff820361296a576129696128fe565b5b600182019050919050565b600060a08201905061298a600083018861232b565b818103602083015261299c8187612743565b905081810360408301526129b08186612743565b905081810360608301526129c48185612743565b905081810360808301526129d88184612743565b90509695505050505050565b6000815190506129f381611960565b92915050565b6000612a0c612a0784611ba7565b611b8c565b905082815260208101848484011115612a2857612a27611b16565b5b612a33848285611d1e565b509392505050565b600082601f830112612a5057612a4f611b11565b5b8151612a608482602086016129f9565b91505092915050565b60008060408385031215612a8057612a7f6118f3565b5b6000612a8e858286016129e4565b925050602083015167ffffffffffffffff811115612aaf57612aae6118f8565b5b612abb85828601612a3b565b915050925092905056fea2646970667358221220e0f1d5a63792b320805bbbef840d5c6c07f528f1d76b46218100210429473cc864736f6c634300080f0033",
  "immutableReferences": {},
  "source": "\n// import \"./Ownable.sol\"; // Path to the imported library\n\npragma solidity >=0.7.0 <0.9.0;\n\n// SPDX-License-Identifier: MIT\n\n// interface of university management contract.\ninterface UniversityInterfaceExam{\n\n    // check if it's the university address.\n    function isOwner(address owner) external view returns (bool);\n}\n\n// interface of student management contract.\ninterface StudentInterface{\n    \n    // get the student address and public key by ID.\n    function getStudent(uint _studentID) external view returns (address, string memory);\n}\n\n\ncontract ExamManagement{\n\n    address owner;\n    address universityContract;\n    address studentContract;\n\n    // address and public key of a student.\n    struct student{\n        address studentAddr;\n        string studentPK;\n    }\n\n    // exam infomation.\n    struct exam {\n        bool isExist;\n        bool isExpired;\n        string startTime;\n        string endTime;\n        string markerPK;\n        string description;\n        string examPaperHash;\n        student[] students;\n    }\n\n    // map exam ID to exam details and invited students' information.\n    mapping (uint => exam) private exams;\n\n    // all exam IDs.\n    uint [] examIDs;\n\n    // Emits an event when a new exam is updated, you can use this to update remote exam lists.\n    event examUpdated(uint examID, string startTime, string endTime, string markerPK, string description);\n\n    // Emits an event when an exam is expired, you can use this to update remote exam lists.\n    event examStatusChanged(uint examID, bool isExpired);\n\n    // Emits an event when an exam is deleted, you can use this to update remote exam lists.\n    event examDeleted(uint examID);\n\n    // Emits an event when an exam paper is updated, you can use this to update remote exam lists.\n    event examPaperUpdated(uint examID, string examPaperHash);\n\n    constructor() {\n        owner = msg.sender;\n    }\n\n    // modifier: only owner (university) address can call the 'onlyOwner' function.\n    modifier onlyOwner() {\n        require(UniversityInterfaceExam(universityContract).isOwner(msg.sender) == true, \"Ownerable: caller is not the owner\");\n        _;\n    }\n\n    // initial set up of contract addresses of university management and student management.\n    function init(address _universityContract, address _studentContract) public{\n        require(owner == msg.sender, \"Ownerable: caller is not the owner\");\n        universityContract = _universityContract;\n        studentContract = _studentContract;\n    }\n\n    // change contract addresses of university management.\n    function changeUniversityContractAddr(address _universityContract) public onlyOwner{\n        universityContract = _universityContract;\n    }\n    \n    // change contract addresses of student management.\n    function changeStudentContractAddr(address _studentContract) public onlyOwner{\n        studentContract = _studentContract;\n    }\n\n    // show university management contract address.\n    function showUniversityContractAddr() public view returns(address){\n        return universityContract;\n    }\n    \n    // show student management contract address.\n    function showStudentContractAddr() public view returns(address){\n        return studentContract;\n    }\n\n    // get exam infomation by ID.\n    function getExam(uint _examID) public view returns (exam memory){\n        \n        // require the exam exists.\n        require(exams[_examID].isExist == true, \"exam does not exist!\");\n\n        return exams[_examID];\n    }\n\n    // get all exam IDs\n    function getExamIDs() external view returns (uint [] memory){\n\n        return examIDs;\n    }\n\n    // update or add exam\n    function updateExam(uint _examID, uint[] memory _studentIDs, string memory _startTime, string memory _endTime, string memory _markerPK, string memory _description) public onlyOwner{\n\n        // require the exam ID to not be empty.\n        require(_examID != 0, \"student ID is empty!\");\n\n        // require the student IDs to not be empty.\n        require(_studentIDs.length > 0, \"student public key is empty!\");\n\n        // require the start time to not be empty.\n        require(bytes(_startTime).length > 0, \"student public key is empty!\");\n\n        // require the end time to not be empty.\n        require(bytes(_endTime).length > 0, \"student public key is empty!\");\n\n        // require the marker public key to not be empty.\n        require(bytes(_markerPK).length > 0, \"student public key is empty!\");\n\n        // record exam IDs\n        if(exams[_examID].isExist == false){\n            examIDs.push(_examID);\n            exams[_examID].isExist = true;\n        }\n\n        // update the exam info to the storage.\n        exams[_examID].startTime = _startTime;\n        exams[_examID].endTime = _endTime;\n        exams[_examID].markerPK = _markerPK;\n        exams[_examID].description = _description;\n\n        // find all student addresses and public keys by ID\n        uint length = _studentIDs.length;\n        for (uint i = 0; i < length; i++) {\n            student memory newStudent;\n            (newStudent.studentAddr, newStudent.studentPK) = findStudentPK(_studentIDs[i]);\n            exams[_examID].students.push(newStudent);\n        }\n\n        // emits exam updated event.\n        emit examUpdated(_examID, exams[_examID].startTime, exams[_examID].endTime, exams[_examID].markerPK, exams[_examID].description);\n    }\n\n    // find student public key by ID\n    function findStudentPK(uint _studentID) private view returns(address, string memory){\n\n        return StudentInterface(studentContract).getStudent(_studentID);\n    }\n\n// update or add exam\n    function updateExamPaper(uint _examID, string memory _examPaperHash) public onlyOwner{\n\n        // require the exam ID exists.\n        require(exams[_examID].isExist != false, \"Exam does not exists!\");\n\n        // require the student IDs to not be empty.\n        require(bytes(_examPaperHash).length > 0, \"student public key is empty!\");\n\n        // update the exam info to the storage.\n        exams[_examID].examPaperHash = _examPaperHash;\n\n        // emits exam updated event.\n        emit examPaperUpdated(_examID, exams[_examID].examPaperHash);\n    }\n\n    function setExpired(uint _examID, bool _isExpired) public onlyOwner{\n\n        // require the exam ID to not be empty.\n        require(_examID != 0, \"exam ID is empty!\");\n        \n        // require the exam exists.\n        require(exams[_examID].isExist != false, \"exam not exists!\");\n\n        // set the exam status.\n        exams[_examID].isExpired = _isExpired;\n\n        // emits exam status changed event.\n        emit examStatusChanged(_examID, exams[_examID].isExpired);\n    }\n\n    // delete exam\n    function deleteExam(uint _examID) public onlyOwner{\n\n        // require the exam ID to not be empty.\n        require(_examID != 0, \"exam ID is empty!\");\n        \n        // require the exam exists.\n        require(exams[_examID].isExist != false, \"exam not exists!\");\n\n        delete exams[_examID];\n        \n        // delete the exam info.\n        // exams[_examID].isExist = false;\n        // exams[_examID].isExpired = false;\n        // exams[_examID].startTime = \"\";\n        // exams[_examID].endTime = \"\";\n        // exams[_examID].markerPK = \"\";\n        // exams[_examID].description = \"\";\n\n        // delete exams[_examID].students;\n\n        // uint length = exams[_examID].students.length;\n        // for (uint i = 0; i < length; i++) {\n        //     exams[_examID].students.pop();\n        // }\n\n        // emits exam deleted event.\n        emit examDeleted(_examID);\n    }\n}\n",
  "sourcePath": "/Users/reol/Documents/CyberSecurity/Msc project/code/OnlineExam/contracts/ExamManagement.sol",
  "compiler": {
    "name": "solc",
    "version": "0.8.15+commit.e14f2714.Emscripten.clang"
  },
  "schemaVersion": "3.4.8",
  "updatedAt": "2022-08-11T20:14:41.397Z",
  "networkType": "ethereum",
  "devdoc": {
    "kind": "dev",
    "methods": {},
    "version": 1
  },
  "userdoc": {
    "kind": "user",
    "methods": {},
    "version": 1
  }
}