{
  "contractName": "StudentManagement",
  "abi": [
    {
      "inputs": [],
      "stateMutability": "nonpayable",
      "type": "constructor"
    },
    {
      "anonymous": false,
      "inputs": [
        {
          "indexed": false,
          "internalType": "uint256",
          "name": "studentID",
          "type": "uint256"
        },
        {
          "indexed": false,
          "internalType": "address",
          "name": "studentAddr",
          "type": "address"
        },
        {
          "indexed": false,
          "internalType": "string",
          "name": "studentPK",
          "type": "string"
        }
      ],
      "name": "studentAdded",
      "type": "event"
    },
    {
      "inputs": [
        {
          "internalType": "address",
          "name": "_owner",
          "type": "address"
        }
      ],
      "name": "init",
      "outputs": [],
      "stateMutability": "nonpayable",
      "type": "function"
    },
    {
      "inputs": [
        {
          "internalType": "address",
          "name": "_owner",
          "type": "address"
        }
      ],
      "name": "changeInit",
      "outputs": [],
      "stateMutability": "nonpayable",
      "type": "function"
    },
    {
      "inputs": [
        {
          "internalType": "address",
          "name": "_owner",
          "type": "address"
        }
      ],
      "name": "test",
      "outputs": [
        {
          "internalType": "bool",
          "name": "",
          "type": "bool"
        }
      ],
      "stateMutability": "view",
      "type": "function"
    },
    {
      "inputs": [],
      "name": "test1",
      "outputs": [
        {
          "internalType": "address",
          "name": "",
          "type": "address"
        }
      ],
      "stateMutability": "view",
      "type": "function"
    },
    {
      "inputs": [
        {
          "internalType": "uint256",
          "name": "_studentID",
          "type": "uint256"
        }
      ],
      "name": "getStudent",
      "outputs": [
        {
          "components": [
            {
              "internalType": "address",
              "name": "studentAddr",
              "type": "address"
            },
            {
              "internalType": "string",
              "name": "studentPK",
              "type": "string"
            }
          ],
          "internalType": "struct StudentManagement.student[]",
          "name": "",
          "type": "tuple[]"
        }
      ],
      "stateMutability": "view",
      "type": "function"
    },
    {
      "inputs": [
        {
          "internalType": "uint256",
          "name": "_studentID",
          "type": "uint256"
        },
        {
          "internalType": "address",
          "name": "_studentAddr",
          "type": "address"
        },
        {
          "internalType": "string",
          "name": "_studentPK",
          "type": "string"
        }
      ],
      "name": "addStudent",
      "outputs": [],
      "stateMutability": "nonpayable",
      "type": "function"
    }
  ],
  "bytecode": "0x608060405234801561001057600080fd5b50336000806101000a81548173ffffffffffffffffffffffffffffffffffffffff021916908373ffffffffffffffffffffffffffffffffffffffff1602179055506112ef806100606000396000f3fe608060405234801561001057600080fd5b50600436106100625760003560e01c806319ab453c14610067578063514860dc14610083578063642f91631461009f5780636b59084d146100cf578063bb29998e146100ed578063cfa5e5cc1461011d575b600080fd5b610081600480360381019061007c91906108b8565b610139565b005b61009d600480360381019061009891906108b8565b61020b565b005b6100b960048036038101906100b4919061091b565b610331565b6040516100c69190610aef565b60405180910390f35b6100d761048b565b6040516100e49190610b20565b60405180910390f35b610107600480360381019061010291906108b8565b6104b5565b6040516101149190610b56565b60405180910390f35b61013760048036038101906101329190610ca6565b61055a565b005b3373ffffffffffffffffffffffffffffffffffffffff1660008054906101000a900473ffffffffffffffffffffffffffffffffffffffff1673ffffffffffffffffffffffffffffffffffffffff16146101c7576040517f08c379a00000000000000000000000000000000000000000000000000000000081526004016101be90610d98565b60405180910390fd5b80600160006101000a81548173ffffffffffffffffffffffffffffffffffffffff021916908373ffffffffffffffffffffffffffffffffffffffff16021790555050565b60011515600160009054906101000a900473ffffffffffffffffffffffffffffffffffffffff1673ffffffffffffffffffffffffffffffffffffffff16632f54bf6e336040518263ffffffff1660e01b815260040161026a9190610b20565b602060405180830381865afa158015610287573d6000803e3d6000fd5b505050506040513d601f19601f820116820180604052508101906102ab9190610de4565b1515146102ed576040517f08c379a00000000000000000000000000000000000000000000000000000000081526004016102e490610d98565b60405180910390fd5b80600160006101000a81548173ffffffffffffffffffffffffffffffffffffffff021916908373ffffffffffffffffffffffffffffffffffffffff16021790555050565b606060026000838152602001908152602001600020805480602002602001604051908101604052809291908181526020016000905b8282101561048057838290600052602060002090600202016040518060400160405290816000820160009054906101000a900473ffffffffffffffffffffffffffffffffffffffff1673ffffffffffffffffffffffffffffffffffffffff1673ffffffffffffffffffffffffffffffffffffffff1681526020016001820180546103ef90610e40565b80601f016020809104026020016040519081016040528092919081815260200182805461041b90610e40565b80156104685780601f1061043d57610100808354040283529160200191610468565b820191906000526020600020905b81548152906001019060200180831161044b57829003601f168201915b50505050508152505081526020019060010190610366565b505050509050919050565b6000600160009054906101000a900473ffffffffffffffffffffffffffffffffffffffff16905090565b6000600160009054906101000a900473ffffffffffffffffffffffffffffffffffffffff1673ffffffffffffffffffffffffffffffffffffffff16632f54bf6e836040518263ffffffff1660e01b81526004016105129190610b20565b602060405180830381865afa15801561052f573d6000803e3d6000fd5b505050506040513d601f19601f820116820180604052508101906105539190610de4565b9050919050565b60011515600160009054906101000a900473ffffffffffffffffffffffffffffffffffffffff1673ffffffffffffffffffffffffffffffffffffffff16632f54bf6e336040518263ffffffff1660e01b81526004016105b99190610b20565b602060405180830381865afa1580156105d6573d6000803e3d6000fd5b505050506040513d601f19601f820116820180604052508101906105fa9190610de4565b15151461063c576040517f08c379a000000000000000000000000000000000000000000000000000000000815260040161063390610d98565b60405180910390fd5b6000830361067f576040517f08c379a000000000000000000000000000000000000000000000000000000000815260040161067690610ebd565b60405180910390fd5b600073ffffffffffffffffffffffffffffffffffffffff168273ffffffffffffffffffffffffffffffffffffffff16036106ee576040517f08c379a00000000000000000000000000000000000000000000000000000000081526004016106e590610f29565b60405180910390fd5b6000815111610732576040517f08c379a000000000000000000000000000000000000000000000000000000000815260040161072990610f95565b60405180910390fd5b600060405180604001604052808473ffffffffffffffffffffffffffffffffffffffff1681526020018381525090506002600085815260200190815260200160002081908060018154018082558091505060019003906000526020600020906002020160009091909190915060008201518160000160006101000a81548173ffffffffffffffffffffffffffffffffffffffff021916908373ffffffffffffffffffffffffffffffffffffffff16021790555060208201518160010190816107fa9190611161565b5050507fe0ccd2551b6eb8cbb58ed8ed1e1854e11bb01d8f1c8140ca8e99fea08821a54384826000015183602001516040516108389392919061127b565b60405180910390a150505050565b6000604051905090565b600080fd5b600080fd5b600073ffffffffffffffffffffffffffffffffffffffff82169050919050565b60006108858261085a565b9050919050565b6108958161087a565b81146108a057600080fd5b50565b6000813590506108b28161088c565b92915050565b6000602082840312156108ce576108cd610850565b5b60006108dc848285016108a3565b91505092915050565b6000819050919050565b6108f8816108e5565b811461090357600080fd5b50565b600081359050610915816108ef565b92915050565b60006020828403121561093157610930610850565b5b600061093f84828501610906565b91505092915050565b600081519050919050565b600082825260208201905092915050565b6000819050602082019050919050565b61097d8161087a565b82525050565b600081519050919050565b600082825260208201905092915050565b60005b838110156109bd5780820151818401526020810190506109a2565b838111156109cc576000848401525b50505050565b6000601f19601f8301169050919050565b60006109ee82610983565b6109f8818561098e565b9350610a0881856020860161099f565b610a11816109d2565b840191505092915050565b6000604083016000830151610a346000860182610974565b5060208301518482036020860152610a4c82826109e3565b9150508091505092915050565b6000610a658383610a1c565b905092915050565b6000602082019050919050565b6000610a8582610948565b610a8f8185610953565b935083602082028501610aa185610964565b8060005b85811015610add5784840389528151610abe8582610a59565b9450610ac983610a6d565b925060208a01995050600181019050610aa5565b50829750879550505050505092915050565b60006020820190508181036000830152610b098184610a7a565b905092915050565b610b1a8161087a565b82525050565b6000602082019050610b356000830184610b11565b92915050565b60008115159050919050565b610b5081610b3b565b82525050565b6000602082019050610b6b6000830184610b47565b92915050565b600080fd5b600080fd5b7f4e487b7100000000000000000000000000000000000000000000000000000000600052604160045260246000fd5b610bb3826109d2565b810181811067ffffffffffffffff82111715610bd257610bd1610b7b565b5b80604052505050565b6000610be5610846565b9050610bf18282610baa565b919050565b600067ffffffffffffffff821115610c1157610c10610b7b565b5b610c1a826109d2565b9050602081019050919050565b82818337600083830152505050565b6000610c49610c4484610bf6565b610bdb565b905082815260208101848484011115610c6557610c64610b76565b5b610c70848285610c27565b509392505050565b600082601f830112610c8d57610c8c610b71565b5b8135610c9d848260208601610c36565b91505092915050565b600080600060608486031215610cbf57610cbe610850565b5b6000610ccd86828701610906565b9350506020610cde868287016108a3565b925050604084013567ffffffffffffffff811115610cff57610cfe610855565b5b610d0b86828701610c78565b9150509250925092565b600082825260208201905092915050565b7f4f776e657261626c653a2063616c6c6572206973206e6f7420746865206f776e60008201527f6572000000000000000000000000000000000000000000000000000000000000602082015250565b6000610d82602283610d15565b9150610d8d82610d26565b604082019050919050565b60006020820190508181036000830152610db181610d75565b9050919050565b610dc181610b3b565b8114610dcc57600080fd5b50565b600081519050610dde81610db8565b92915050565b600060208284031215610dfa57610df9610850565b5b6000610e0884828501610dcf565b91505092915050565b7f4e487b7100000000000000000000000000000000000000000000000000000000600052602260045260246000fd5b60006002820490506001821680610e5857607f821691505b602082108103610e6b57610e6a610e11565b5b50919050565b7f73747564656e7420494420697320656d70747921000000000000000000000000600082015250565b6000610ea7601483610d15565b9150610eb282610e71565b602082019050919050565b60006020820190508181036000830152610ed681610e9a565b9050919050565b7f73747564656e74206164647265737320697320656d7074792100000000000000600082015250565b6000610f13601983610d15565b9150610f1e82610edd565b602082019050919050565b60006020820190508181036000830152610f4281610f06565b9050919050565b7f73747564656e74207075626c6963206b657920697320656d7074792100000000600082015250565b6000610f7f601c83610d15565b9150610f8a82610f49565b602082019050919050565b60006020820190508181036000830152610fae81610f72565b9050919050565b60008190508160005260206000209050919050565b60006020601f8301049050919050565b600082821b905092915050565b6000600883026110177fffffffffffffffffffffffffffffffffffffffffffffffffffffffffffffffff82610fda565b6110218683610fda565b95508019841693508086168417925050509392505050565b6000819050919050565b600061105e611059611054846108e5565b611039565b6108e5565b9050919050565b6000819050919050565b61107883611043565b61108c61108482611065565b848454610fe7565b825550505050565b600090565b6110a1611094565b6110ac81848461106f565b505050565b5b818110156110d0576110c5600082611099565b6001810190506110b2565b5050565b601f821115611115576110e681610fb5565b6110ef84610fca565b810160208510156110fe578190505b61111261110a85610fca565b8301826110b1565b50505b505050565b600082821c905092915050565b60006111386000198460080261111a565b1980831691505092915050565b60006111518383611127565b9150826002028217905092915050565b61116a82610983565b67ffffffffffffffff81111561118357611182610b7b565b5b61118d8254610e40565b6111988282856110d4565b600060209050601f8311600181146111cb57600084156111b9578287015190505b6111c38582611145565b86555061122b565b601f1984166111d986610fb5565b60005b82811015611201578489015182556001820191506020850194506020810190506111dc565b8683101561121e578489015161121a601f891682611127565b8355505b6001600288020188555050505b505050505050565b61123c816108e5565b82525050565b600061124d82610983565b6112578185610d15565b935061126781856020860161099f565b611270816109d2565b840191505092915050565b60006060820190506112906000830186611233565b61129d6020830185610b11565b81810360408301526112af8184611242565b905094935050505056fea2646970667358221220c8d1256180e3ffb3b5d3ac9c1b761978312f81017f6087761cb5209dfe682b9764736f6c634300080f0033",
  "immutableReferences": {},
  "source": "\n// import \"./Ownable.sol\"; // Path to the imported library\n\npragma solidity >=0.7.0 <0.9.0;\n\n// SPDX-License-Identifier: MIT\n\ninterface UniversityInterface{\n    // check if it's the university address\n    function isOwner(address owner) external view returns (bool);\n}\n\n\ncontract StudentManagement{\n    // The following function can only be called by the owner\n\n    address owner;\n    address universityContract;\n\n    struct student {\n        address studentAddr;\n        string studentPK;\n    }\n\n    mapping (uint => student[]) private students;\n\n    // Emits an event when a new student is added, you can use this to update remote student lists.\n    event studentAdded(uint studentID, address studentAddr, string studentPK);\n\n    constructor() {\n        owner = msg.sender;\n    }\n\n    function init(address _owner) public{\n        require(owner == msg.sender, \"Ownerable: caller is not the owner\");\n        universityContract = _owner;\n    }\n\n    function changeInit(address _owner) public{\n        require(UniversityInterface(universityContract).isOwner(msg.sender) == true, \"Ownerable: caller is not the owner\");\n        universityContract = _owner;\n    }\n\n\n    function test(address _owner) public view returns(bool){\n        return UniversityInterface(universityContract).isOwner(_owner);\n    }\n    \n    function test1() public view returns(address){\n        return universityContract;\n    }\n\n\n    function getStudent(uint _studentID) public view returns (student [] memory){\n        return students[_studentID];\n    }\n\n    function addStudent(uint _studentID, address _studentAddr, string memory _studentPK) public {\n\n        require(UniversityInterface(universityContract).isOwner(msg.sender) == true, \"Ownerable: caller is not the owner\");\n\n        // require the student ID to not be empty.\n        require(_studentID != 0, \"student ID is empty!\");\n\n        // require the student address to not be empty.\n        require(_studentAddr != address(0x0), \"student address is empty!\");\n\n        // require the student public key to not be empty.\n        require(bytes(_studentPK).length > 0, \"student public key is empty!\");\n\n        // adds the student to the storage.\n        student memory newStudent = student(_studentAddr, _studentPK);\n        students[_studentID].push(newStudent);\n\n        // emits item added event.\n        emit studentAdded(_studentID, newStudent.studentAddr, newStudent.studentPK);\n    }\n}\n",
  "sourcePath": "/Users/reol/Documents/CyberSecurity/Msc project/code/OnlineExam/contracts/StudentManagement.sol",
  "compiler": {
    "name": "solc",
    "version": "0.8.15+commit.e14f2714.Emscripten.clang"
  },
  "schemaVersion": "3.4.8",
  "updatedAt": "2022-08-05T12:18:06.248Z",
  "devdoc": {
    "kind": "dev",
    "methods": {},
    "version": 1
  },
  "userdoc": {
    "kind": "user",
    "methods": {},
    "version": 1
  }
}