{
  "contractName": "UniversityManagement",
  "abi": [
    {
      "inputs": [],
      "stateMutability": "nonpayable",
      "type": "constructor"
    },
    {
      "inputs": [
        {
          "internalType": "address",
          "name": "",
          "type": "address"
        }
      ],
      "name": "owners",
      "outputs": [
        {
          "internalType": "bool",
          "name": "",
          "type": "bool"
        }
      ],
      "stateMutability": "view",
      "type": "function",
      "constant": true
    },
    {
      "inputs": [
        {
          "internalType": "address",
          "name": "_owner",
          "type": "address"
        }
      ],
      "name": "addOwner",
      "outputs": [],
      "stateMutability": "nonpayable",
      "type": "function"
    },
    {
      "inputs": [
        {
          "internalType": "address",
          "name": "_owner",
          "type": "address"
        }
      ],
      "name": "deleteOwner",
      "outputs": [],
      "stateMutability": "nonpayable",
      "type": "function"
    },
    {
      "inputs": [
        {
          "internalType": "address",
          "name": "_owner",
          "type": "address"
        }
      ],
      "name": "isOwner",
      "outputs": [
        {
          "internalType": "bool",
          "name": "",
          "type": "bool"
        }
      ],
      "stateMutability": "view",
      "type": "function",
      "constant": true
    }
  ],
  "bytecode": "0x608060405234801561001057600080fd5b5060016000803373ffffffffffffffffffffffffffffffffffffffff1673ffffffffffffffffffffffffffffffffffffffff16815260200190815260200160002060006101000a81548160ff0219169083151502179055506104cc806100776000396000f3fe608060405234801561001057600080fd5b506004361061004c5760003560e01c8063022914a7146100515780632f54bf6e146100815780637065cb48146100b1578063cd5c4c70146100cd575b600080fd5b61006b60048036038101906100669190610390565b6100e9565b60405161007891906103d8565b60405180910390f35b61009b60048036038101906100969190610390565b610109565b6040516100a891906103d8565b60405180910390f35b6100cb60048036038101906100c69190610390565b61015e565b005b6100e760048036038101906100e29190610390565b61024a565b005b60006020528060005260406000206000915054906101000a900460ff1681565b60008060008373ffffffffffffffffffffffffffffffffffffffff1673ffffffffffffffffffffffffffffffffffffffff16815260200190815260200160002060009054906101000a900460ff169050919050565b600115156000803373ffffffffffffffffffffffffffffffffffffffff1673ffffffffffffffffffffffffffffffffffffffff16815260200190815260200160002060009054906101000a900460ff161515146101f0576040517f08c379a00000000000000000000000000000000000000000000000000000000081526004016101e790610476565b60405180910390fd5b60016000808373ffffffffffffffffffffffffffffffffffffffff1673ffffffffffffffffffffffffffffffffffffffff16815260200190815260200160002060006101000a81548160ff02191690831515021790555050565b600115156000803373ffffffffffffffffffffffffffffffffffffffff1673ffffffffffffffffffffffffffffffffffffffff16815260200190815260200160002060009054906101000a900460ff161515146102dc576040517f08c379a00000000000000000000000000000000000000000000000000000000081526004016102d390610476565b60405180910390fd5b6000808273ffffffffffffffffffffffffffffffffffffffff1673ffffffffffffffffffffffffffffffffffffffff16815260200190815260200160002060006101000a81549060ff021916905550565b600080fd5b600073ffffffffffffffffffffffffffffffffffffffff82169050919050565b600061035d82610332565b9050919050565b61036d81610352565b811461037857600080fd5b50565b60008135905061038a81610364565b92915050565b6000602082840312156103a6576103a561032d565b5b60006103b48482850161037b565b91505092915050565b60008115159050919050565b6103d2816103bd565b82525050565b60006020820190506103ed60008301846103c9565b92915050565b600082825260208201905092915050565b7f4f776e657261626c653a2063616c6c6572206973206e6f7420746865206f776e60008201527f6572000000000000000000000000000000000000000000000000000000000000602082015250565b60006104606022836103f3565b915061046b82610404565b604082019050919050565b6000602082019050818103600083015261048f81610453565b905091905056fea26469706673582212204fad5d1ef1fd194254a881992bb37a6ec2ff5063639c4da8dac7e64a53eecc5864736f6c634300080f0033",
  "immutableReferences": {},
  "source": "pragma solidity >=0.7.0 <0.9.0;\n\n// SPDX-License-Identifier: MIT\n\ncontract UniversityManagement{\n\n    // map owner address (can have multiple owners)\n    mapping (address => bool) public owners;\n\n    constructor() {\n        owners[msg.sender] = true;\n    }\n\n    // modifier: only owner (university) address can call the 'onlyOwner' function.\n    modifier onlyOwner() {\n        require(owners[msg.sender] == true, \"Ownerable: caller is not the owner\");\n        _;\n    }\n\n    // add new owner address\n    function addOwner(address _owner) public onlyOwner{\n        owners[_owner] = true;\n    }\n\n    // delete owner address\n    function deleteOwner(address _owner) public onlyOwner{\n        delete owners[_owner];\n    }\n\n    // check if it's the owner address\n    function isOwner(address _owner) external view returns (bool){\n        return owners[_owner];\n    }\n\n}",
  "sourcePath": "/Users/reol/Documents/CyberSecurity/Msc project/code/OnlineExam/contracts/UniversityManagement.sol",
  "compiler": {
    "name": "solc",
    "version": "0.8.15+commit.e14f2714.Emscripten.clang"
  },
  "schemaVersion": "3.4.8",
  "updatedAt": "2022-09-05T14:29:27.056Z",
  "networkType": "ethereum",
  "devdoc": {
    "kind": "dev",
    "methods": {},
    "version": 1
  },
  "userdoc": {
    "kind": "user",
    "methods": {},
    "version": 1
  }
}