{
  "contractName": "UniversityManagement",
  "abi": [
    {
      "inputs": [],
      "stateMutability": "nonpayable",
      "type": "constructor"
    },
    {
      "inputs": [
        {
          "internalType": "address",
          "name": "",
          "type": "address"
        }
      ],
      "name": "owners",
      "outputs": [
        {
          "internalType": "bool",
          "name": "",
          "type": "bool"
        }
      ],
      "stateMutability": "view",
      "type": "function"
    },
    {
      "inputs": [
        {
          "internalType": "address",
          "name": "_owner",
          "type": "address"
        }
      ],
      "name": "addOwner",
      "outputs": [],
      "stateMutability": "nonpayable",
      "type": "function"
    },
    {
      "inputs": [
        {
          "internalType": "address",
          "name": "_owner",
          "type": "address"
        }
      ],
      "name": "deleteOwner",
      "outputs": [],
      "stateMutability": "nonpayable",
      "type": "function"
    },
    {
      "inputs": [
        {
          "internalType": "address",
          "name": "_owner",
          "type": "address"
        }
      ],
      "name": "isOwner",
      "outputs": [
        {
          "internalType": "bool",
          "name": "",
          "type": "bool"
        }
      ],
      "stateMutability": "view",
      "type": "function"
    }
  ],
  "bytecode": "0x608060405234801561001057600080fd5b5060016000803373ffffffffffffffffffffffffffffffffffffffff1673ffffffffffffffffffffffffffffffffffffffff16815260200190815260200160002060006101000a81548160ff0219169083151502179055506104d5806100776000396000f3fe608060405234801561001057600080fd5b506004361061004c5760003560e01c8063022914a7146100515780632f54bf6e146100815780637065cb48146100b1578063cd5c4c70146100cd575b600080fd5b61006b60048036038101906100669190610399565b6100e9565b60405161007891906103e1565b60405180910390f35b61009b60048036038101906100969190610399565b610109565b6040516100a891906103e1565b60405180910390f35b6100cb60048036038101906100c69190610399565b61015e565b005b6100e760048036038101906100e29190610399565b61024a565b005b60006020528060005260406000206000915054906101000a900460ff1681565b60008060008373ffffffffffffffffffffffffffffffffffffffff1673ffffffffffffffffffffffffffffffffffffffff16815260200190815260200160002060009054906101000a900460ff169050919050565b600115156000803373ffffffffffffffffffffffffffffffffffffffff1673ffffffffffffffffffffffffffffffffffffffff16815260200190815260200160002060009054906101000a900460ff161515146101f0576040517f08c379a00000000000000000000000000000000000000000000000000000000081526004016101e79061047f565b60405180910390fd5b60016000808373ffffffffffffffffffffffffffffffffffffffff1673ffffffffffffffffffffffffffffffffffffffff16815260200190815260200160002060006101000a81548160ff02191690831515021790555050565b600115156000803373ffffffffffffffffffffffffffffffffffffffff1673ffffffffffffffffffffffffffffffffffffffff16815260200190815260200160002060009054906101000a900460ff161515146102dc576040517f08c379a00000000000000000000000000000000000000000000000000000000081526004016102d39061047f565b60405180910390fd5b60008060008373ffffffffffffffffffffffffffffffffffffffff1673ffffffffffffffffffffffffffffffffffffffff16815260200190815260200160002060006101000a81548160ff02191690831515021790555050565b600080fd5b600073ffffffffffffffffffffffffffffffffffffffff82169050919050565b60006103668261033b565b9050919050565b6103768161035b565b811461038157600080fd5b50565b6000813590506103938161036d565b92915050565b6000602082840312156103af576103ae610336565b5b60006103bd84828501610384565b91505092915050565b60008115159050919050565b6103db816103c6565b82525050565b60006020820190506103f660008301846103d2565b92915050565b600082825260208201905092915050565b7f4f776e657261626c653a2063616c6c6572206973206e6f7420746865206f776e60008201527f6572000000000000000000000000000000000000000000000000000000000000602082015250565b60006104696022836103fc565b91506104748261040d565b604082019050919050565b600060208201905081810360008301526104988161045c565b905091905056fea2646970667358221220c578cfdb154860adab8bd8f9f34fbc014ff8e9ff26604bbc29d2094015c2f4c564736f6c634300080f0033",
  "immutableReferences": {},
  "source": "pragma solidity >=0.7.0 <0.9.0;\n\n// SPDX-License-Identifier: MIT\n\ncontract UniversityManagement{\n\n    // map owner address (can have multiple owners)\n    mapping (address => bool) public owners;\n\n    constructor() {\n        owners[msg.sender] = true;\n    }\n\n    modifier onlyOwner() {\n        require(owners[msg.sender] == true, \"Ownerable: caller is not the owner\");\n        _;\n    }\n\n    // add new owner address\n    function addOwner(address _owner) public onlyOwner{\n        owners[_owner] = true;\n    }\n\n    function deleteOwner(address _owner) public onlyOwner{\n        owners[_owner] = false;\n    }\n\n    // check if it's the owner address\n    function isOwner(address _owner) external view returns (bool){\n        return owners[_owner];\n    }\n\n}",
  "sourcePath": "/Users/reol/Documents/CyberSecurity/Msc project/code/OnlineExam/contracts/UniversityManagement.sol",
  "compiler": {
    "name": "solc",
    "version": "0.8.15+commit.e14f2714.Emscripten.clang"
  },
  "schemaVersion": "3.4.8",
  "updatedAt": "2022-08-05T12:18:06.260Z",
  "devdoc": {
    "kind": "dev",
    "methods": {},
    "version": 1
  },
  "userdoc": {
    "kind": "user",
    "methods": {},
    "version": 1
  }
}